{"contracts/FurCoin.sol":{"FurCoin":{"abi":[{"inputs":[],"stateMutability":"nonpayable","type":"constructor"},{"anonymous":false,"inputs":[{"indexed":true,"internalType":"uint256","name":"petId","type":"uint256"},{"indexed":true,"internalType":"address","name":"carer","type":"address"}],"name":"CarerDeregistered","type":"event"},{"anonymous":false,"inputs":[{"indexed":true,"internalType":"uint256","name":"petId","type":"uint256"},{"indexed":true,"internalType":"address","name":"carer","type":"address"}],"name":"CarerRegistered","type":"event"},{"anonymous":false,"inputs":[{"indexed":true,"internalType":"address","name":"_shelter","type":"address"},{"indexed":true,"internalType":"address","name":"_newOwner","type":"address"}],"name":"OwnerApproved","type":"event"},{"anonymous":false,"inputs":[{"indexed":true,"internalType":"address","name":"_from","type":"address"},{"indexed":true,"internalType":"address","name":"_to","type":"address"},{"indexed":false,"internalType":"uint256","name":"_role","type":"uint256"}],"name":"PermissionedRoleApproved","type":"event"},{"anonymous":false,"inputs":[{"indexed":true,"internalType":"address","name":"_from","type":"address"},{"indexed":true,"internalType":"address","name":"_to","type":"address"},{"indexed":false,"internalType":"uint256","name":"_role","type":"uint256"}],"name":"PermissionedRoleRevoked","type":"event"},{"anonymous":false,"inputs":[{"indexed":true,"internalType":"address","name":"_shelter","type":"address"},{"indexed":true,"internalType":"address","name":"_adopter","type":"address"},{"indexed":true,"internalType":"uint256","name":"_petId","type":"uint256"}],"name":"PetAdopted","type":"event"},{"anonymous":false,"inputs":[{"indexed":true,"internalType":"uint256","name":"_petId","type":"uint256"}],"name":"PetFound","type":"event"},{"anonymous":false,"inputs":[{"indexed":true,"internalType":"uint256","name":"_petId","type":"uint256"}],"name":"PetLost","type":"event"},{"anonymous":false,"inputs":[{"indexed":true,"internalType":"address","name":"_shelter","type":"address"},{"indexed":true,"internalType":"uint256","name":"_petId","type":"uint256"}],"name":"PetRegistered","type":"event"},{"anonymous":false,"inputs":[{"indexed":true,"internalType":"address","name":"_from","type":"address"},{"indexed":true,"internalType":"address","name":"_to","type":"address"},{"indexed":false,"internalType":"uint256","name":"_value","type":"uint256"}],"name":"TokenTransferred","type":"event"},{"inputs":[{"internalType":"uint256","name":"_petId","type":"uint256"},{"internalType":"string","name":"_name","type":"string"},{"internalType":"uint256","name":"_age","type":"uint256"},{"internalType":"string","name":"_medicalHistory","type":"string"}],"name":"amendPetRecord","outputs":[],"stateMutability":"nonpayable","type":"function"},{"inputs":[{"internalType":"address","name":"_allowedOwner","type":"address"}],"name":"approveAsOwner","outputs":[],"stateMutability":"nonpayable","type":"function"},{"inputs":[{"internalType":"address","name":"_address","type":"address"},{"internalType":"uint256","name":"_role","type":"uint256"}],"name":"assignPermissionedRole","outputs":[],"stateMutability":"nonpayable","type":"function"},{"inputs":[{"internalType":"address","name":"","type":"address"}],"name":"balances","outputs":[{"internalType":"uint256","name":"","type":"uint256"}],"stateMutability":"view","type":"function"},{"inputs":[{"internalType":"address","name":"_from","type":"address"},{"internalType":"uint256","name":"_amount","type":"uint256"}],"name":"burn","outputs":[],"stateMutability":"nonpayable","type":"function"},{"inputs":[{"internalType":"uint256","name":"_petId","type":"uint256"},{"internalType":"uint256","name":"_rewardLevel","type":"uint256"}],"name":"changeRewardLevel","outputs":[],"stateMutability":"nonpayable","type":"function"},{"inputs":[],"name":"decimals","outputs":[{"internalType":"uint8","name":"","type":"uint8"}],"stateMutability":"view","type":"function"},{"inputs":[{"internalType":"uint256","name":"_petId","type":"uint256"},{"internalType":"address","name":"_carer","type":"address"}],"name":"deregisterCarer","outputs":[],"stateMutability":"nonpayable","type":"function"},{"inputs":[{"internalType":"uint256","name":"_petId","type":"uint256"}],"name":"findOwner","outputs":[{"internalType":"address","name":"","type":"address"}],"stateMutability":"view","type":"function"},{"inputs":[{"internalType":"uint256","name":"_petId","type":"uint256"}],"name":"foundPet","outputs":[],"stateMutability":"nonpayable","type":"function"},{"inputs":[{"internalType":"address","name":"_address","type":"address"}],"name":"getBalance","outputs":[{"internalType":"uint256","name":"","type":"uint256"}],"stateMutability":"view","type":"function"},{"inputs":[{"internalType":"uint256","name":"_petId","type":"uint256"}],"name":"getOwner","outputs":[{"internalType":"address","name":"","type":"address"}],"stateMutability":"view","type":"function"},{"inputs":[{"internalType":"uint256","name":"_petId","type":"uint256"}],"name":"getRewardLevel","outputs":[{"internalType":"uint256","name":"","type":"uint256"}],"stateMutability":"view","type":"function"},{"inputs":[{"internalType":"uint256","name":"_petId","type":"uint256"},{"internalType":"uint256","name":"_value","type":"uint256"}],"name":"giveReward","outputs":[],"stateMutability":"nonpayable","type":"function"},{"inputs":[{"internalType":"uint256","name":"_petId","type":"uint256"},{"internalType":"string","name":"_phonenumber","type":"string"}],"name":"lostPet","outputs":[],"stateMutability":"nonpayable","type":"function"},{"inputs":[{"internalType":"uint256","name":"_amount","type":"uint256"}],"name":"mint","outputs":[],"stateMutability":"nonpayable","type":"function"},{"inputs":[],"name":"name","outputs":[{"internalType":"string","name":"","type":"string"}],"stateMutability":"view","type":"function"},{"inputs":[{"internalType":"uint256","name":"","type":"uint256"}],"name":"petAdopted","outputs":[{"internalType":"bool","name":"","type":"bool"}],"stateMutability":"view","type":"function"},{"inputs":[{"internalType":"uint256","name":"","type":"uint256"}],"name":"petCarer","outputs":[{"internalType":"address","name":"","type":"address"}],"stateMutability":"view","type":"function"},{"inputs":[{"internalType":"uint256","name":"","type":"uint256"}],"name":"petLost","outputs":[{"internalType":"bool","name":"","type":"bool"}],"stateMutability":"view","type":"function"},{"inputs":[{"internalType":"uint256","name":"","type":"uint256"}],"name":"petLostPhoneNumber","outputs":[{"internalType":"string","name":"","type":"string"}],"stateMutability":"view","type":"function"},{"inputs":[{"internalType":"uint256","name":"","type":"uint256"}],"name":"petOwner","outputs":[{"internalType":"address","name":"","type":"address"}],"stateMutability":"view","type":"function"},{"inputs":[{"internalType":"uint256","name":"","type":"uint256"}],"name":"petRewardLevel","outputs":[{"internalType":"uint256","name":"","type":"uint256"}],"stateMutability":"view","type":"function"},{"inputs":[{"internalType":"uint256","name":"_petId","type":"uint256"},{"internalType":"address","name":"_carer","type":"address"}],"name":"registerCarer","outputs":[],"stateMutability":"nonpayable","type":"function"},{"inputs":[{"internalType":"uint256","name":"_petId","type":"uint256"},{"internalType":"string","name":"_name","type":"string"},{"internalType":"uint256","name":"_age","type":"uint256"},{"internalType":"string","name":"_medicalHistory","type":"string"}],"name":"registerPet","outputs":[],"stateMutability":"nonpayable","type":"function"},{"inputs":[{"internalType":"address","name":"_address","type":"address"}],"name":"revokePermissionedRole","outputs":[],"stateMutability":"nonpayable","type":"function"},{"inputs":[{"internalType":"address","name":"","type":"address"}],"name":"roles","outputs":[{"internalType":"uint256","name":"","type":"uint256"}],"stateMutability":"view","type":"function"},{"inputs":[{"internalType":"address","name":"_owner","type":"address"},{"internalType":"uint256","name":"_value","type":"uint256"}],"name":"spendReward","outputs":[],"stateMutability":"nonpayable","type":"function"},{"inputs":[],"name":"supply","outputs":[{"internalType":"uint256","name":"","type":"uint256"}],"stateMutability":"view","type":"function"},{"inputs":[],"name":"symbol","outputs":[{"internalType":"string","name":"","type":"string"}],"stateMutability":"view","type":"function"},{"inputs":[{"internalType":"address","name":"_to","type":"address"},{"internalType":"uint256","name":"_value","type":"uint256"}],"name":"transfer","outputs":[],"stateMutability":"nonpayable","type":"function"},{"inputs":[{"internalType":"uint256","name":"_petId","type":"uint256"},{"internalType":"address","name":"_newOwner","type":"address"}],"name":"transferPet","outputs":[],"stateMutability":"nonpayable","type":"function"},{"inputs":[{"internalType":"uint256","name":"_petId","type":"uint256"}],"name":"viewPetRecord","outputs":[{"components":[{"internalType":"string","name":"name","type":"string"},{"internalType":"uint256","name":"age","type":"uint256"},{"internalType":"string","name":"medicalHistory","type":"string"},{"internalType":"bool","name":"exists","type":"bool"}],"internalType":"struct FurCoin.PetRecord","name":"","type":"tuple"}],"stateMutability":"view","type":"function"}],"evm":{"bytecode":{"linkReferences":{},"object":"6080604052620f42406000556040518060400160405280600781526020017f467572436f696e000000000000000000000000000000000000000000000000008152506001908161004f919061039e565b506040518060400160405280600381526020017f465552000000000000000000000000000000000000000000000000000000000081525060029081610094919061039e565b506001600360006101000a81548160ff021916908360ff1602179055503480156100bd57600080fd5b50600054600460003373ffffffffffffffffffffffffffffffffffffffff1673ffffffffffffffffffffffffffffffffffffffff168152602001908152602001600020819055506000600560003373ffffffffffffffffffffffffffffffffffffffff1673ffffffffffffffffffffffffffffffffffffffff16815260200190815260200160002081905550610470565b600081519050919050565b7f4e487b7100000000000000000000000000000000000000000000000000000000600052604160045260246000fd5b7f4e487b7100000000000000000000000000000000000000000000000000000000600052602260045260246000fd5b600060028204905060018216806101cf57607f821691505b6020821081036101e2576101e1610188565b5b50919050565b60008190508160005260206000209050919050565b60006020601f8301049050919050565b600082821b905092915050565b60006008830261024a7fffffffffffffffffffffffffffffffffffffffffffffffffffffffffffffffff8261020d565b610254868361020d565b95508019841693508086168417925050509392505050565b6000819050919050565b6000819050919050565b600061029b6102966102918461026c565b610276565b61026c565b9050919050565b6000819050919050565b6102b583610280565b6102c96102c1826102a2565b84845461021a565b825550505050565b600090565b6102de6102d1565b6102e98184846102ac565b505050565b5b8181101561030d576103026000826102d6565b6001810190506102ef565b5050565b601f82111561035257610323816101e8565b61032c846101fd565b8101602085101561033b578190505b61034f610347856101fd565b8301826102ee565b50505b505050565b600082821c905092915050565b600061037560001984600802610357565b1980831691505092915050565b600061038e8383610364565b9150826002028217905092915050565b6103a78261014e565b67ffffffffffffffff8111156103c0576103bf610159565b5b6103ca82546101b7565b6103d5828285610311565b600060209050601f83116001811461040857600084156103f6578287015190505b6104008582610382565b865550610468565b601f198416610416866101e8565b60005b8281101561043e57848901518255600182019150602085019450602081019050610419565b8683101561045b5784890151610457601f891682610364565b8355505b6001600288020188555050505b505050505050565b613de98061047f6000396000f3fe608060405234801561001057600080fd5b50600436106101fb5760003560e01c806389c020a31161011a578063b83e433f116100ad578063d1f035141161007c578063d1f03514146105f4578063d7ed8c6514610624578063ef1ae1a014610640578063f4c7d7651461065c578063f8b2cb4f14610678576101fb565b8063b83e433f1461055c578063c1551cd51461058c578063c41a360a146105a8578063cdf47eec146105d8576101fb565b80639dc29fac116100e95780639dc29fac146104ec578063a0712d6814610508578063a9059cbb14610524578063a95ff42914610540576101fb565b806389c020a31461045257806395d89b4114610482578063971629c1146104a057806399374642146104bc576101fb565b806342e88c2e1161019257806355f4b74d1161016157806355f4b74d146103ce5780636074915d146103fe57806360fd7ee61461041a5780637be6d0f614610436576101fb565b806342e88c2e1461034a5780634b9e27871461037a5780634c0edbbf14610396578063559f7dc6146103b2576101fb565b80632433fee1116101ce5780632433fee11461029c57806326225abf146102cc57806327e235e3146102fc578063313ce5671461032c576101fb565b8063047fc9aa1461020057806306fdde031461021e578063178f474f1461023c5780631e41e5681461026c575b600080fd5b6102086106a8565b6040516102159190612984565b60405180910390f35b6102266106ae565b6040516102339190612a2f565b60405180910390f35b61025660048036038101906102519190612a91565b61073c565b6040516102639190612a2f565b60405180910390f35b61028660048036038101906102819190612a91565b6107dc565b6040516102939190612ad9565b60405180910390f35b6102b660048036038101906102b19190612a91565b6107fc565b6040516102c39190612bc6565b60405180910390f35b6102e660048036038101906102e19190612a91565b610b2b565b6040516102f39190612c29565b60405180910390f35b61031660048036038101906103119190612c70565b610b5e565b6040516103239190612984565b60405180910390f35b610334610b76565b6040516103419190612cb9565b60405180910390f35b610364600480360381019061035f9190612a91565b610b89565b6040516103719190612984565b60405180910390f35b610394600480360381019061038f9190612cd4565b610ba1565b005b6103b060048036038101906103ab9190612a91565b610d21565b005b6103cc60048036038101906103c79190612e49565b610e4e565b005b6103e860048036038101906103e39190612a91565b610f6d565b6040516103f59190612c29565b60405180910390f35b61041860048036038101906104139190612ea5565b611011565b005b610434600480360381019061042f9190612f44565b6111a9565b005b610450600480360381019061044b9190612f84565b6112e4565b005b61046c60048036038101906104679190612a91565b611382565b6040516104799190612c29565b60405180910390f35b61048a6113b5565b6040516104979190612a2f565b60405180910390f35b6104ba60048036038101906104b59190612f44565b611443565b005b6104d660048036038101906104d19190612c70565b61157f565b6040516104e39190612984565b60405180910390f35b61050660048036038101906105019190612cd4565b611597565b005b610522600480360381019061051d9190612a91565b611773565b005b61053e60048036038101906105399190612cd4565b6118cc565b005b61055a60048036038101906105559190612f84565b611a63565b005b61057660048036038101906105719190612a91565b611c96565b6040516105839190612ad9565b60405180910390f35b6105a660048036038101906105a19190612c70565b611cb6565b005b6105c260048036038101906105bd9190612a91565b611f60565b6040516105cf9190612c29565b60405180910390f35b6105f260048036038101906105ed9190612c70565b612069565b005b61060e60048036038101906106099190612a91565b6121dc565b60405161061b9190612984565b60405180910390f35b61063e60048036038101906106399190612ea5565b6122c5565b005b61065a60048036038101906106559190612cd4565b61251c565b005b61067660048036038101906106719190612f44565b6126f8565b005b610692600480360381019061068d9190612c70565b6128f8565b60405161069f9190612984565b60405180910390f35b60005481565b600180546106bb90612ff3565b80601f01602080910402602001604051908101604052809291908181526020018280546106e790612ff3565b80156107345780601f1061070957610100808354040283529160200191610734565b820191906000526020600020905b81548152906001019060200180831161071757829003601f168201915b505050505081565b600b602052806000526040600020600091509050805461075b90612ff3565b80601f016020809104026020016040519081016040528092919081815260200182805461078790612ff3565b80156107d45780601f106107a9576101008083540402835291602001916107d4565b820191906000526020600020905b8154815290600101906020018083116107b757829003601f168201915b505050505081565b60096020528060005260406000206000915054906101000a900460ff1681565b610804612941565b816007600082815260200190815260200160002060009054906101000a900473ffffffffffffffffffffffffffffffffffffffff1673ffffffffffffffffffffffffffffffffffffffff163373ffffffffffffffffffffffffffffffffffffffff1614806108d057506008600082815260200190815260200160002060009054906101000a900473ffffffffffffffffffffffffffffffffffffffff1673ffffffffffffffffffffffffffffffffffffffff163373ffffffffffffffffffffffffffffffffffffffff16145b8061091a57506003600560003373ffffffffffffffffffffffffffffffffffffffff1673ffffffffffffffffffffffffffffffffffffffff16815260200190815260200160002054145b610959576040517f08c379a000000000000000000000000000000000000000000000000000000000815260040161095090613096565b60405180910390fd5b600c600084815260200190815260200160002060030160009054906101000a900460ff166109bc576040517f08c379a00000000000000000000000000000000000000000000000000000000081526004016109b390613102565b60405180910390fd5b600c60008481526020019081526020016000206040518060800160405290816000820180546109ea90612ff3565b80601f0160208091040260200160405190810160405280929190818152602001828054610a1690612ff3565b8015610a635780601f10610a3857610100808354040283529160200191610a63565b820191906000526020600020905b815481529060010190602001808311610a4657829003601f168201915b5050505050815260200160018201548152602001600282018054610a8690612ff3565b80601f0160208091040260200160405190810160405280929190818152602001828054610ab290612ff3565b8015610aff5780601f10610ad457610100808354040283529160200191610aff565b820191906000526020600020905b815481529060010190602001808311610ae257829003601f168201915b505050505081526020016003820160009054906101000a900460ff161515151581525050915050919050565b60076020528060005260406000206000915054906101000a900473ffffffffffffffffffffffffffffffffffffffff1681565b60046020528060005260406000206000915090505481565b600360009054906101000a900460ff1681565b60066020528060005260406000206000915090505481565b6000600560003373ffffffffffffffffffffffffffffffffffffffff1673ffffffffffffffffffffffffffffffffffffffff1681526020019081526020016000205414610c23576040517f08c379a0000000000000000000000000000000000000000000000000000000008152600401610c1a90613194565b60405180910390fd5b60008110158015610c35575060058111155b610c74576040517f08c379a0000000000000000000000000000000000000000000000000000000008152600401610c6b90613200565b60405180910390fd5b80600560008473ffffffffffffffffffffffffffffffffffffffff1673ffffffffffffffffffffffffffffffffffffffff168152602001908152602001600020819055508173ffffffffffffffffffffffffffffffffffffffff163373ffffffffffffffffffffffffffffffffffffffff167f21be87bf0506bfa8b8ae2e59f15ed642e77ce15ff6d156d568362de39712786283604051610d159190612984565b60405180910390a35050565b3373ffffffffffffffffffffffffffffffffffffffff166007600083815260200190815260200160002060009054906101000a900473ffffffffffffffffffffffffffffffffffffffff1673ffffffffffffffffffffffffffffffffffffffff1614610dc2576040517f08c379a0000000000000000000000000000000000000000000000000000000008152600401610db990613292565b60405180910390fd5b6000600a600083815260200190815260200160002060006101000a81548160ff02191690831515021790555060405180602001604052806000815250600b60008381526020019081526020016000209081610e1d919061345e565b50807f0d5f889530c6afcef6130327d64aad3fb36a35091ca69c18f20600af82626f0960405160405180910390a250565b3373ffffffffffffffffffffffffffffffffffffffff166007600084815260200190815260200160002060009054906101000a900473ffffffffffffffffffffffffffffffffffffffff1673ffffffffffffffffffffffffffffffffffffffff1614610eef576040517f08c379a0000000000000000000000000000000000000000000000000000000008152600401610ee6906135a2565b60405180910390fd5b6001600a600084815260200190815260200160002060006101000a81548160ff02191690831515021790555080600b60008481526020019081526020016000209081610f3b919061345e565b50817f77dcf6c12cfb1e46af4eeea5ecf4d3fd431dcb6842b0db92e3a486a1d27c91af60405160405180910390a25050565b600060011515600a600084815260200190815260200160002060009054906101000a900460ff16151514610fd6576040517f08c379a0000000000000000000000000000000000000000000000000000000008152600401610fcd9061360e565b60405180910390fd5b6007600083815260200190815260200160002060009054906101000a900473ffffffffffffffffffffffffffffffffffffffff169050919050565b6001600560003373ffffffffffffffffffffffffffffffffffffffff1673ffffffffffffffffffffffffffffffffffffffff16815260200190815260200160002054148061109e57506003600560003373ffffffffffffffffffffffffffffffffffffffff1673ffffffffffffffffffffffffffffffffffffffff16815260200190815260200160002054145b6110dd576040517f08c379a00000000000000000000000000000000000000000000000000000000081526004016110d4906136a0565b60405180910390fd5b600c600085815260200190815260200160002060030160009054906101000a900460ff16611140576040517f08c379a000000000000000000000000000000000000000000000000000000000815260040161113790613102565b60405180910390fd5b82600c60008681526020019081526020016000206000019081611163919061345e565b5081600c60008681526020019081526020016000206001018190555080600c600086815260200190815260200160002060020190816111a2919061345e565b5050505050565b3373ffffffffffffffffffffffffffffffffffffffff166007600084815260200190815260200160002060009054906101000a900473ffffffffffffffffffffffffffffffffffffffff1673ffffffffffffffffffffffffffffffffffffffff161461124a576040517f08c379a000000000000000000000000000000000000000000000000000000000815260040161124190613732565b60405180910390fd5b806008600084815260200190815260200160002060006101000a81548173ffffffffffffffffffffffffffffffffffffffff021916908373ffffffffffffffffffffffffffffffffffffffff1602179055508073ffffffffffffffffffffffffffffffffffffffff16827f66d2f090dd74eff680d15784df74cbc139d151a95e986258da51dd9847ce037660405160405180910390a35050565b6003600560003373ffffffffffffffffffffffffffffffffffffffff1673ffffffffffffffffffffffffffffffffffffffff1681526020019081526020016000205414611366576040517f08c379a000000000000000000000000000000000000000000000000000000000815260040161135d906137c4565b60405180910390fd5b8060066000848152602001908152602001600020819055505050565b60086020528060005260406000206000915054906101000a900473ffffffffffffffffffffffffffffffffffffffff1681565b600280546113c290612ff3565b80601f01602080910402602001604051908101604052809291908181526020018280546113ee90612ff3565b801561143b5780601f106114105761010080835404028352916020019161143b565b820191906000526020600020905b81548152906001019060200180831161141e57829003601f168201915b505050505081565b3373ffffffffffffffffffffffffffffffffffffffff166007600084815260200190815260200160002060009054906101000a900473ffffffffffffffffffffffffffffffffffffffff1673ffffffffffffffffffffffffffffffffffffffff16146114e4576040517f08c379a00000000000000000000000000000000000000000000000000000000081526004016114db90613856565b60405180910390fd5b60006008600084815260200190815260200160002060006101000a81548173ffffffffffffffffffffffffffffffffffffffff021916908373ffffffffffffffffffffffffffffffffffffffff1602179055508073ffffffffffffffffffffffffffffffffffffffff16827f1fd2449bc9116b95ab065b7a530a4b1be6143a6d052b56ced3a914bbaa053b2860405160405180910390a35050565b60056020528060005260406000206000915090505481565b6000600560003373ffffffffffffffffffffffffffffffffffffffff1673ffffffffffffffffffffffffffffffffffffffff1681526020019081526020016000205414611619576040517f08c379a000000000000000000000000000000000000000000000000000000000815260040161161090613194565b60405180910390fd5b80600460008473ffffffffffffffffffffffffffffffffffffffff1673ffffffffffffffffffffffffffffffffffffffff16815260200190815260200160002054101561169b576040517f08c379a0000000000000000000000000000000000000000000000000000000008152600401611692906138c2565b60405180910390fd5b806000808282546116ac9190613911565b9250508190555080600460008473ffffffffffffffffffffffffffffffffffffffff1673ffffffffffffffffffffffffffffffffffffffff16815260200190815260200160002060008282546117029190613911565b92505081905550600073ffffffffffffffffffffffffffffffffffffffff168273ffffffffffffffffffffffffffffffffffffffff167f9c8515990fd8c61431c4ac8db9b81475f90c292a1dda77731e56c22e64fc7643836040516117679190612984565b60405180910390a35050565b6000600560003373ffffffffffffffffffffffffffffffffffffffff1673ffffffffffffffffffffffffffffffffffffffff16815260200190815260200160002054146117f5576040517f08c379a00000000000000000000000000000000000000000000000000000000081526004016117ec90613194565b60405180910390fd5b806000808282546118069190613945565b9250508190555080600460003373ffffffffffffffffffffffffffffffffffffffff1673ffffffffffffffffffffffffffffffffffffffff168152602001908152602001600020600082825461185c9190613945565b925050819055503373ffffffffffffffffffffffffffffffffffffffff16600073ffffffffffffffffffffffffffffffffffffffff167f9c8515990fd8c61431c4ac8db9b81475f90c292a1dda77731e56c22e64fc7643836040516118c19190612984565b60405180910390a350565b80600460003373ffffffffffffffffffffffffffffffffffffffff1673ffffffffffffffffffffffffffffffffffffffff16815260200190815260200160002054101561194e576040517f08c379a0000000000000000000000000000000000000000000000000000000008152600401611945906139c5565b60405180910390fd5b80600460003373ffffffffffffffffffffffffffffffffffffffff1673ffffffffffffffffffffffffffffffffffffffff168152602001908152602001600020600082825461199d9190613911565b9250508190555080600460008473ffffffffffffffffffffffffffffffffffffffff1673ffffffffffffffffffffffffffffffffffffffff16815260200190815260200160002060008282546119f39190613945565b925050819055508173ffffffffffffffffffffffffffffffffffffffff163373ffffffffffffffffffffffffffffffffffffffff167f9c8515990fd8c61431c4ac8db9b81475f90c292a1dda77731e56c22e64fc764383604051611a579190612984565b60405180910390a35050565b6001600560003373ffffffffffffffffffffffffffffffffffffffff1673ffffffffffffffffffffffffffffffffffffffff168152602001908152602001600020541480611af057506002600560003373ffffffffffffffffffffffffffffffffffffffff1673ffffffffffffffffffffffffffffffffffffffff16815260200190815260200160002054145b611b2f576040517f08c379a0000000000000000000000000000000000000000000000000000000008152600401611b2690613a57565b60405180910390fd5b60006006600084815260200190815260200160002054905060008183611b559190613a77565b905080600080828254611b689190613945565b9250508190555080600460006007600088815260200190815260200160002060009054906101000a900473ffffffffffffffffffffffffffffffffffffffff1673ffffffffffffffffffffffffffffffffffffffff1673ffffffffffffffffffffffffffffffffffffffff1681526020019081526020016000206000828254611bf19190613945565b925050819055506007600085815260200190815260200160002060009054906101000a900473ffffffffffffffffffffffffffffffffffffffff1673ffffffffffffffffffffffffffffffffffffffff163373ffffffffffffffffffffffffffffffffffffffff167f9c8515990fd8c61431c4ac8db9b81475f90c292a1dda77731e56c22e64fc764383604051611c889190612984565b60405180910390a350505050565b600a6020528060005260406000206000915054906101000a900460ff1681565b6003600560003373ffffffffffffffffffffffffffffffffffffffff1673ffffffffffffffffffffffffffffffffffffffff1681526020019081526020016000205414611d38576040517f08c379a0000000000000000000000000000000000000000000000000000000008152600401611d2f906137c4565b60405180910390fd5b6000600560008373ffffffffffffffffffffffffffffffffffffffff1673ffffffffffffffffffffffffffffffffffffffff1681526020019081526020016000205403611dba576040517f08c379a0000000000000000000000000000000000000000000000000000000008152600401611db190613b2b565b60405180910390fd5b6001600560008373ffffffffffffffffffffffffffffffffffffffff1673ffffffffffffffffffffffffffffffffffffffff1681526020019081526020016000205403611e3c576040517f08c379a0000000000000000000000000000000000000000000000000000000008152600401611e3390613b97565b60405180910390fd5b6002600560008373ffffffffffffffffffffffffffffffffffffffff1673ffffffffffffffffffffffffffffffffffffffff1681526020019081526020016000205403611ebe576040517f08c379a0000000000000000000000000000000000000000000000000000000008152600401611eb590613c03565b60405180910390fd5b6004600560008373ffffffffffffffffffffffffffffffffffffffff1673ffffffffffffffffffffffffffffffffffffffff168152602001908152602001600020819055508073ffffffffffffffffffffffffffffffffffffffff163373ffffffffffffffffffffffffffffffffffffffff167f16fb4635d0d4597c58a9b621d29f645114119e9e7364a0fd486ab3d747d91e3860405160405180910390a350565b60006001600560003373ffffffffffffffffffffffffffffffffffffffff1673ffffffffffffffffffffffffffffffffffffffff168152602001908152602001600020541480611fef57506003600560003373ffffffffffffffffffffffffffffffffffffffff1673ffffffffffffffffffffffffffffffffffffffff16815260200190815260200160002054145b61202e576040517f08c379a0000000000000000000000000000000000000000000000000000000008152600401612025906136a0565b60405180910390fd5b6007600083815260200190815260200160002060009054906101000a900473ffffffffffffffffffffffffffffffffffffffff169050919050565b6000600560003373ffffffffffffffffffffffffffffffffffffffff1673ffffffffffffffffffffffffffffffffffffffff16815260200190815260200160002054146120eb576040517f08c379a00000000000000000000000000000000000000000000000000000000081526004016120e290613194565b60405180910390fd5b6000600560008373ffffffffffffffffffffffffffffffffffffffff1673ffffffffffffffffffffffffffffffffffffffff16815260200190815260200160002054905060058060008473ffffffffffffffffffffffffffffffffffffffff1673ffffffffffffffffffffffffffffffffffffffff168152602001908152602001600020819055508173ffffffffffffffffffffffffffffffffffffffff163373ffffffffffffffffffffffffffffffffffffffff167f4f91def577908b239d8a5279a990b53c56a028b00c6fcfd2d46d031d95787faf836040516121d09190612984565b60405180910390a35050565b60006001600560003373ffffffffffffffffffffffffffffffffffffffff1673ffffffffffffffffffffffffffffffffffffffff16815260200190815260200160002054148061226b57506002600560003373ffffffffffffffffffffffffffffffffffffffff1673ffffffffffffffffffffffffffffffffffffffff16815260200190815260200160002054145b6122aa576040517f08c379a00000000000000000000000000000000000000000000000000000000081526004016122a190613a57565b60405180910390fd5b60066000838152602001908152602001600020549050919050565b6003600560003373ffffffffffffffffffffffffffffffffffffffff1673ffffffffffffffffffffffffffffffffffffffff1681526020019081526020016000205414612347576040517f08c379a000000000000000000000000000000000000000000000000000000000815260040161233e906137c4565b60405180910390fd5b600c600085815260200190815260200160002060030160009054906101000a900460ff16156123ab576040517f08c379a00000000000000000000000000000000000000000000000000000000081526004016123a290613c6f565b60405180910390fd5b336007600086815260200190815260200160002060006101000a81548173ffffffffffffffffffffffffffffffffffffffff021916908373ffffffffffffffffffffffffffffffffffffffff16021790555060006009600086815260200190815260200160002060006101000a81548160ff02191690831515021790555060016006600086815260200190815260200160002081905550604051806080016040528084815260200183815260200182815260200160011515815250600c6000868152602001908152602001600020600082015181600001908161248e919061345e565b506020820151816001015560408201518160020190816124ae919061345e565b5060608201518160030160006101000a81548160ff021916908315150217905550905050833373ffffffffffffffffffffffffffffffffffffffff167fddf5e3e69a97f234a15454d5271a1581d2a6273b21fafbd41705937f0f88dffe60405160405180910390a350505050565b6002600560003373ffffffffffffffffffffffffffffffffffffffff1673ffffffffffffffffffffffffffffffffffffffff168152602001908152602001600020541461259e576040517f08c379a000000000000000000000000000000000000000000000000000000000815260040161259590613d01565b60405180910390fd5b80600460008473ffffffffffffffffffffffffffffffffffffffff1673ffffffffffffffffffffffffffffffffffffffff168152602001908152602001600020541015612620576040517f08c379a0000000000000000000000000000000000000000000000000000000008152600401612617906139c5565b60405180910390fd5b806000808282546126319190613911565b9250508190555080600460008473ffffffffffffffffffffffffffffffffffffffff1673ffffffffffffffffffffffffffffffffffffffff16815260200190815260200160002060008282546126879190613911565b92505081905550600073ffffffffffffffffffffffffffffffffffffffff168273ffffffffffffffffffffffffffffffffffffffff167f9c8515990fd8c61431c4ac8db9b81475f90c292a1dda77731e56c22e64fc7643836040516126ec9190612984565b60405180910390a35050565b6003600560003373ffffffffffffffffffffffffffffffffffffffff1673ffffffffffffffffffffffffffffffffffffffff168152602001908152602001600020541461277a576040517f08c379a0000000000000000000000000000000000000000000000000000000008152600401612771906137c4565b60405180910390fd5b3373ffffffffffffffffffffffffffffffffffffffff166007600084815260200190815260200160002060009054906101000a900473ffffffffffffffffffffffffffffffffffffffff1673ffffffffffffffffffffffffffffffffffffffff161461281b576040517f08c379a000000000000000000000000000000000000000000000000000000000815260040161281290613d93565b60405180910390fd5b806007600084815260200190815260200160002060006101000a81548173ffffffffffffffffffffffffffffffffffffffff021916908373ffffffffffffffffffffffffffffffffffffffff16021790555060016009600084815260200190815260200160002060006101000a81548160ff021916908315150217905550818173ffffffffffffffffffffffffffffffffffffffff163373ffffffffffffffffffffffffffffffffffffffff167f287aff02aedc4292951655912628c5f223b7f90e9258dd17d4064e080095457960405160405180910390a45050565b6000600460008373ffffffffffffffffffffffffffffffffffffffff1673ffffffffffffffffffffffffffffffffffffffff168152602001908152602001600020549050919050565b60405180608001604052806060815260200160008152602001606081526020016000151581525090565b6000819050919050565b61297e8161296b565b82525050565b60006020820190506129996000830184612975565b92915050565b600081519050919050565b600082825260208201905092915050565b60005b838110156129d95780820151818401526020810190506129be565b60008484015250505050565b6000601f19601f8301169050919050565b6000612a018261299f565b612a0b81856129aa565b9350612a1b8185602086016129bb565b612a24816129e5565b840191505092915050565b60006020820190508181036000830152612a4981846129f6565b905092915050565b6000604051905090565b600080fd5b600080fd5b612a6e8161296b565b8114612a7957600080fd5b50565b600081359050612a8b81612a65565b92915050565b600060208284031215612aa757612aa6612a5b565b5b6000612ab584828501612a7c565b91505092915050565b60008115159050919050565b612ad381612abe565b82525050565b6000602082019050612aee6000830184612aca565b92915050565b600082825260208201905092915050565b6000612b108261299f565b612b1a8185612af4565b9350612b2a8185602086016129bb565b612b33816129e5565b840191505092915050565b612b478161296b565b82525050565b612b5681612abe565b82525050565b60006080830160008301518482036000860152612b798282612b05565b9150506020830151612b8e6020860182612b3e565b5060408301518482036040860152612ba68282612b05565b9150506060830151612bbb6060860182612b4d565b508091505092915050565b60006020820190508181036000830152612be08184612b5c565b905092915050565b600073ffffffffffffffffffffffffffffffffffffffff82169050919050565b6000612c1382612be8565b9050919050565b612c2381612c08565b82525050565b6000602082019050612c3e6000830184612c1a565b92915050565b612c4d81612c08565b8114612c5857600080fd5b50565b600081359050612c6a81612c44565b92915050565b600060208284031215612c8657612c85612a5b565b5b6000612c9484828501612c5b565b91505092915050565b600060ff82169050919050565b612cb381612c9d565b82525050565b6000602082019050612cce6000830184612caa565b92915050565b60008060408385031215612ceb57612cea612a5b565b5b6000612cf985828601612c5b565b9250506020612d0a85828601612a7c565b9150509250929050565b600080fd5b600080fd5b7f4e487b7100000000000000000000000000000000000000000000000000000000600052604160045260246000fd5b612d56826129e5565b810181811067ffffffffffffffff82111715612d7557612d74612d1e565b5b80604052505050565b6000612d88612a51565b9050612d948282612d4d565b919050565b600067ffffffffffffffff821115612db457612db3612d1e565b5b612dbd826129e5565b9050602081019050919050565b82818337600083830152505050565b6000612dec612de784612d99565b612d7e565b905082815260208101848484011115612e0857612e07612d19565b5b612e13848285612dca565b509392505050565b600082601f830112612e3057612e2f612d14565b5b8135612e40848260208601612dd9565b91505092915050565b60008060408385031215612e6057612e5f612a5b565b5b6000612e6e85828601612a7c565b925050602083013567ffffffffffffffff811115612e8f57612e8e612a60565b5b612e9b85828601612e1b565b9150509250929050565b60008060008060808587031215612ebf57612ebe612a5b565b5b6000612ecd87828801612a7c565b945050602085013567ffffffffffffffff811115612eee57612eed612a60565b5b612efa87828801612e1b565b9350506040612f0b87828801612a7c565b925050606085013567ffffffffffffffff811115612f2c57612f2b612a60565b5b612f3887828801612e1b565b91505092959194509250565b60008060408385031215612f5b57612f5a612a5b565b5b6000612f6985828601612a7c565b9250506020612f7a85828601612c5b565b9150509250929050565b60008060408385031215612f9b57612f9a612a5b565b5b6000612fa985828601612a7c565b9250506020612fba85828601612a7c565b9150509250929050565b7f4e487b7100000000000000000000000000000000000000000000000000000000600052602260045260246000fd5b6000600282049050600182168061300b57607f821691505b60208210810361301e5761301d612fc4565b5b50919050565b7f416363657373207265737472696374656420746f204f776e65722c204361726560008201527f722c206f72205368656c74657200000000000000000000000000000000000000602082015250565b6000613080602d836129aa565b915061308b82613024565b604082019050919050565b600060208201905081810360008301526130af81613073565b9050919050565b7f506574207265636f726420646f6573206e6f7420657869737400000000000000600082015250565b60006130ec6019836129aa565b91506130f7826130b6565b602082019050919050565b6000602082019050818103600083015261311b816130df565b9050919050565b7f4f6e6c792063726561746f722063616e2075736520746869732066756e63746960008201527f6f6e000000000000000000000000000000000000000000000000000000000000602082015250565b600061317e6022836129aa565b915061318982613122565b604082019050919050565b600060208201905081810360008301526131ad81613171565b9050919050565b7f496e76616c696420726f6c650000000000000000000000000000000000000000600082015250565b60006131ea600c836129aa565b91506131f5826131b4565b602082019050919050565b60006020820190508181036000830152613219816131dd565b9050919050565b7f4f6e6c7920746865206f776e65722063616e206d61726b20612070657420617360008201527f20666f756e640000000000000000000000000000000000000000000000000000602082015250565b600061327c6026836129aa565b915061328782613220565b604082019050919050565b600060208201905081810360008301526132ab8161326f565b9050919050565b60008190508160005260206000209050919050565b60006020601f8301049050919050565b600082821b905092915050565b6000600883026133147fffffffffffffffffffffffffffffffffffffffffffffffffffffffffffffffff826132d7565b61331e86836132d7565b95508019841693508086168417925050509392505050565b6000819050919050565b600061335b6133566133518461296b565b613336565b61296b565b9050919050565b6000819050919050565b61337583613340565b61338961338182613362565b8484546132e4565b825550505050565b600090565b61339e613391565b6133a981848461336c565b505050565b5b818110156133cd576133c2600082613396565b6001810190506133af565b5050565b601f821115613412576133e3816132b2565b6133ec846132c7565b810160208510156133fb578190505b61340f613407856132c7565b8301826133ae565b50505b505050565b600082821c905092915050565b600061343560001984600802613417565b1980831691505092915050565b600061344e8383613424565b9150826002028217905092915050565b6134678261299f565b67ffffffffffffffff8111156134805761347f612d1e565b5b61348a8254612ff3565b6134958282856133d1565b600060209050601f8311600181146134c857600084156134b6578287015190505b6134c08582613442565b865550613528565b601f1984166134d6866132b2565b60005b828110156134fe578489015182556001820191506020850194506020810190506134d9565b8683101561351b5784890151613517601f891682613424565b8355505b6001600288020188555050505b505050505050565b7f4f6e6c7920746865206f776e65722063616e206d61726b20612070657420617360008201527f206c6f7374000000000000000000000000000000000000000000000000000000602082015250565b600061358c6025836129aa565b915061359782613530565b604082019050919050565b600060208201905081810360008301526135bb8161357f565b9050919050565b7f506574206973206e6f74206c6f73740000000000000000000000000000000000600082015250565b60006135f8600f836129aa565b9150613603826135c2565b602082019050919050565b60006020820190508181036000830152613627816135eb565b9050919050565b7f4f6e6c7920566574206f72205368656c7465722063616e20757365207468697360008201527f2066756e6374696f6e0000000000000000000000000000000000000000000000602082015250565b600061368a6029836129aa565b91506136958261362e565b604082019050919050565b600060208201905081810360008301526136b98161367d565b9050919050565b7f4f6e6c7920746865206f776e65722063616e207265676973746572206120636160008201527f7265720000000000000000000000000000000000000000000000000000000000602082015250565b600061371c6023836129aa565b9150613727826136c0565b604082019050919050565b6000602082019050818103600083015261374b8161370f565b9050919050565b7f4f6e6c79205368656c7465722063616e2075736520746869732066756e63746960008201527f6f6e000000000000000000000000000000000000000000000000000000000000602082015250565b60006137ae6022836129aa565b91506137b982613752565b604082019050919050565b600060208201905081810360008301526137dd816137a1565b9050919050565b7f4f6e6c7920746865206f776e65722063616e206465726567697374657220612060008201527f6361726572000000000000000000000000000000000000000000000000000000602082015250565b60006138406025836129aa565b915061384b826137e4565b604082019050919050565b6000602082019050818103600083015261386f81613833565b9050919050565b7f496e73756666696369656e742062616c616e636520746f206275726e00000000600082015250565b60006138ac601c836129aa565b91506138b782613876565b602082019050919050565b600060208201905081810360008301526138db8161389f565b9050919050565b7f4e487b7100000000000000000000000000000000000000000000000000000000600052601160045260246000fd5b600061391c8261296b565b91506139278361296b565b925082820390508181111561393f5761393e6138e2565b5b92915050565b60006139508261296b565b915061395b8361296b565b9250828201905080821115613973576139726138e2565b5b92915050565b7f496e73756666696369656e742062616c616e6365000000000000000000000000600082015250565b60006139af6014836129aa565b91506139ba82613979565b602082019050919050565b600060208201905081810360008301526139de816139a2565b9050919050565b7f4f6e6c7920566574206f722053706f6e736f722063616e20757365207468697360008201527f2066756e6374696f6e0000000000000000000000000000000000000000000000602082015250565b6000613a416029836129aa565b9150613a4c826139e5565b604082019050919050565b60006020820190508181036000830152613a7081613a34565b9050919050565b6000613a828261296b565b9150613a8d8361296b565b9250828202613a9b8161296b565b91508282048414831517613ab257613ab16138e2565b5b5092915050565b7f43616e6e6f74206368616e67652073797374656d206d616e616765722773207260008201527f6f6c650000000000000000000000000000000000000000000000000000000000602082015250565b6000613b156023836129aa565b9150613b2082613ab9565b604082019050919050565b60006020820190508181036000830152613b4481613b08565b9050919050565b7f43616e6e6f74206368616e676520566574277320726f6c650000000000000000600082015250565b6000613b816018836129aa565b9150613b8c82613b4b565b602082019050919050565b60006020820190508181036000830152613bb081613b74565b9050919050565b7f43616e6e6f74206368616e67652053706f6e736f72277320726f6c6500000000600082015250565b6000613bed601c836129aa565b9150613bf882613bb7565b602082019050919050565b60006020820190508181036000830152613c1c81613be0565b9050919050565b7f50657420697320616c7265616479207265676973746572656400000000000000600082015250565b6000613c596019836129aa565b9150613c6482613c23565b602082019050919050565b60006020820190508181036000830152613c8881613c4c565b9050919050565b7f4f6e6c792053706f6e736f722053746f7265732063616e20757365207468697360008201527f2066756e6374696f6e0000000000000000000000000000000000000000000000602082015250565b6000613ceb6029836129aa565b9150613cf682613c8f565b604082019050919050565b60006020820190508181036000830152613d1a81613cde565b9050919050565b7f4f6e6c7920746865206f776e65722063616e207472616e73666572207468652060008201527f7065740000000000000000000000000000000000000000000000000000000000602082015250565b6000613d7d6023836129aa565b9150613d8882613d21565b604082019050919050565b60006020820190508181036000830152613dac81613d70565b905091905056fea2646970667358221220cddbe6ff1b0fca25607c6a2cba7f6b994d0d840f03338684e59f447c0ef6151864736f6c634300081c0033","opcodes":"PUSH1 0x80 PUSH1 0x40 MSTORE PUSH3 0xF4240 PUSH1 0x0 SSTORE PUSH1 0x40 MLOAD DUP1 PUSH1 0x40 ADD PUSH1 0x40 MSTORE DUP1 PUSH1 0x7 DUP2 MSTORE PUSH1 0x20 ADD PUSH32 0x467572436F696E00000000000000000000000000000000000000000000000000 DUP2 MSTORE POP PUSH1 0x1 SWAP1 DUP2 PUSH2 0x4F SWAP2 SWAP1 PUSH2 0x39E JUMP JUMPDEST POP PUSH1 0x40 MLOAD DUP1 PUSH1 0x40 ADD PUSH1 0x40 MSTORE DUP1 PUSH1 0x3 DUP2 MSTORE PUSH1 0x20 ADD PUSH32 0x4655520000000000000000000000000000000000000000000000000000000000 DUP2 MSTORE POP PUSH1 0x2 SWAP1 DUP2 PUSH2 0x94 SWAP2 SWAP1 PUSH2 0x39E JUMP JUMPDEST POP PUSH1 0x1 PUSH1 0x3 PUSH1 0x0 PUSH2 0x100 EXP DUP2 SLOAD DUP2 PUSH1 0xFF MUL NOT AND SWAP1 DUP4 PUSH1 0xFF AND MUL OR SWAP1 SSTORE POP CALLVALUE DUP1 ISZERO PUSH2 0xBD JUMPI PUSH1 0x0 DUP1 REVERT JUMPDEST POP PUSH1 0x0 SLOAD PUSH1 0x4 PUSH1 0x0 CALLER PUSH20 0xFFFFFFFFFFFFFFFFFFFFFFFFFFFFFFFFFFFFFFFF AND PUSH20 0xFFFFFFFFFFFFFFFFFFFFFFFFFFFFFFFFFFFFFFFF AND DUP2 MSTORE PUSH1 0x20 ADD SWAP1 DUP2 MSTORE PUSH1 0x20 ADD PUSH1 0x0 KECCAK256 DUP2 SWAP1 SSTORE POP PUSH1 0x0 PUSH1 0x5 PUSH1 0x0 CALLER PUSH20 0xFFFFFFFFFFFFFFFFFFFFFFFFFFFFFFFFFFFFFFFF AND PUSH20 0xFFFFFFFFFFFFFFFFFFFFFFFFFFFFFFFFFFFFFFFF AND DUP2 MSTORE PUSH1 0x20 ADD SWAP1 DUP2 MSTORE PUSH1 0x20 ADD PUSH1 0x0 KECCAK256 DUP2 SWAP1 SSTORE POP PUSH2 0x470 JUMP JUMPDEST PUSH1 0x0 DUP2 MLOAD SWAP1 POP SWAP2 SWAP1 POP JUMP JUMPDEST PUSH32 0x4E487B7100000000000000000000000000000000000000000000000000000000 PUSH1 0x0 MSTORE PUSH1 0x41 PUSH1 0x4 MSTORE PUSH1 0x24 PUSH1 0x0 REVERT JUMPDEST PUSH32 0x4E487B7100000000000000000000000000000000000000000000000000000000 PUSH1 0x0 MSTORE PUSH1 0x22 PUSH1 0x4 MSTORE PUSH1 0x24 PUSH1 0x0 REVERT JUMPDEST PUSH1 0x0 PUSH1 0x2 DUP3 DIV SWAP1 POP PUSH1 0x1 DUP3 AND DUP1 PUSH2 0x1CF JUMPI PUSH1 0x7F DUP3 AND SWAP2 POP JUMPDEST PUSH1 0x20 DUP3 LT DUP2 SUB PUSH2 0x1E2 JUMPI PUSH2 0x1E1 PUSH2 0x188 JUMP JUMPDEST JUMPDEST POP SWAP2 SWAP1 POP JUMP JUMPDEST PUSH1 0x0 DUP2 SWAP1 POP DUP2 PUSH1 0x0 MSTORE PUSH1 0x20 PUSH1 0x0 KECCAK256 SWAP1 POP SWAP2 SWAP1 POP JUMP JUMPDEST PUSH1 0x0 PUSH1 0x20 PUSH1 0x1F DUP4 ADD DIV SWAP1 POP SWAP2 SWAP1 POP JUMP JUMPDEST PUSH1 0x0 DUP3 DUP3 SHL SWAP1 POP SWAP3 SWAP2 POP POP JUMP JUMPDEST PUSH1 0x0 PUSH1 0x8 DUP4 MUL PUSH2 0x24A PUSH32 0xFFFFFFFFFFFFFFFFFFFFFFFFFFFFFFFFFFFFFFFFFFFFFFFFFFFFFFFFFFFFFFFF DUP3 PUSH2 0x20D JUMP JUMPDEST PUSH2 0x254 DUP7 DUP4 PUSH2 0x20D JUMP JUMPDEST SWAP6 POP DUP1 NOT DUP5 AND SWAP4 POP DUP1 DUP7 AND DUP5 OR SWAP3 POP POP POP SWAP4 SWAP3 POP POP POP JUMP JUMPDEST PUSH1 0x0 DUP2 SWAP1 POP SWAP2 SWAP1 POP JUMP JUMPDEST PUSH1 0x0 DUP2 SWAP1 POP SWAP2 SWAP1 POP JUMP JUMPDEST PUSH1 0x0 PUSH2 0x29B PUSH2 0x296 PUSH2 0x291 DUP5 PUSH2 0x26C JUMP JUMPDEST PUSH2 0x276 JUMP JUMPDEST PUSH2 0x26C JUMP JUMPDEST SWAP1 POP SWAP2 SWAP1 POP JUMP JUMPDEST PUSH1 0x0 DUP2 SWAP1 POP SWAP2 SWAP1 POP JUMP JUMPDEST PUSH2 0x2B5 DUP4 PUSH2 0x280 JUMP JUMPDEST PUSH2 0x2C9 PUSH2 0x2C1 DUP3 PUSH2 0x2A2 JUMP JUMPDEST DUP5 DUP5 SLOAD PUSH2 0x21A JUMP JUMPDEST DUP3 SSTORE POP POP POP POP JUMP JUMPDEST PUSH1 0x0 SWAP1 JUMP JUMPDEST PUSH2 0x2DE PUSH2 0x2D1 JUMP JUMPDEST PUSH2 0x2E9 DUP2 DUP5 DUP5 PUSH2 0x2AC JUMP JUMPDEST POP POP POP JUMP JUMPDEST JUMPDEST DUP2 DUP2 LT ISZERO PUSH2 0x30D JUMPI PUSH2 0x302 PUSH1 0x0 DUP3 PUSH2 0x2D6 JUMP JUMPDEST PUSH1 0x1 DUP2 ADD SWAP1 POP PUSH2 0x2EF JUMP JUMPDEST POP POP JUMP JUMPDEST PUSH1 0x1F DUP3 GT ISZERO PUSH2 0x352 JUMPI PUSH2 0x323 DUP2 PUSH2 0x1E8 JUMP JUMPDEST PUSH2 0x32C DUP5 PUSH2 0x1FD JUMP JUMPDEST DUP2 ADD PUSH1 0x20 DUP6 LT ISZERO PUSH2 0x33B JUMPI DUP2 SWAP1 POP JUMPDEST PUSH2 0x34F PUSH2 0x347 DUP6 PUSH2 0x1FD JUMP JUMPDEST DUP4 ADD DUP3 PUSH2 0x2EE JUMP JUMPDEST POP POP JUMPDEST POP POP POP JUMP JUMPDEST PUSH1 0x0 DUP3 DUP3 SHR SWAP1 POP SWAP3 SWAP2 POP POP JUMP JUMPDEST PUSH1 0x0 PUSH2 0x375 PUSH1 0x0 NOT DUP5 PUSH1 0x8 MUL PUSH2 0x357 JUMP JUMPDEST NOT DUP1 DUP4 AND SWAP2 POP POP SWAP3 SWAP2 POP POP JUMP JUMPDEST PUSH1 0x0 PUSH2 0x38E DUP4 DUP4 PUSH2 0x364 JUMP JUMPDEST SWAP2 POP DUP3 PUSH1 0x2 MUL DUP3 OR SWAP1 POP SWAP3 SWAP2 POP POP JUMP JUMPDEST PUSH2 0x3A7 DUP3 PUSH2 0x14E JUMP JUMPDEST PUSH8 0xFFFFFFFFFFFFFFFF DUP2 GT ISZERO PUSH2 0x3C0 JUMPI PUSH2 0x3BF PUSH2 0x159 JUMP JUMPDEST JUMPDEST PUSH2 0x3CA DUP3 SLOAD PUSH2 0x1B7 JUMP JUMPDEST PUSH2 0x3D5 DUP3 DUP3 DUP6 PUSH2 0x311 JUMP JUMPDEST PUSH1 0x0 PUSH1 0x20 SWAP1 POP PUSH1 0x1F DUP4 GT PUSH1 0x1 DUP2 EQ PUSH2 0x408 JUMPI PUSH1 0x0 DUP5 ISZERO PUSH2 0x3F6 JUMPI DUP3 DUP8 ADD MLOAD SWAP1 POP JUMPDEST PUSH2 0x400 DUP6 DUP3 PUSH2 0x382 JUMP JUMPDEST DUP7 SSTORE POP PUSH2 0x468 JUMP JUMPDEST PUSH1 0x1F NOT DUP5 AND PUSH2 0x416 DUP7 PUSH2 0x1E8 JUMP JUMPDEST PUSH1 0x0 JUMPDEST DUP3 DUP2 LT ISZERO PUSH2 0x43E JUMPI DUP5 DUP10 ADD MLOAD DUP3 SSTORE PUSH1 0x1 DUP3 ADD SWAP2 POP PUSH1 0x20 DUP6 ADD SWAP5 POP PUSH1 0x20 DUP2 ADD SWAP1 POP PUSH2 0x419 JUMP JUMPDEST DUP7 DUP4 LT ISZERO PUSH2 0x45B JUMPI DUP5 DUP10 ADD MLOAD PUSH2 0x457 PUSH1 0x1F DUP10 AND DUP3 PUSH2 0x364 JUMP JUMPDEST DUP4 SSTORE POP JUMPDEST PUSH1 0x1 PUSH1 0x2 DUP9 MUL ADD DUP9 SSTORE POP POP POP JUMPDEST POP POP POP POP POP POP JUMP JUMPDEST PUSH2 0x3DE9 DUP1 PUSH2 0x47F PUSH1 0x0 CODECOPY PUSH1 0x0 RETURN INVALID PUSH1 0x80 PUSH1 0x40 MSTORE CALLVALUE DUP1 ISZERO PUSH2 0x10 JUMPI PUSH1 0x0 DUP1 REVERT JUMPDEST POP PUSH1 0x4 CALLDATASIZE LT PUSH2 0x1FB JUMPI PUSH1 0x0 CALLDATALOAD PUSH1 0xE0 SHR DUP1 PUSH4 0x89C020A3 GT PUSH2 0x11A JUMPI DUP1 PUSH4 0xB83E433F GT PUSH2 0xAD JUMPI DUP1 PUSH4 0xD1F03514 GT PUSH2 0x7C JUMPI DUP1 PUSH4 0xD1F03514 EQ PUSH2 0x5F4 JUMPI DUP1 PUSH4 0xD7ED8C65 EQ PUSH2 0x624 JUMPI DUP1 PUSH4 0xEF1AE1A0 EQ PUSH2 0x640 JUMPI DUP1 PUSH4 0xF4C7D765 EQ PUSH2 0x65C JUMPI DUP1 PUSH4 0xF8B2CB4F EQ PUSH2 0x678 JUMPI PUSH2 0x1FB JUMP JUMPDEST DUP1 PUSH4 0xB83E433F EQ PUSH2 0x55C JUMPI DUP1 PUSH4 0xC1551CD5 EQ PUSH2 0x58C JUMPI DUP1 PUSH4 0xC41A360A EQ PUSH2 0x5A8 JUMPI DUP1 PUSH4 0xCDF47EEC EQ PUSH2 0x5D8 JUMPI PUSH2 0x1FB JUMP JUMPDEST DUP1 PUSH4 0x9DC29FAC GT PUSH2 0xE9 JUMPI DUP1 PUSH4 0x9DC29FAC EQ PUSH2 0x4EC JUMPI DUP1 PUSH4 0xA0712D68 EQ PUSH2 0x508 JUMPI DUP1 PUSH4 0xA9059CBB EQ PUSH2 0x524 JUMPI DUP1 PUSH4 0xA95FF429 EQ PUSH2 0x540 JUMPI PUSH2 0x1FB JUMP JUMPDEST DUP1 PUSH4 0x89C020A3 EQ PUSH2 0x452 JUMPI DUP1 PUSH4 0x95D89B41 EQ PUSH2 0x482 JUMPI DUP1 PUSH4 0x971629C1 EQ PUSH2 0x4A0 JUMPI DUP1 PUSH4 0x99374642 EQ PUSH2 0x4BC JUMPI PUSH2 0x1FB JUMP JUMPDEST DUP1 PUSH4 0x42E88C2E GT PUSH2 0x192 JUMPI DUP1 PUSH4 0x55F4B74D GT PUSH2 0x161 JUMPI DUP1 PUSH4 0x55F4B74D EQ PUSH2 0x3CE JUMPI DUP1 PUSH4 0x6074915D EQ PUSH2 0x3FE JUMPI DUP1 PUSH4 0x60FD7EE6 EQ PUSH2 0x41A JUMPI DUP1 PUSH4 0x7BE6D0F6 EQ PUSH2 0x436 JUMPI PUSH2 0x1FB JUMP JUMPDEST DUP1 PUSH4 0x42E88C2E EQ PUSH2 0x34A JUMPI DUP1 PUSH4 0x4B9E2787 EQ PUSH2 0x37A JUMPI DUP1 PUSH4 0x4C0EDBBF EQ PUSH2 0x396 JUMPI DUP1 PUSH4 0x559F7DC6 EQ PUSH2 0x3B2 JUMPI PUSH2 0x1FB JUMP JUMPDEST DUP1 PUSH4 0x2433FEE1 GT PUSH2 0x1CE JUMPI DUP1 PUSH4 0x2433FEE1 EQ PUSH2 0x29C JUMPI DUP1 PUSH4 0x26225ABF EQ PUSH2 0x2CC JUMPI DUP1 PUSH4 0x27E235E3 EQ PUSH2 0x2FC JUMPI DUP1 PUSH4 0x313CE567 EQ PUSH2 0x32C JUMPI PUSH2 0x1FB JUMP JUMPDEST DUP1 PUSH4 0x47FC9AA EQ PUSH2 0x200 JUMPI DUP1 PUSH4 0x6FDDE03 EQ PUSH2 0x21E JUMPI DUP1 PUSH4 0x178F474F EQ PUSH2 0x23C JUMPI DUP1 PUSH4 0x1E41E568 EQ PUSH2 0x26C JUMPI JUMPDEST PUSH1 0x0 DUP1 REVERT JUMPDEST PUSH2 0x208 PUSH2 0x6A8 JUMP JUMPDEST PUSH1 0x40 MLOAD PUSH2 0x215 SWAP2 SWAP1 PUSH2 0x2984 JUMP JUMPDEST PUSH1 0x40 MLOAD DUP1 SWAP2 SUB SWAP1 RETURN JUMPDEST PUSH2 0x226 PUSH2 0x6AE JUMP JUMPDEST PUSH1 0x40 MLOAD PUSH2 0x233 SWAP2 SWAP1 PUSH2 0x2A2F JUMP JUMPDEST PUSH1 0x40 MLOAD DUP1 SWAP2 SUB SWAP1 RETURN JUMPDEST PUSH2 0x256 PUSH1 0x4 DUP1 CALLDATASIZE SUB DUP2 ADD SWAP1 PUSH2 0x251 SWAP2 SWAP1 PUSH2 0x2A91 JUMP JUMPDEST PUSH2 0x73C JUMP JUMPDEST PUSH1 0x40 MLOAD PUSH2 0x263 SWAP2 SWAP1 PUSH2 0x2A2F JUMP JUMPDEST PUSH1 0x40 MLOAD DUP1 SWAP2 SUB SWAP1 RETURN JUMPDEST PUSH2 0x286 PUSH1 0x4 DUP1 CALLDATASIZE SUB DUP2 ADD SWAP1 PUSH2 0x281 SWAP2 SWAP1 PUSH2 0x2A91 JUMP JUMPDEST PUSH2 0x7DC JUMP JUMPDEST PUSH1 0x40 MLOAD PUSH2 0x293 SWAP2 SWAP1 PUSH2 0x2AD9 JUMP JUMPDEST PUSH1 0x40 MLOAD DUP1 SWAP2 SUB SWAP1 RETURN JUMPDEST PUSH2 0x2B6 PUSH1 0x4 DUP1 CALLDATASIZE SUB DUP2 ADD SWAP1 PUSH2 0x2B1 SWAP2 SWAP1 PUSH2 0x2A91 JUMP JUMPDEST PUSH2 0x7FC JUMP JUMPDEST PUSH1 0x40 MLOAD PUSH2 0x2C3 SWAP2 SWAP1 PUSH2 0x2BC6 JUMP JUMPDEST PUSH1 0x40 MLOAD DUP1 SWAP2 SUB SWAP1 RETURN JUMPDEST PUSH2 0x2E6 PUSH1 0x4 DUP1 CALLDATASIZE SUB DUP2 ADD SWAP1 PUSH2 0x2E1 SWAP2 SWAP1 PUSH2 0x2A91 JUMP JUMPDEST PUSH2 0xB2B JUMP JUMPDEST PUSH1 0x40 MLOAD PUSH2 0x2F3 SWAP2 SWAP1 PUSH2 0x2C29 JUMP JUMPDEST PUSH1 0x40 MLOAD DUP1 SWAP2 SUB SWAP1 RETURN JUMPDEST PUSH2 0x316 PUSH1 0x4 DUP1 CALLDATASIZE SUB DUP2 ADD SWAP1 PUSH2 0x311 SWAP2 SWAP1 PUSH2 0x2C70 JUMP JUMPDEST PUSH2 0xB5E JUMP JUMPDEST PUSH1 0x40 MLOAD PUSH2 0x323 SWAP2 SWAP1 PUSH2 0x2984 JUMP JUMPDEST PUSH1 0x40 MLOAD DUP1 SWAP2 SUB SWAP1 RETURN JUMPDEST PUSH2 0x334 PUSH2 0xB76 JUMP JUMPDEST PUSH1 0x40 MLOAD PUSH2 0x341 SWAP2 SWAP1 PUSH2 0x2CB9 JUMP JUMPDEST PUSH1 0x40 MLOAD DUP1 SWAP2 SUB SWAP1 RETURN JUMPDEST PUSH2 0x364 PUSH1 0x4 DUP1 CALLDATASIZE SUB DUP2 ADD SWAP1 PUSH2 0x35F SWAP2 SWAP1 PUSH2 0x2A91 JUMP JUMPDEST PUSH2 0xB89 JUMP JUMPDEST PUSH1 0x40 MLOAD PUSH2 0x371 SWAP2 SWAP1 PUSH2 0x2984 JUMP JUMPDEST PUSH1 0x40 MLOAD DUP1 SWAP2 SUB SWAP1 RETURN JUMPDEST PUSH2 0x394 PUSH1 0x4 DUP1 CALLDATASIZE SUB DUP2 ADD SWAP1 PUSH2 0x38F SWAP2 SWAP1 PUSH2 0x2CD4 JUMP JUMPDEST PUSH2 0xBA1 JUMP JUMPDEST STOP JUMPDEST PUSH2 0x3B0 PUSH1 0x4 DUP1 CALLDATASIZE SUB DUP2 ADD SWAP1 PUSH2 0x3AB SWAP2 SWAP1 PUSH2 0x2A91 JUMP JUMPDEST PUSH2 0xD21 JUMP JUMPDEST STOP JUMPDEST PUSH2 0x3CC PUSH1 0x4 DUP1 CALLDATASIZE SUB DUP2 ADD SWAP1 PUSH2 0x3C7 SWAP2 SWAP1 PUSH2 0x2E49 JUMP JUMPDEST PUSH2 0xE4E JUMP JUMPDEST STOP JUMPDEST PUSH2 0x3E8 PUSH1 0x4 DUP1 CALLDATASIZE SUB DUP2 ADD SWAP1 PUSH2 0x3E3 SWAP2 SWAP1 PUSH2 0x2A91 JUMP JUMPDEST PUSH2 0xF6D JUMP JUMPDEST PUSH1 0x40 MLOAD PUSH2 0x3F5 SWAP2 SWAP1 PUSH2 0x2C29 JUMP JUMPDEST PUSH1 0x40 MLOAD DUP1 SWAP2 SUB SWAP1 RETURN JUMPDEST PUSH2 0x418 PUSH1 0x4 DUP1 CALLDATASIZE SUB DUP2 ADD SWAP1 PUSH2 0x413 SWAP2 SWAP1 PUSH2 0x2EA5 JUMP JUMPDEST PUSH2 0x1011 JUMP JUMPDEST STOP JUMPDEST PUSH2 0x434 PUSH1 0x4 DUP1 CALLDATASIZE SUB DUP2 ADD SWAP1 PUSH2 0x42F SWAP2 SWAP1 PUSH2 0x2F44 JUMP JUMPDEST PUSH2 0x11A9 JUMP JUMPDEST STOP JUMPDEST PUSH2 0x450 PUSH1 0x4 DUP1 CALLDATASIZE SUB DUP2 ADD SWAP1 PUSH2 0x44B SWAP2 SWAP1 PUSH2 0x2F84 JUMP JUMPDEST PUSH2 0x12E4 JUMP JUMPDEST STOP JUMPDEST PUSH2 0x46C PUSH1 0x4 DUP1 CALLDATASIZE SUB DUP2 ADD SWAP1 PUSH2 0x467 SWAP2 SWAP1 PUSH2 0x2A91 JUMP JUMPDEST PUSH2 0x1382 JUMP JUMPDEST PUSH1 0x40 MLOAD PUSH2 0x479 SWAP2 SWAP1 PUSH2 0x2C29 JUMP JUMPDEST PUSH1 0x40 MLOAD DUP1 SWAP2 SUB SWAP1 RETURN JUMPDEST PUSH2 0x48A PUSH2 0x13B5 JUMP JUMPDEST PUSH1 0x40 MLOAD PUSH2 0x497 SWAP2 SWAP1 PUSH2 0x2A2F JUMP JUMPDEST PUSH1 0x40 MLOAD DUP1 SWAP2 SUB SWAP1 RETURN JUMPDEST PUSH2 0x4BA PUSH1 0x4 DUP1 CALLDATASIZE SUB DUP2 ADD SWAP1 PUSH2 0x4B5 SWAP2 SWAP1 PUSH2 0x2F44 JUMP JUMPDEST PUSH2 0x1443 JUMP JUMPDEST STOP JUMPDEST PUSH2 0x4D6 PUSH1 0x4 DUP1 CALLDATASIZE SUB DUP2 ADD SWAP1 PUSH2 0x4D1 SWAP2 SWAP1 PUSH2 0x2C70 JUMP JUMPDEST PUSH2 0x157F JUMP JUMPDEST PUSH1 0x40 MLOAD PUSH2 0x4E3 SWAP2 SWAP1 PUSH2 0x2984 JUMP JUMPDEST PUSH1 0x40 MLOAD DUP1 SWAP2 SUB SWAP1 RETURN JUMPDEST PUSH2 0x506 PUSH1 0x4 DUP1 CALLDATASIZE SUB DUP2 ADD SWAP1 PUSH2 0x501 SWAP2 SWAP1 PUSH2 0x2CD4 JUMP JUMPDEST PUSH2 0x1597 JUMP JUMPDEST STOP JUMPDEST PUSH2 0x522 PUSH1 0x4 DUP1 CALLDATASIZE SUB DUP2 ADD SWAP1 PUSH2 0x51D SWAP2 SWAP1 PUSH2 0x2A91 JUMP JUMPDEST PUSH2 0x1773 JUMP JUMPDEST STOP JUMPDEST PUSH2 0x53E PUSH1 0x4 DUP1 CALLDATASIZE SUB DUP2 ADD SWAP1 PUSH2 0x539 SWAP2 SWAP1 PUSH2 0x2CD4 JUMP JUMPDEST PUSH2 0x18CC JUMP JUMPDEST STOP JUMPDEST PUSH2 0x55A PUSH1 0x4 DUP1 CALLDATASIZE SUB DUP2 ADD SWAP1 PUSH2 0x555 SWAP2 SWAP1 PUSH2 0x2F84 JUMP JUMPDEST PUSH2 0x1A63 JUMP JUMPDEST STOP JUMPDEST PUSH2 0x576 PUSH1 0x4 DUP1 CALLDATASIZE SUB DUP2 ADD SWAP1 PUSH2 0x571 SWAP2 SWAP1 PUSH2 0x2A91 JUMP JUMPDEST PUSH2 0x1C96 JUMP JUMPDEST PUSH1 0x40 MLOAD PUSH2 0x583 SWAP2 SWAP1 PUSH2 0x2AD9 JUMP JUMPDEST PUSH1 0x40 MLOAD DUP1 SWAP2 SUB SWAP1 RETURN JUMPDEST PUSH2 0x5A6 PUSH1 0x4 DUP1 CALLDATASIZE SUB DUP2 ADD SWAP1 PUSH2 0x5A1 SWAP2 SWAP1 PUSH2 0x2C70 JUMP JUMPDEST PUSH2 0x1CB6 JUMP JUMPDEST STOP JUMPDEST PUSH2 0x5C2 PUSH1 0x4 DUP1 CALLDATASIZE SUB DUP2 ADD SWAP1 PUSH2 0x5BD SWAP2 SWAP1 PUSH2 0x2A91 JUMP JUMPDEST PUSH2 0x1F60 JUMP JUMPDEST PUSH1 0x40 MLOAD PUSH2 0x5CF SWAP2 SWAP1 PUSH2 0x2C29 JUMP JUMPDEST PUSH1 0x40 MLOAD DUP1 SWAP2 SUB SWAP1 RETURN JUMPDEST PUSH2 0x5F2 PUSH1 0x4 DUP1 CALLDATASIZE SUB DUP2 ADD SWAP1 PUSH2 0x5ED SWAP2 SWAP1 PUSH2 0x2C70 JUMP JUMPDEST PUSH2 0x2069 JUMP JUMPDEST STOP JUMPDEST PUSH2 0x60E PUSH1 0x4 DUP1 CALLDATASIZE SUB DUP2 ADD SWAP1 PUSH2 0x609 SWAP2 SWAP1 PUSH2 0x2A91 JUMP JUMPDEST PUSH2 0x21DC JUMP JUMPDEST PUSH1 0x40 MLOAD PUSH2 0x61B SWAP2 SWAP1 PUSH2 0x2984 JUMP JUMPDEST PUSH1 0x40 MLOAD DUP1 SWAP2 SUB SWAP1 RETURN JUMPDEST PUSH2 0x63E PUSH1 0x4 DUP1 CALLDATASIZE SUB DUP2 ADD SWAP1 PUSH2 0x639 SWAP2 SWAP1 PUSH2 0x2EA5 JUMP JUMPDEST PUSH2 0x22C5 JUMP JUMPDEST STOP JUMPDEST PUSH2 0x65A PUSH1 0x4 DUP1 CALLDATASIZE SUB DUP2 ADD SWAP1 PUSH2 0x655 SWAP2 SWAP1 PUSH2 0x2CD4 JUMP JUMPDEST PUSH2 0x251C JUMP JUMPDEST STOP JUMPDEST PUSH2 0x676 PUSH1 0x4 DUP1 CALLDATASIZE SUB DUP2 ADD SWAP1 PUSH2 0x671 SWAP2 SWAP1 PUSH2 0x2F44 JUMP JUMPDEST PUSH2 0x26F8 JUMP JUMPDEST STOP JUMPDEST PUSH2 0x692 PUSH1 0x4 DUP1 CALLDATASIZE SUB DUP2 ADD SWAP1 PUSH2 0x68D SWAP2 SWAP1 PUSH2 0x2C70 JUMP JUMPDEST PUSH2 0x28F8 JUMP JUMPDEST PUSH1 0x40 MLOAD PUSH2 0x69F SWAP2 SWAP1 PUSH2 0x2984 JUMP JUMPDEST PUSH1 0x40 MLOAD DUP1 SWAP2 SUB SWAP1 RETURN JUMPDEST PUSH1 0x0 SLOAD DUP2 JUMP JUMPDEST PUSH1 0x1 DUP1 SLOAD PUSH2 0x6BB SWAP1 PUSH2 0x2FF3 JUMP JUMPDEST DUP1 PUSH1 0x1F ADD PUSH1 0x20 DUP1 SWAP2 DIV MUL PUSH1 0x20 ADD PUSH1 0x40 MLOAD SWAP1 DUP2 ADD PUSH1 0x40 MSTORE DUP1 SWAP3 SWAP2 SWAP1 DUP2 DUP2 MSTORE PUSH1 0x20 ADD DUP3 DUP1 SLOAD PUSH2 0x6E7 SWAP1 PUSH2 0x2FF3 JUMP JUMPDEST DUP1 ISZERO PUSH2 0x734 JUMPI DUP1 PUSH1 0x1F LT PUSH2 0x709 JUMPI PUSH2 0x100 DUP1 DUP4 SLOAD DIV MUL DUP4 MSTORE SWAP2 PUSH1 0x20 ADD SWAP2 PUSH2 0x734 JUMP JUMPDEST DUP3 ADD SWAP2 SWAP1 PUSH1 0x0 MSTORE PUSH1 0x20 PUSH1 0x0 KECCAK256 SWAP1 JUMPDEST DUP2 SLOAD DUP2 MSTORE SWAP1 PUSH1 0x1 ADD SWAP1 PUSH1 0x20 ADD DUP1 DUP4 GT PUSH2 0x717 JUMPI DUP3 SWAP1 SUB PUSH1 0x1F AND DUP3 ADD SWAP2 JUMPDEST POP POP POP POP POP DUP2 JUMP JUMPDEST PUSH1 0xB PUSH1 0x20 MSTORE DUP1 PUSH1 0x0 MSTORE PUSH1 0x40 PUSH1 0x0 KECCAK256 PUSH1 0x0 SWAP2 POP SWAP1 POP DUP1 SLOAD PUSH2 0x75B SWAP1 PUSH2 0x2FF3 JUMP JUMPDEST DUP1 PUSH1 0x1F ADD PUSH1 0x20 DUP1 SWAP2 DIV MUL PUSH1 0x20 ADD PUSH1 0x40 MLOAD SWAP1 DUP2 ADD PUSH1 0x40 MSTORE DUP1 SWAP3 SWAP2 SWAP1 DUP2 DUP2 MSTORE PUSH1 0x20 ADD DUP3 DUP1 SLOAD PUSH2 0x787 SWAP1 PUSH2 0x2FF3 JUMP JUMPDEST DUP1 ISZERO PUSH2 0x7D4 JUMPI DUP1 PUSH1 0x1F LT PUSH2 0x7A9 JUMPI PUSH2 0x100 DUP1 DUP4 SLOAD DIV MUL DUP4 MSTORE SWAP2 PUSH1 0x20 ADD SWAP2 PUSH2 0x7D4 JUMP JUMPDEST DUP3 ADD SWAP2 SWAP1 PUSH1 0x0 MSTORE PUSH1 0x20 PUSH1 0x0 KECCAK256 SWAP1 JUMPDEST DUP2 SLOAD DUP2 MSTORE SWAP1 PUSH1 0x1 ADD SWAP1 PUSH1 0x20 ADD DUP1 DUP4 GT PUSH2 0x7B7 JUMPI DUP3 SWAP1 SUB PUSH1 0x1F AND DUP3 ADD SWAP2 JUMPDEST POP POP POP POP POP DUP2 JUMP JUMPDEST PUSH1 0x9 PUSH1 0x20 MSTORE DUP1 PUSH1 0x0 MSTORE PUSH1 0x40 PUSH1 0x0 KECCAK256 PUSH1 0x0 SWAP2 POP SLOAD SWAP1 PUSH2 0x100 EXP SWAP1 DIV PUSH1 0xFF AND DUP2 JUMP JUMPDEST PUSH2 0x804 PUSH2 0x2941 JUMP JUMPDEST DUP2 PUSH1 0x7 PUSH1 0x0 DUP3 DUP2 MSTORE PUSH1 0x20 ADD SWAP1 DUP2 MSTORE PUSH1 0x20 ADD PUSH1 0x0 KECCAK256 PUSH1 0x0 SWAP1 SLOAD SWAP1 PUSH2 0x100 EXP SWAP1 DIV PUSH20 0xFFFFFFFFFFFFFFFFFFFFFFFFFFFFFFFFFFFFFFFF AND PUSH20 0xFFFFFFFFFFFFFFFFFFFFFFFFFFFFFFFFFFFFFFFF AND CALLER PUSH20 0xFFFFFFFFFFFFFFFFFFFFFFFFFFFFFFFFFFFFFFFF AND EQ DUP1 PUSH2 0x8D0 JUMPI POP PUSH1 0x8 PUSH1 0x0 DUP3 DUP2 MSTORE PUSH1 0x20 ADD SWAP1 DUP2 MSTORE PUSH1 0x20 ADD PUSH1 0x0 KECCAK256 PUSH1 0x0 SWAP1 SLOAD SWAP1 PUSH2 0x100 EXP SWAP1 DIV PUSH20 0xFFFFFFFFFFFFFFFFFFFFFFFFFFFFFFFFFFFFFFFF AND PUSH20 0xFFFFFFFFFFFFFFFFFFFFFFFFFFFFFFFFFFFFFFFF AND CALLER PUSH20 0xFFFFFFFFFFFFFFFFFFFFFFFFFFFFFFFFFFFFFFFF AND EQ JUMPDEST DUP1 PUSH2 0x91A JUMPI POP PUSH1 0x3 PUSH1 0x5 PUSH1 0x0 CALLER PUSH20 0xFFFFFFFFFFFFFFFFFFFFFFFFFFFFFFFFFFFFFFFF AND PUSH20 0xFFFFFFFFFFFFFFFFFFFFFFFFFFFFFFFFFFFFFFFF AND DUP2 MSTORE PUSH1 0x20 ADD SWAP1 DUP2 MSTORE PUSH1 0x20 ADD PUSH1 0x0 KECCAK256 SLOAD EQ JUMPDEST PUSH2 0x959 JUMPI PUSH1 0x40 MLOAD PUSH32 0x8C379A000000000000000000000000000000000000000000000000000000000 DUP2 MSTORE PUSH1 0x4 ADD PUSH2 0x950 SWAP1 PUSH2 0x3096 JUMP JUMPDEST PUSH1 0x40 MLOAD DUP1 SWAP2 SUB SWAP1 REVERT JUMPDEST PUSH1 0xC PUSH1 0x0 DUP5 DUP2 MSTORE PUSH1 0x20 ADD SWAP1 DUP2 MSTORE PUSH1 0x20 ADD PUSH1 0x0 KECCAK256 PUSH1 0x3 ADD PUSH1 0x0 SWAP1 SLOAD SWAP1 PUSH2 0x100 EXP SWAP1 DIV PUSH1 0xFF AND PUSH2 0x9BC JUMPI PUSH1 0x40 MLOAD PUSH32 0x8C379A000000000000000000000000000000000000000000000000000000000 DUP2 MSTORE PUSH1 0x4 ADD PUSH2 0x9B3 SWAP1 PUSH2 0x3102 JUMP JUMPDEST PUSH1 0x40 MLOAD DUP1 SWAP2 SUB SWAP1 REVERT JUMPDEST PUSH1 0xC PUSH1 0x0 DUP5 DUP2 MSTORE PUSH1 0x20 ADD SWAP1 DUP2 MSTORE PUSH1 0x20 ADD PUSH1 0x0 KECCAK256 PUSH1 0x40 MLOAD DUP1 PUSH1 0x80 ADD PUSH1 0x40 MSTORE SWAP1 DUP2 PUSH1 0x0 DUP3 ADD DUP1 SLOAD PUSH2 0x9EA SWAP1 PUSH2 0x2FF3 JUMP JUMPDEST DUP1 PUSH1 0x1F ADD PUSH1 0x20 DUP1 SWAP2 DIV MUL PUSH1 0x20 ADD PUSH1 0x40 MLOAD SWAP1 DUP2 ADD PUSH1 0x40 MSTORE DUP1 SWAP3 SWAP2 SWAP1 DUP2 DUP2 MSTORE PUSH1 0x20 ADD DUP3 DUP1 SLOAD PUSH2 0xA16 SWAP1 PUSH2 0x2FF3 JUMP JUMPDEST DUP1 ISZERO PUSH2 0xA63 JUMPI DUP1 PUSH1 0x1F LT PUSH2 0xA38 JUMPI PUSH2 0x100 DUP1 DUP4 SLOAD DIV MUL DUP4 MSTORE SWAP2 PUSH1 0x20 ADD SWAP2 PUSH2 0xA63 JUMP JUMPDEST DUP3 ADD SWAP2 SWAP1 PUSH1 0x0 MSTORE PUSH1 0x20 PUSH1 0x0 KECCAK256 SWAP1 JUMPDEST DUP2 SLOAD DUP2 MSTORE SWAP1 PUSH1 0x1 ADD SWAP1 PUSH1 0x20 ADD DUP1 DUP4 GT PUSH2 0xA46 JUMPI DUP3 SWAP1 SUB PUSH1 0x1F AND DUP3 ADD SWAP2 JUMPDEST POP POP POP POP POP DUP2 MSTORE PUSH1 0x20 ADD PUSH1 0x1 DUP3 ADD SLOAD DUP2 MSTORE PUSH1 0x20 ADD PUSH1 0x2 DUP3 ADD DUP1 SLOAD PUSH2 0xA86 SWAP1 PUSH2 0x2FF3 JUMP JUMPDEST DUP1 PUSH1 0x1F ADD PUSH1 0x20 DUP1 SWAP2 DIV MUL PUSH1 0x20 ADD PUSH1 0x40 MLOAD SWAP1 DUP2 ADD PUSH1 0x40 MSTORE DUP1 SWAP3 SWAP2 SWAP1 DUP2 DUP2 MSTORE PUSH1 0x20 ADD DUP3 DUP1 SLOAD PUSH2 0xAB2 SWAP1 PUSH2 0x2FF3 JUMP JUMPDEST DUP1 ISZERO PUSH2 0xAFF JUMPI DUP1 PUSH1 0x1F LT PUSH2 0xAD4 JUMPI PUSH2 0x100 DUP1 DUP4 SLOAD DIV MUL DUP4 MSTORE SWAP2 PUSH1 0x20 ADD SWAP2 PUSH2 0xAFF JUMP JUMPDEST DUP3 ADD SWAP2 SWAP1 PUSH1 0x0 MSTORE PUSH1 0x20 PUSH1 0x0 KECCAK256 SWAP1 JUMPDEST DUP2 SLOAD DUP2 MSTORE SWAP1 PUSH1 0x1 ADD SWAP1 PUSH1 0x20 ADD DUP1 DUP4 GT PUSH2 0xAE2 JUMPI DUP3 SWAP1 SUB PUSH1 0x1F AND DUP3 ADD SWAP2 JUMPDEST POP POP POP POP POP DUP2 MSTORE PUSH1 0x20 ADD PUSH1 0x3 DUP3 ADD PUSH1 0x0 SWAP1 SLOAD SWAP1 PUSH2 0x100 EXP SWAP1 DIV PUSH1 0xFF AND ISZERO ISZERO ISZERO ISZERO DUP2 MSTORE POP POP SWAP2 POP POP SWAP2 SWAP1 POP JUMP JUMPDEST PUSH1 0x7 PUSH1 0x20 MSTORE DUP1 PUSH1 0x0 MSTORE PUSH1 0x40 PUSH1 0x0 KECCAK256 PUSH1 0x0 SWAP2 POP SLOAD SWAP1 PUSH2 0x100 EXP SWAP1 DIV PUSH20 0xFFFFFFFFFFFFFFFFFFFFFFFFFFFFFFFFFFFFFFFF AND DUP2 JUMP JUMPDEST PUSH1 0x4 PUSH1 0x20 MSTORE DUP1 PUSH1 0x0 MSTORE PUSH1 0x40 PUSH1 0x0 KECCAK256 PUSH1 0x0 SWAP2 POP SWAP1 POP SLOAD DUP2 JUMP JUMPDEST PUSH1 0x3 PUSH1 0x0 SWAP1 SLOAD SWAP1 PUSH2 0x100 EXP SWAP1 DIV PUSH1 0xFF AND DUP2 JUMP JUMPDEST PUSH1 0x6 PUSH1 0x20 MSTORE DUP1 PUSH1 0x0 MSTORE PUSH1 0x40 PUSH1 0x0 KECCAK256 PUSH1 0x0 SWAP2 POP SWAP1 POP SLOAD DUP2 JUMP JUMPDEST PUSH1 0x0 PUSH1 0x5 PUSH1 0x0 CALLER PUSH20 0xFFFFFFFFFFFFFFFFFFFFFFFFFFFFFFFFFFFFFFFF AND PUSH20 0xFFFFFFFFFFFFFFFFFFFFFFFFFFFFFFFFFFFFFFFF AND DUP2 MSTORE PUSH1 0x20 ADD SWAP1 DUP2 MSTORE PUSH1 0x20 ADD PUSH1 0x0 KECCAK256 SLOAD EQ PUSH2 0xC23 JUMPI PUSH1 0x40 MLOAD PUSH32 0x8C379A000000000000000000000000000000000000000000000000000000000 DUP2 MSTORE PUSH1 0x4 ADD PUSH2 0xC1A SWAP1 PUSH2 0x3194 JUMP JUMPDEST PUSH1 0x40 MLOAD DUP1 SWAP2 SUB SWAP1 REVERT JUMPDEST PUSH1 0x0 DUP2 LT ISZERO DUP1 ISZERO PUSH2 0xC35 JUMPI POP PUSH1 0x5 DUP2 GT ISZERO JUMPDEST PUSH2 0xC74 JUMPI PUSH1 0x40 MLOAD PUSH32 0x8C379A000000000000000000000000000000000000000000000000000000000 DUP2 MSTORE PUSH1 0x4 ADD PUSH2 0xC6B SWAP1 PUSH2 0x3200 JUMP JUMPDEST PUSH1 0x40 MLOAD DUP1 SWAP2 SUB SWAP1 REVERT JUMPDEST DUP1 PUSH1 0x5 PUSH1 0x0 DUP5 PUSH20 0xFFFFFFFFFFFFFFFFFFFFFFFFFFFFFFFFFFFFFFFF AND PUSH20 0xFFFFFFFFFFFFFFFFFFFFFFFFFFFFFFFFFFFFFFFF AND DUP2 MSTORE PUSH1 0x20 ADD SWAP1 DUP2 MSTORE PUSH1 0x20 ADD PUSH1 0x0 KECCAK256 DUP2 SWAP1 SSTORE POP DUP2 PUSH20 0xFFFFFFFFFFFFFFFFFFFFFFFFFFFFFFFFFFFFFFFF AND CALLER PUSH20 0xFFFFFFFFFFFFFFFFFFFFFFFFFFFFFFFFFFFFFFFF AND PUSH32 0x21BE87BF0506BFA8B8AE2E59F15ED642E77CE15FF6D156D568362DE397127862 DUP4 PUSH1 0x40 MLOAD PUSH2 0xD15 SWAP2 SWAP1 PUSH2 0x2984 JUMP JUMPDEST PUSH1 0x40 MLOAD DUP1 SWAP2 SUB SWAP1 LOG3 POP POP JUMP JUMPDEST CALLER PUSH20 0xFFFFFFFFFFFFFFFFFFFFFFFFFFFFFFFFFFFFFFFF AND PUSH1 0x7 PUSH1 0x0 DUP4 DUP2 MSTORE PUSH1 0x20 ADD SWAP1 DUP2 MSTORE PUSH1 0x20 ADD PUSH1 0x0 KECCAK256 PUSH1 0x0 SWAP1 SLOAD SWAP1 PUSH2 0x100 EXP SWAP1 DIV PUSH20 0xFFFFFFFFFFFFFFFFFFFFFFFFFFFFFFFFFFFFFFFF AND PUSH20 0xFFFFFFFFFFFFFFFFFFFFFFFFFFFFFFFFFFFFFFFF AND EQ PUSH2 0xDC2 JUMPI PUSH1 0x40 MLOAD PUSH32 0x8C379A000000000000000000000000000000000000000000000000000000000 DUP2 MSTORE PUSH1 0x4 ADD PUSH2 0xDB9 SWAP1 PUSH2 0x3292 JUMP JUMPDEST PUSH1 0x40 MLOAD DUP1 SWAP2 SUB SWAP1 REVERT JUMPDEST PUSH1 0x0 PUSH1 0xA PUSH1 0x0 DUP4 DUP2 MSTORE PUSH1 0x20 ADD SWAP1 DUP2 MSTORE PUSH1 0x20 ADD PUSH1 0x0 KECCAK256 PUSH1 0x0 PUSH2 0x100 EXP DUP2 SLOAD DUP2 PUSH1 0xFF MUL NOT AND SWAP1 DUP4 ISZERO ISZERO MUL OR SWAP1 SSTORE POP PUSH1 0x40 MLOAD DUP1 PUSH1 0x20 ADD PUSH1 0x40 MSTORE DUP1 PUSH1 0x0 DUP2 MSTORE POP PUSH1 0xB PUSH1 0x0 DUP4 DUP2 MSTORE PUSH1 0x20 ADD SWAP1 DUP2 MSTORE PUSH1 0x20 ADD PUSH1 0x0 KECCAK256 SWAP1 DUP2 PUSH2 0xE1D SWAP2 SWAP1 PUSH2 0x345E JUMP JUMPDEST POP DUP1 PUSH32 0xD5F889530C6AFCEF6130327D64AAD3FB36A35091CA69C18F20600AF82626F09 PUSH1 0x40 MLOAD PUSH1 0x40 MLOAD DUP1 SWAP2 SUB SWAP1 LOG2 POP JUMP JUMPDEST CALLER PUSH20 0xFFFFFFFFFFFFFFFFFFFFFFFFFFFFFFFFFFFFFFFF AND PUSH1 0x7 PUSH1 0x0 DUP5 DUP2 MSTORE PUSH1 0x20 ADD SWAP1 DUP2 MSTORE PUSH1 0x20 ADD PUSH1 0x0 KECCAK256 PUSH1 0x0 SWAP1 SLOAD SWAP1 PUSH2 0x100 EXP SWAP1 DIV PUSH20 0xFFFFFFFFFFFFFFFFFFFFFFFFFFFFFFFFFFFFFFFF AND PUSH20 0xFFFFFFFFFFFFFFFFFFFFFFFFFFFFFFFFFFFFFFFF AND EQ PUSH2 0xEEF JUMPI PUSH1 0x40 MLOAD PUSH32 0x8C379A000000000000000000000000000000000000000000000000000000000 DUP2 MSTORE PUSH1 0x4 ADD PUSH2 0xEE6 SWAP1 PUSH2 0x35A2 JUMP JUMPDEST PUSH1 0x40 MLOAD DUP1 SWAP2 SUB SWAP1 REVERT JUMPDEST PUSH1 0x1 PUSH1 0xA PUSH1 0x0 DUP5 DUP2 MSTORE PUSH1 0x20 ADD SWAP1 DUP2 MSTORE PUSH1 0x20 ADD PUSH1 0x0 KECCAK256 PUSH1 0x0 PUSH2 0x100 EXP DUP2 SLOAD DUP2 PUSH1 0xFF MUL NOT AND SWAP1 DUP4 ISZERO ISZERO MUL OR SWAP1 SSTORE POP DUP1 PUSH1 0xB PUSH1 0x0 DUP5 DUP2 MSTORE PUSH1 0x20 ADD SWAP1 DUP2 MSTORE PUSH1 0x20 ADD PUSH1 0x0 KECCAK256 SWAP1 DUP2 PUSH2 0xF3B SWAP2 SWAP1 PUSH2 0x345E JUMP JUMPDEST POP DUP2 PUSH32 0x77DCF6C12CFB1E46AF4EEEA5ECF4D3FD431DCB6842B0DB92E3A486A1D27C91AF PUSH1 0x40 MLOAD PUSH1 0x40 MLOAD DUP1 SWAP2 SUB SWAP1 LOG2 POP POP JUMP JUMPDEST PUSH1 0x0 PUSH1 0x1 ISZERO ISZERO PUSH1 0xA PUSH1 0x0 DUP5 DUP2 MSTORE PUSH1 0x20 ADD SWAP1 DUP2 MSTORE PUSH1 0x20 ADD PUSH1 0x0 KECCAK256 PUSH1 0x0 SWAP1 SLOAD SWAP1 PUSH2 0x100 EXP SWAP1 DIV PUSH1 0xFF AND ISZERO ISZERO EQ PUSH2 0xFD6 JUMPI PUSH1 0x40 MLOAD PUSH32 0x8C379A000000000000000000000000000000000000000000000000000000000 DUP2 MSTORE PUSH1 0x4 ADD PUSH2 0xFCD SWAP1 PUSH2 0x360E JUMP JUMPDEST PUSH1 0x40 MLOAD DUP1 SWAP2 SUB SWAP1 REVERT JUMPDEST PUSH1 0x7 PUSH1 0x0 DUP4 DUP2 MSTORE PUSH1 0x20 ADD SWAP1 DUP2 MSTORE PUSH1 0x20 ADD PUSH1 0x0 KECCAK256 PUSH1 0x0 SWAP1 SLOAD SWAP1 PUSH2 0x100 EXP SWAP1 DIV PUSH20 0xFFFFFFFFFFFFFFFFFFFFFFFFFFFFFFFFFFFFFFFF AND SWAP1 POP SWAP2 SWAP1 POP JUMP JUMPDEST PUSH1 0x1 PUSH1 0x5 PUSH1 0x0 CALLER PUSH20 0xFFFFFFFFFFFFFFFFFFFFFFFFFFFFFFFFFFFFFFFF AND PUSH20 0xFFFFFFFFFFFFFFFFFFFFFFFFFFFFFFFFFFFFFFFF AND DUP2 MSTORE PUSH1 0x20 ADD SWAP1 DUP2 MSTORE PUSH1 0x20 ADD PUSH1 0x0 KECCAK256 SLOAD EQ DUP1 PUSH2 0x109E JUMPI POP PUSH1 0x3 PUSH1 0x5 PUSH1 0x0 CALLER PUSH20 0xFFFFFFFFFFFFFFFFFFFFFFFFFFFFFFFFFFFFFFFF AND PUSH20 0xFFFFFFFFFFFFFFFFFFFFFFFFFFFFFFFFFFFFFFFF AND DUP2 MSTORE PUSH1 0x20 ADD SWAP1 DUP2 MSTORE PUSH1 0x20 ADD PUSH1 0x0 KECCAK256 SLOAD EQ JUMPDEST PUSH2 0x10DD JUMPI PUSH1 0x40 MLOAD PUSH32 0x8C379A000000000000000000000000000000000000000000000000000000000 DUP2 MSTORE PUSH1 0x4 ADD PUSH2 0x10D4 SWAP1 PUSH2 0x36A0 JUMP JUMPDEST PUSH1 0x40 MLOAD DUP1 SWAP2 SUB SWAP1 REVERT JUMPDEST PUSH1 0xC PUSH1 0x0 DUP6 DUP2 MSTORE PUSH1 0x20 ADD SWAP1 DUP2 MSTORE PUSH1 0x20 ADD PUSH1 0x0 KECCAK256 PUSH1 0x3 ADD PUSH1 0x0 SWAP1 SLOAD SWAP1 PUSH2 0x100 EXP SWAP1 DIV PUSH1 0xFF AND PUSH2 0x1140 JUMPI PUSH1 0x40 MLOAD PUSH32 0x8C379A000000000000000000000000000000000000000000000000000000000 DUP2 MSTORE PUSH1 0x4 ADD PUSH2 0x1137 SWAP1 PUSH2 0x3102 JUMP JUMPDEST PUSH1 0x40 MLOAD DUP1 SWAP2 SUB SWAP1 REVERT JUMPDEST DUP3 PUSH1 0xC PUSH1 0x0 DUP7 DUP2 MSTORE PUSH1 0x20 ADD SWAP1 DUP2 MSTORE PUSH1 0x20 ADD PUSH1 0x0 KECCAK256 PUSH1 0x0 ADD SWAP1 DUP2 PUSH2 0x1163 SWAP2 SWAP1 PUSH2 0x345E JUMP JUMPDEST POP DUP2 PUSH1 0xC PUSH1 0x0 DUP7 DUP2 MSTORE PUSH1 0x20 ADD SWAP1 DUP2 MSTORE PUSH1 0x20 ADD PUSH1 0x0 KECCAK256 PUSH1 0x1 ADD DUP2 SWAP1 SSTORE POP DUP1 PUSH1 0xC PUSH1 0x0 DUP7 DUP2 MSTORE PUSH1 0x20 ADD SWAP1 DUP2 MSTORE PUSH1 0x20 ADD PUSH1 0x0 KECCAK256 PUSH1 0x2 ADD SWAP1 DUP2 PUSH2 0x11A2 SWAP2 SWAP1 PUSH2 0x345E JUMP JUMPDEST POP POP POP POP POP JUMP JUMPDEST CALLER PUSH20 0xFFFFFFFFFFFFFFFFFFFFFFFFFFFFFFFFFFFFFFFF AND PUSH1 0x7 PUSH1 0x0 DUP5 DUP2 MSTORE PUSH1 0x20 ADD SWAP1 DUP2 MSTORE PUSH1 0x20 ADD PUSH1 0x0 KECCAK256 PUSH1 0x0 SWAP1 SLOAD SWAP1 PUSH2 0x100 EXP SWAP1 DIV PUSH20 0xFFFFFFFFFFFFFFFFFFFFFFFFFFFFFFFFFFFFFFFF AND PUSH20 0xFFFFFFFFFFFFFFFFFFFFFFFFFFFFFFFFFFFFFFFF AND EQ PUSH2 0x124A JUMPI PUSH1 0x40 MLOAD PUSH32 0x8C379A000000000000000000000000000000000000000000000000000000000 DUP2 MSTORE PUSH1 0x4 ADD PUSH2 0x1241 SWAP1 PUSH2 0x3732 JUMP JUMPDEST PUSH1 0x40 MLOAD DUP1 SWAP2 SUB SWAP1 REVERT JUMPDEST DUP1 PUSH1 0x8 PUSH1 0x0 DUP5 DUP2 MSTORE PUSH1 0x20 ADD SWAP1 DUP2 MSTORE PUSH1 0x20 ADD PUSH1 0x0 KECCAK256 PUSH1 0x0 PUSH2 0x100 EXP DUP2 SLOAD DUP2 PUSH20 0xFFFFFFFFFFFFFFFFFFFFFFFFFFFFFFFFFFFFFFFF MUL NOT AND SWAP1 DUP4 PUSH20 0xFFFFFFFFFFFFFFFFFFFFFFFFFFFFFFFFFFFFFFFF AND MUL OR SWAP1 SSTORE POP DUP1 PUSH20 0xFFFFFFFFFFFFFFFFFFFFFFFFFFFFFFFFFFFFFFFF AND DUP3 PUSH32 0x66D2F090DD74EFF680D15784DF74CBC139D151A95E986258DA51DD9847CE0376 PUSH1 0x40 MLOAD PUSH1 0x40 MLOAD DUP1 SWAP2 SUB SWAP1 LOG3 POP POP JUMP JUMPDEST PUSH1 0x3 PUSH1 0x5 PUSH1 0x0 CALLER PUSH20 0xFFFFFFFFFFFFFFFFFFFFFFFFFFFFFFFFFFFFFFFF AND PUSH20 0xFFFFFFFFFFFFFFFFFFFFFFFFFFFFFFFFFFFFFFFF AND DUP2 MSTORE PUSH1 0x20 ADD SWAP1 DUP2 MSTORE PUSH1 0x20 ADD PUSH1 0x0 KECCAK256 SLOAD EQ PUSH2 0x1366 JUMPI PUSH1 0x40 MLOAD PUSH32 0x8C379A000000000000000000000000000000000000000000000000000000000 DUP2 MSTORE PUSH1 0x4 ADD PUSH2 0x135D SWAP1 PUSH2 0x37C4 JUMP JUMPDEST PUSH1 0x40 MLOAD DUP1 SWAP2 SUB SWAP1 REVERT JUMPDEST DUP1 PUSH1 0x6 PUSH1 0x0 DUP5 DUP2 MSTORE PUSH1 0x20 ADD SWAP1 DUP2 MSTORE PUSH1 0x20 ADD PUSH1 0x0 KECCAK256 DUP2 SWAP1 SSTORE POP POP POP JUMP JUMPDEST PUSH1 0x8 PUSH1 0x20 MSTORE DUP1 PUSH1 0x0 MSTORE PUSH1 0x40 PUSH1 0x0 KECCAK256 PUSH1 0x0 SWAP2 POP SLOAD SWAP1 PUSH2 0x100 EXP SWAP1 DIV PUSH20 0xFFFFFFFFFFFFFFFFFFFFFFFFFFFFFFFFFFFFFFFF AND DUP2 JUMP JUMPDEST PUSH1 0x2 DUP1 SLOAD PUSH2 0x13C2 SWAP1 PUSH2 0x2FF3 JUMP JUMPDEST DUP1 PUSH1 0x1F ADD PUSH1 0x20 DUP1 SWAP2 DIV MUL PUSH1 0x20 ADD PUSH1 0x40 MLOAD SWAP1 DUP2 ADD PUSH1 0x40 MSTORE DUP1 SWAP3 SWAP2 SWAP1 DUP2 DUP2 MSTORE PUSH1 0x20 ADD DUP3 DUP1 SLOAD PUSH2 0x13EE SWAP1 PUSH2 0x2FF3 JUMP JUMPDEST DUP1 ISZERO PUSH2 0x143B JUMPI DUP1 PUSH1 0x1F LT PUSH2 0x1410 JUMPI PUSH2 0x100 DUP1 DUP4 SLOAD DIV MUL DUP4 MSTORE SWAP2 PUSH1 0x20 ADD SWAP2 PUSH2 0x143B JUMP JUMPDEST DUP3 ADD SWAP2 SWAP1 PUSH1 0x0 MSTORE PUSH1 0x20 PUSH1 0x0 KECCAK256 SWAP1 JUMPDEST DUP2 SLOAD DUP2 MSTORE SWAP1 PUSH1 0x1 ADD SWAP1 PUSH1 0x20 ADD DUP1 DUP4 GT PUSH2 0x141E JUMPI DUP3 SWAP1 SUB PUSH1 0x1F AND DUP3 ADD SWAP2 JUMPDEST POP POP POP POP POP DUP2 JUMP JUMPDEST CALLER PUSH20 0xFFFFFFFFFFFFFFFFFFFFFFFFFFFFFFFFFFFFFFFF AND PUSH1 0x7 PUSH1 0x0 DUP5 DUP2 MSTORE PUSH1 0x20 ADD SWAP1 DUP2 MSTORE PUSH1 0x20 ADD PUSH1 0x0 KECCAK256 PUSH1 0x0 SWAP1 SLOAD SWAP1 PUSH2 0x100 EXP SWAP1 DIV PUSH20 0xFFFFFFFFFFFFFFFFFFFFFFFFFFFFFFFFFFFFFFFF AND PUSH20 0xFFFFFFFFFFFFFFFFFFFFFFFFFFFFFFFFFFFFFFFF AND EQ PUSH2 0x14E4 JUMPI PUSH1 0x40 MLOAD PUSH32 0x8C379A000000000000000000000000000000000000000000000000000000000 DUP2 MSTORE PUSH1 0x4 ADD PUSH2 0x14DB SWAP1 PUSH2 0x3856 JUMP JUMPDEST PUSH1 0x40 MLOAD DUP1 SWAP2 SUB SWAP1 REVERT JUMPDEST PUSH1 0x0 PUSH1 0x8 PUSH1 0x0 DUP5 DUP2 MSTORE PUSH1 0x20 ADD SWAP1 DUP2 MSTORE PUSH1 0x20 ADD PUSH1 0x0 KECCAK256 PUSH1 0x0 PUSH2 0x100 EXP DUP2 SLOAD DUP2 PUSH20 0xFFFFFFFFFFFFFFFFFFFFFFFFFFFFFFFFFFFFFFFF MUL NOT AND SWAP1 DUP4 PUSH20 0xFFFFFFFFFFFFFFFFFFFFFFFFFFFFFFFFFFFFFFFF AND MUL OR SWAP1 SSTORE POP DUP1 PUSH20 0xFFFFFFFFFFFFFFFFFFFFFFFFFFFFFFFFFFFFFFFF AND DUP3 PUSH32 0x1FD2449BC9116B95AB065B7A530A4B1BE6143A6D052B56CED3A914BBAA053B28 PUSH1 0x40 MLOAD PUSH1 0x40 MLOAD DUP1 SWAP2 SUB SWAP1 LOG3 POP POP JUMP JUMPDEST PUSH1 0x5 PUSH1 0x20 MSTORE DUP1 PUSH1 0x0 MSTORE PUSH1 0x40 PUSH1 0x0 KECCAK256 PUSH1 0x0 SWAP2 POP SWAP1 POP SLOAD DUP2 JUMP JUMPDEST PUSH1 0x0 PUSH1 0x5 PUSH1 0x0 CALLER PUSH20 0xFFFFFFFFFFFFFFFFFFFFFFFFFFFFFFFFFFFFFFFF AND PUSH20 0xFFFFFFFFFFFFFFFFFFFFFFFFFFFFFFFFFFFFFFFF AND DUP2 MSTORE PUSH1 0x20 ADD SWAP1 DUP2 MSTORE PUSH1 0x20 ADD PUSH1 0x0 KECCAK256 SLOAD EQ PUSH2 0x1619 JUMPI PUSH1 0x40 MLOAD PUSH32 0x8C379A000000000000000000000000000000000000000000000000000000000 DUP2 MSTORE PUSH1 0x4 ADD PUSH2 0x1610 SWAP1 PUSH2 0x3194 JUMP JUMPDEST PUSH1 0x40 MLOAD DUP1 SWAP2 SUB SWAP1 REVERT JUMPDEST DUP1 PUSH1 0x4 PUSH1 0x0 DUP5 PUSH20 0xFFFFFFFFFFFFFFFFFFFFFFFFFFFFFFFFFFFFFFFF AND PUSH20 0xFFFFFFFFFFFFFFFFFFFFFFFFFFFFFFFFFFFFFFFF AND DUP2 MSTORE PUSH1 0x20 ADD SWAP1 DUP2 MSTORE PUSH1 0x20 ADD PUSH1 0x0 KECCAK256 SLOAD LT ISZERO PUSH2 0x169B JUMPI PUSH1 0x40 MLOAD PUSH32 0x8C379A000000000000000000000000000000000000000000000000000000000 DUP2 MSTORE PUSH1 0x4 ADD PUSH2 0x1692 SWAP1 PUSH2 0x38C2 JUMP JUMPDEST PUSH1 0x40 MLOAD DUP1 SWAP2 SUB SWAP1 REVERT JUMPDEST DUP1 PUSH1 0x0 DUP1 DUP3 DUP3 SLOAD PUSH2 0x16AC SWAP2 SWAP1 PUSH2 0x3911 JUMP JUMPDEST SWAP3 POP POP DUP2 SWAP1 SSTORE POP DUP1 PUSH1 0x4 PUSH1 0x0 DUP5 PUSH20 0xFFFFFFFFFFFFFFFFFFFFFFFFFFFFFFFFFFFFFFFF AND PUSH20 0xFFFFFFFFFFFFFFFFFFFFFFFFFFFFFFFFFFFFFFFF AND DUP2 MSTORE PUSH1 0x20 ADD SWAP1 DUP2 MSTORE PUSH1 0x20 ADD PUSH1 0x0 KECCAK256 PUSH1 0x0 DUP3 DUP3 SLOAD PUSH2 0x1702 SWAP2 SWAP1 PUSH2 0x3911 JUMP JUMPDEST SWAP3 POP POP DUP2 SWAP1 SSTORE POP PUSH1 0x0 PUSH20 0xFFFFFFFFFFFFFFFFFFFFFFFFFFFFFFFFFFFFFFFF AND DUP3 PUSH20 0xFFFFFFFFFFFFFFFFFFFFFFFFFFFFFFFFFFFFFFFF AND PUSH32 0x9C8515990FD8C61431C4AC8DB9B81475F90C292A1DDA77731E56C22E64FC7643 DUP4 PUSH1 0x40 MLOAD PUSH2 0x1767 SWAP2 SWAP1 PUSH2 0x2984 JUMP JUMPDEST PUSH1 0x40 MLOAD DUP1 SWAP2 SUB SWAP1 LOG3 POP POP JUMP JUMPDEST PUSH1 0x0 PUSH1 0x5 PUSH1 0x0 CALLER PUSH20 0xFFFFFFFFFFFFFFFFFFFFFFFFFFFFFFFFFFFFFFFF AND PUSH20 0xFFFFFFFFFFFFFFFFFFFFFFFFFFFFFFFFFFFFFFFF AND DUP2 MSTORE PUSH1 0x20 ADD SWAP1 DUP2 MSTORE PUSH1 0x20 ADD PUSH1 0x0 KECCAK256 SLOAD EQ PUSH2 0x17F5 JUMPI PUSH1 0x40 MLOAD PUSH32 0x8C379A000000000000000000000000000000000000000000000000000000000 DUP2 MSTORE PUSH1 0x4 ADD PUSH2 0x17EC SWAP1 PUSH2 0x3194 JUMP JUMPDEST PUSH1 0x40 MLOAD DUP1 SWAP2 SUB SWAP1 REVERT JUMPDEST DUP1 PUSH1 0x0 DUP1 DUP3 DUP3 SLOAD PUSH2 0x1806 SWAP2 SWAP1 PUSH2 0x3945 JUMP JUMPDEST SWAP3 POP POP DUP2 SWAP1 SSTORE POP DUP1 PUSH1 0x4 PUSH1 0x0 CALLER PUSH20 0xFFFFFFFFFFFFFFFFFFFFFFFFFFFFFFFFFFFFFFFF AND PUSH20 0xFFFFFFFFFFFFFFFFFFFFFFFFFFFFFFFFFFFFFFFF AND DUP2 MSTORE PUSH1 0x20 ADD SWAP1 DUP2 MSTORE PUSH1 0x20 ADD PUSH1 0x0 KECCAK256 PUSH1 0x0 DUP3 DUP3 SLOAD PUSH2 0x185C SWAP2 SWAP1 PUSH2 0x3945 JUMP JUMPDEST SWAP3 POP POP DUP2 SWAP1 SSTORE POP CALLER PUSH20 0xFFFFFFFFFFFFFFFFFFFFFFFFFFFFFFFFFFFFFFFF AND PUSH1 0x0 PUSH20 0xFFFFFFFFFFFFFFFFFFFFFFFFFFFFFFFFFFFFFFFF AND PUSH32 0x9C8515990FD8C61431C4AC8DB9B81475F90C292A1DDA77731E56C22E64FC7643 DUP4 PUSH1 0x40 MLOAD PUSH2 0x18C1 SWAP2 SWAP1 PUSH2 0x2984 JUMP JUMPDEST PUSH1 0x40 MLOAD DUP1 SWAP2 SUB SWAP1 LOG3 POP JUMP JUMPDEST DUP1 PUSH1 0x4 PUSH1 0x0 CALLER PUSH20 0xFFFFFFFFFFFFFFFFFFFFFFFFFFFFFFFFFFFFFFFF AND PUSH20 0xFFFFFFFFFFFFFFFFFFFFFFFFFFFFFFFFFFFFFFFF AND DUP2 MSTORE PUSH1 0x20 ADD SWAP1 DUP2 MSTORE PUSH1 0x20 ADD PUSH1 0x0 KECCAK256 SLOAD LT ISZERO PUSH2 0x194E JUMPI PUSH1 0x40 MLOAD PUSH32 0x8C379A000000000000000000000000000000000000000000000000000000000 DUP2 MSTORE PUSH1 0x4 ADD PUSH2 0x1945 SWAP1 PUSH2 0x39C5 JUMP JUMPDEST PUSH1 0x40 MLOAD DUP1 SWAP2 SUB SWAP1 REVERT JUMPDEST DUP1 PUSH1 0x4 PUSH1 0x0 CALLER PUSH20 0xFFFFFFFFFFFFFFFFFFFFFFFFFFFFFFFFFFFFFFFF AND PUSH20 0xFFFFFFFFFFFFFFFFFFFFFFFFFFFFFFFFFFFFFFFF AND DUP2 MSTORE PUSH1 0x20 ADD SWAP1 DUP2 MSTORE PUSH1 0x20 ADD PUSH1 0x0 KECCAK256 PUSH1 0x0 DUP3 DUP3 SLOAD PUSH2 0x199D SWAP2 SWAP1 PUSH2 0x3911 JUMP JUMPDEST SWAP3 POP POP DUP2 SWAP1 SSTORE POP DUP1 PUSH1 0x4 PUSH1 0x0 DUP5 PUSH20 0xFFFFFFFFFFFFFFFFFFFFFFFFFFFFFFFFFFFFFFFF AND PUSH20 0xFFFFFFFFFFFFFFFFFFFFFFFFFFFFFFFFFFFFFFFF AND DUP2 MSTORE PUSH1 0x20 ADD SWAP1 DUP2 MSTORE PUSH1 0x20 ADD PUSH1 0x0 KECCAK256 PUSH1 0x0 DUP3 DUP3 SLOAD PUSH2 0x19F3 SWAP2 SWAP1 PUSH2 0x3945 JUMP JUMPDEST SWAP3 POP POP DUP2 SWAP1 SSTORE POP DUP2 PUSH20 0xFFFFFFFFFFFFFFFFFFFFFFFFFFFFFFFFFFFFFFFF AND CALLER PUSH20 0xFFFFFFFFFFFFFFFFFFFFFFFFFFFFFFFFFFFFFFFF AND PUSH32 0x9C8515990FD8C61431C4AC8DB9B81475F90C292A1DDA77731E56C22E64FC7643 DUP4 PUSH1 0x40 MLOAD PUSH2 0x1A57 SWAP2 SWAP1 PUSH2 0x2984 JUMP JUMPDEST PUSH1 0x40 MLOAD DUP1 SWAP2 SUB SWAP1 LOG3 POP POP JUMP JUMPDEST PUSH1 0x1 PUSH1 0x5 PUSH1 0x0 CALLER PUSH20 0xFFFFFFFFFFFFFFFFFFFFFFFFFFFFFFFFFFFFFFFF AND PUSH20 0xFFFFFFFFFFFFFFFFFFFFFFFFFFFFFFFFFFFFFFFF AND DUP2 MSTORE PUSH1 0x20 ADD SWAP1 DUP2 MSTORE PUSH1 0x20 ADD PUSH1 0x0 KECCAK256 SLOAD EQ DUP1 PUSH2 0x1AF0 JUMPI POP PUSH1 0x2 PUSH1 0x5 PUSH1 0x0 CALLER PUSH20 0xFFFFFFFFFFFFFFFFFFFFFFFFFFFFFFFFFFFFFFFF AND PUSH20 0xFFFFFFFFFFFFFFFFFFFFFFFFFFFFFFFFFFFFFFFF AND DUP2 MSTORE PUSH1 0x20 ADD SWAP1 DUP2 MSTORE PUSH1 0x20 ADD PUSH1 0x0 KECCAK256 SLOAD EQ JUMPDEST PUSH2 0x1B2F JUMPI PUSH1 0x40 MLOAD PUSH32 0x8C379A000000000000000000000000000000000000000000000000000000000 DUP2 MSTORE PUSH1 0x4 ADD PUSH2 0x1B26 SWAP1 PUSH2 0x3A57 JUMP JUMPDEST PUSH1 0x40 MLOAD DUP1 SWAP2 SUB SWAP1 REVERT JUMPDEST PUSH1 0x0 PUSH1 0x6 PUSH1 0x0 DUP5 DUP2 MSTORE PUSH1 0x20 ADD SWAP1 DUP2 MSTORE PUSH1 0x20 ADD PUSH1 0x0 KECCAK256 SLOAD SWAP1 POP PUSH1 0x0 DUP2 DUP4 PUSH2 0x1B55 SWAP2 SWAP1 PUSH2 0x3A77 JUMP JUMPDEST SWAP1 POP DUP1 PUSH1 0x0 DUP1 DUP3 DUP3 SLOAD PUSH2 0x1B68 SWAP2 SWAP1 PUSH2 0x3945 JUMP JUMPDEST SWAP3 POP POP DUP2 SWAP1 SSTORE POP DUP1 PUSH1 0x4 PUSH1 0x0 PUSH1 0x7 PUSH1 0x0 DUP9 DUP2 MSTORE PUSH1 0x20 ADD SWAP1 DUP2 MSTORE PUSH1 0x20 ADD PUSH1 0x0 KECCAK256 PUSH1 0x0 SWAP1 SLOAD SWAP1 PUSH2 0x100 EXP SWAP1 DIV PUSH20 0xFFFFFFFFFFFFFFFFFFFFFFFFFFFFFFFFFFFFFFFF AND PUSH20 0xFFFFFFFFFFFFFFFFFFFFFFFFFFFFFFFFFFFFFFFF AND PUSH20 0xFFFFFFFFFFFFFFFFFFFFFFFFFFFFFFFFFFFFFFFF AND DUP2 MSTORE PUSH1 0x20 ADD SWAP1 DUP2 MSTORE PUSH1 0x20 ADD PUSH1 0x0 KECCAK256 PUSH1 0x0 DUP3 DUP3 SLOAD PUSH2 0x1BF1 SWAP2 SWAP1 PUSH2 0x3945 JUMP JUMPDEST SWAP3 POP POP DUP2 SWAP1 SSTORE POP PUSH1 0x7 PUSH1 0x0 DUP6 DUP2 MSTORE PUSH1 0x20 ADD SWAP1 DUP2 MSTORE PUSH1 0x20 ADD PUSH1 0x0 KECCAK256 PUSH1 0x0 SWAP1 SLOAD SWAP1 PUSH2 0x100 EXP SWAP1 DIV PUSH20 0xFFFFFFFFFFFFFFFFFFFFFFFFFFFFFFFFFFFFFFFF AND PUSH20 0xFFFFFFFFFFFFFFFFFFFFFFFFFFFFFFFFFFFFFFFF AND CALLER PUSH20 0xFFFFFFFFFFFFFFFFFFFFFFFFFFFFFFFFFFFFFFFF AND PUSH32 0x9C8515990FD8C61431C4AC8DB9B81475F90C292A1DDA77731E56C22E64FC7643 DUP4 PUSH1 0x40 MLOAD PUSH2 0x1C88 SWAP2 SWAP1 PUSH2 0x2984 JUMP JUMPDEST PUSH1 0x40 MLOAD DUP1 SWAP2 SUB SWAP1 LOG3 POP POP POP POP JUMP JUMPDEST PUSH1 0xA PUSH1 0x20 MSTORE DUP1 PUSH1 0x0 MSTORE PUSH1 0x40 PUSH1 0x0 KECCAK256 PUSH1 0x0 SWAP2 POP SLOAD SWAP1 PUSH2 0x100 EXP SWAP1 DIV PUSH1 0xFF AND DUP2 JUMP JUMPDEST PUSH1 0x3 PUSH1 0x5 PUSH1 0x0 CALLER PUSH20 0xFFFFFFFFFFFFFFFFFFFFFFFFFFFFFFFFFFFFFFFF AND PUSH20 0xFFFFFFFFFFFFFFFFFFFFFFFFFFFFFFFFFFFFFFFF AND DUP2 MSTORE PUSH1 0x20 ADD SWAP1 DUP2 MSTORE PUSH1 0x20 ADD PUSH1 0x0 KECCAK256 SLOAD EQ PUSH2 0x1D38 JUMPI PUSH1 0x40 MLOAD PUSH32 0x8C379A000000000000000000000000000000000000000000000000000000000 DUP2 MSTORE PUSH1 0x4 ADD PUSH2 0x1D2F SWAP1 PUSH2 0x37C4 JUMP JUMPDEST PUSH1 0x40 MLOAD DUP1 SWAP2 SUB SWAP1 REVERT JUMPDEST PUSH1 0x0 PUSH1 0x5 PUSH1 0x0 DUP4 PUSH20 0xFFFFFFFFFFFFFFFFFFFFFFFFFFFFFFFFFFFFFFFF AND PUSH20 0xFFFFFFFFFFFFFFFFFFFFFFFFFFFFFFFFFFFFFFFF AND DUP2 MSTORE PUSH1 0x20 ADD SWAP1 DUP2 MSTORE PUSH1 0x20 ADD PUSH1 0x0 KECCAK256 SLOAD SUB PUSH2 0x1DBA JUMPI PUSH1 0x40 MLOAD PUSH32 0x8C379A000000000000000000000000000000000000000000000000000000000 DUP2 MSTORE PUSH1 0x4 ADD PUSH2 0x1DB1 SWAP1 PUSH2 0x3B2B JUMP JUMPDEST PUSH1 0x40 MLOAD DUP1 SWAP2 SUB SWAP1 REVERT JUMPDEST PUSH1 0x1 PUSH1 0x5 PUSH1 0x0 DUP4 PUSH20 0xFFFFFFFFFFFFFFFFFFFFFFFFFFFFFFFFFFFFFFFF AND PUSH20 0xFFFFFFFFFFFFFFFFFFFFFFFFFFFFFFFFFFFFFFFF AND DUP2 MSTORE PUSH1 0x20 ADD SWAP1 DUP2 MSTORE PUSH1 0x20 ADD PUSH1 0x0 KECCAK256 SLOAD SUB PUSH2 0x1E3C JUMPI PUSH1 0x40 MLOAD PUSH32 0x8C379A000000000000000000000000000000000000000000000000000000000 DUP2 MSTORE PUSH1 0x4 ADD PUSH2 0x1E33 SWAP1 PUSH2 0x3B97 JUMP JUMPDEST PUSH1 0x40 MLOAD DUP1 SWAP2 SUB SWAP1 REVERT JUMPDEST PUSH1 0x2 PUSH1 0x5 PUSH1 0x0 DUP4 PUSH20 0xFFFFFFFFFFFFFFFFFFFFFFFFFFFFFFFFFFFFFFFF AND PUSH20 0xFFFFFFFFFFFFFFFFFFFFFFFFFFFFFFFFFFFFFFFF AND DUP2 MSTORE PUSH1 0x20 ADD SWAP1 DUP2 MSTORE PUSH1 0x20 ADD PUSH1 0x0 KECCAK256 SLOAD SUB PUSH2 0x1EBE JUMPI PUSH1 0x40 MLOAD PUSH32 0x8C379A000000000000000000000000000000000000000000000000000000000 DUP2 MSTORE PUSH1 0x4 ADD PUSH2 0x1EB5 SWAP1 PUSH2 0x3C03 JUMP JUMPDEST PUSH1 0x40 MLOAD DUP1 SWAP2 SUB SWAP1 REVERT JUMPDEST PUSH1 0x4 PUSH1 0x5 PUSH1 0x0 DUP4 PUSH20 0xFFFFFFFFFFFFFFFFFFFFFFFFFFFFFFFFFFFFFFFF AND PUSH20 0xFFFFFFFFFFFFFFFFFFFFFFFFFFFFFFFFFFFFFFFF AND DUP2 MSTORE PUSH1 0x20 ADD SWAP1 DUP2 MSTORE PUSH1 0x20 ADD PUSH1 0x0 KECCAK256 DUP2 SWAP1 SSTORE POP DUP1 PUSH20 0xFFFFFFFFFFFFFFFFFFFFFFFFFFFFFFFFFFFFFFFF AND CALLER PUSH20 0xFFFFFFFFFFFFFFFFFFFFFFFFFFFFFFFFFFFFFFFF AND PUSH32 0x16FB4635D0D4597C58A9B621D29F645114119E9E7364A0FD486AB3D747D91E38 PUSH1 0x40 MLOAD PUSH1 0x40 MLOAD DUP1 SWAP2 SUB SWAP1 LOG3 POP JUMP JUMPDEST PUSH1 0x0 PUSH1 0x1 PUSH1 0x5 PUSH1 0x0 CALLER PUSH20 0xFFFFFFFFFFFFFFFFFFFFFFFFFFFFFFFFFFFFFFFF AND PUSH20 0xFFFFFFFFFFFFFFFFFFFFFFFFFFFFFFFFFFFFFFFF AND DUP2 MSTORE PUSH1 0x20 ADD SWAP1 DUP2 MSTORE PUSH1 0x20 ADD PUSH1 0x0 KECCAK256 SLOAD EQ DUP1 PUSH2 0x1FEF JUMPI POP PUSH1 0x3 PUSH1 0x5 PUSH1 0x0 CALLER PUSH20 0xFFFFFFFFFFFFFFFFFFFFFFFFFFFFFFFFFFFFFFFF AND PUSH20 0xFFFFFFFFFFFFFFFFFFFFFFFFFFFFFFFFFFFFFFFF AND DUP2 MSTORE PUSH1 0x20 ADD SWAP1 DUP2 MSTORE PUSH1 0x20 ADD PUSH1 0x0 KECCAK256 SLOAD EQ JUMPDEST PUSH2 0x202E JUMPI PUSH1 0x40 MLOAD PUSH32 0x8C379A000000000000000000000000000000000000000000000000000000000 DUP2 MSTORE PUSH1 0x4 ADD PUSH2 0x2025 SWAP1 PUSH2 0x36A0 JUMP JUMPDEST PUSH1 0x40 MLOAD DUP1 SWAP2 SUB SWAP1 REVERT JUMPDEST PUSH1 0x7 PUSH1 0x0 DUP4 DUP2 MSTORE PUSH1 0x20 ADD SWAP1 DUP2 MSTORE PUSH1 0x20 ADD PUSH1 0x0 KECCAK256 PUSH1 0x0 SWAP1 SLOAD SWAP1 PUSH2 0x100 EXP SWAP1 DIV PUSH20 0xFFFFFFFFFFFFFFFFFFFFFFFFFFFFFFFFFFFFFFFF AND SWAP1 POP SWAP2 SWAP1 POP JUMP JUMPDEST PUSH1 0x0 PUSH1 0x5 PUSH1 0x0 CALLER PUSH20 0xFFFFFFFFFFFFFFFFFFFFFFFFFFFFFFFFFFFFFFFF AND PUSH20 0xFFFFFFFFFFFFFFFFFFFFFFFFFFFFFFFFFFFFFFFF AND DUP2 MSTORE PUSH1 0x20 ADD SWAP1 DUP2 MSTORE PUSH1 0x20 ADD PUSH1 0x0 KECCAK256 SLOAD EQ PUSH2 0x20EB JUMPI PUSH1 0x40 MLOAD PUSH32 0x8C379A000000000000000000000000000000000000000000000000000000000 DUP2 MSTORE PUSH1 0x4 ADD PUSH2 0x20E2 SWAP1 PUSH2 0x3194 JUMP JUMPDEST PUSH1 0x40 MLOAD DUP1 SWAP2 SUB SWAP1 REVERT JUMPDEST PUSH1 0x0 PUSH1 0x5 PUSH1 0x0 DUP4 PUSH20 0xFFFFFFFFFFFFFFFFFFFFFFFFFFFFFFFFFFFFFFFF AND PUSH20 0xFFFFFFFFFFFFFFFFFFFFFFFFFFFFFFFFFFFFFFFF AND DUP2 MSTORE PUSH1 0x20 ADD SWAP1 DUP2 MSTORE PUSH1 0x20 ADD PUSH1 0x0 KECCAK256 SLOAD SWAP1 POP PUSH1 0x5 DUP1 PUSH1 0x0 DUP5 PUSH20 0xFFFFFFFFFFFFFFFFFFFFFFFFFFFFFFFFFFFFFFFF AND PUSH20 0xFFFFFFFFFFFFFFFFFFFFFFFFFFFFFFFFFFFFFFFF AND DUP2 MSTORE PUSH1 0x20 ADD SWAP1 DUP2 MSTORE PUSH1 0x20 ADD PUSH1 0x0 KECCAK256 DUP2 SWAP1 SSTORE POP DUP2 PUSH20 0xFFFFFFFFFFFFFFFFFFFFFFFFFFFFFFFFFFFFFFFF AND CALLER PUSH20 0xFFFFFFFFFFFFFFFFFFFFFFFFFFFFFFFFFFFFFFFF AND PUSH32 0x4F91DEF577908B239D8A5279A990B53C56A028B00C6FCFD2D46D031D95787FAF DUP4 PUSH1 0x40 MLOAD PUSH2 0x21D0 SWAP2 SWAP1 PUSH2 0x2984 JUMP JUMPDEST PUSH1 0x40 MLOAD DUP1 SWAP2 SUB SWAP1 LOG3 POP POP JUMP JUMPDEST PUSH1 0x0 PUSH1 0x1 PUSH1 0x5 PUSH1 0x0 CALLER PUSH20 0xFFFFFFFFFFFFFFFFFFFFFFFFFFFFFFFFFFFFFFFF AND PUSH20 0xFFFFFFFFFFFFFFFFFFFFFFFFFFFFFFFFFFFFFFFF AND DUP2 MSTORE PUSH1 0x20 ADD SWAP1 DUP2 MSTORE PUSH1 0x20 ADD PUSH1 0x0 KECCAK256 SLOAD EQ DUP1 PUSH2 0x226B JUMPI POP PUSH1 0x2 PUSH1 0x5 PUSH1 0x0 CALLER PUSH20 0xFFFFFFFFFFFFFFFFFFFFFFFFFFFFFFFFFFFFFFFF AND PUSH20 0xFFFFFFFFFFFFFFFFFFFFFFFFFFFFFFFFFFFFFFFF AND DUP2 MSTORE PUSH1 0x20 ADD SWAP1 DUP2 MSTORE PUSH1 0x20 ADD PUSH1 0x0 KECCAK256 SLOAD EQ JUMPDEST PUSH2 0x22AA JUMPI PUSH1 0x40 MLOAD PUSH32 0x8C379A000000000000000000000000000000000000000000000000000000000 DUP2 MSTORE PUSH1 0x4 ADD PUSH2 0x22A1 SWAP1 PUSH2 0x3A57 JUMP JUMPDEST PUSH1 0x40 MLOAD DUP1 SWAP2 SUB SWAP1 REVERT JUMPDEST PUSH1 0x6 PUSH1 0x0 DUP4 DUP2 MSTORE PUSH1 0x20 ADD SWAP1 DUP2 MSTORE PUSH1 0x20 ADD PUSH1 0x0 KECCAK256 SLOAD SWAP1 POP SWAP2 SWAP1 POP JUMP JUMPDEST PUSH1 0x3 PUSH1 0x5 PUSH1 0x0 CALLER PUSH20 0xFFFFFFFFFFFFFFFFFFFFFFFFFFFFFFFFFFFFFFFF AND PUSH20 0xFFFFFFFFFFFFFFFFFFFFFFFFFFFFFFFFFFFFFFFF AND DUP2 MSTORE PUSH1 0x20 ADD SWAP1 DUP2 MSTORE PUSH1 0x20 ADD PUSH1 0x0 KECCAK256 SLOAD EQ PUSH2 0x2347 JUMPI PUSH1 0x40 MLOAD PUSH32 0x8C379A000000000000000000000000000000000000000000000000000000000 DUP2 MSTORE PUSH1 0x4 ADD PUSH2 0x233E SWAP1 PUSH2 0x37C4 JUMP JUMPDEST PUSH1 0x40 MLOAD DUP1 SWAP2 SUB SWAP1 REVERT JUMPDEST PUSH1 0xC PUSH1 0x0 DUP6 DUP2 MSTORE PUSH1 0x20 ADD SWAP1 DUP2 MSTORE PUSH1 0x20 ADD PUSH1 0x0 KECCAK256 PUSH1 0x3 ADD PUSH1 0x0 SWAP1 SLOAD SWAP1 PUSH2 0x100 EXP SWAP1 DIV PUSH1 0xFF AND ISZERO PUSH2 0x23AB JUMPI PUSH1 0x40 MLOAD PUSH32 0x8C379A000000000000000000000000000000000000000000000000000000000 DUP2 MSTORE PUSH1 0x4 ADD PUSH2 0x23A2 SWAP1 PUSH2 0x3C6F JUMP JUMPDEST PUSH1 0x40 MLOAD DUP1 SWAP2 SUB SWAP1 REVERT JUMPDEST CALLER PUSH1 0x7 PUSH1 0x0 DUP7 DUP2 MSTORE PUSH1 0x20 ADD SWAP1 DUP2 MSTORE PUSH1 0x20 ADD PUSH1 0x0 KECCAK256 PUSH1 0x0 PUSH2 0x100 EXP DUP2 SLOAD DUP2 PUSH20 0xFFFFFFFFFFFFFFFFFFFFFFFFFFFFFFFFFFFFFFFF MUL NOT AND SWAP1 DUP4 PUSH20 0xFFFFFFFFFFFFFFFFFFFFFFFFFFFFFFFFFFFFFFFF AND MUL OR SWAP1 SSTORE POP PUSH1 0x0 PUSH1 0x9 PUSH1 0x0 DUP7 DUP2 MSTORE PUSH1 0x20 ADD SWAP1 DUP2 MSTORE PUSH1 0x20 ADD PUSH1 0x0 KECCAK256 PUSH1 0x0 PUSH2 0x100 EXP DUP2 SLOAD DUP2 PUSH1 0xFF MUL NOT AND SWAP1 DUP4 ISZERO ISZERO MUL OR SWAP1 SSTORE POP PUSH1 0x1 PUSH1 0x6 PUSH1 0x0 DUP7 DUP2 MSTORE PUSH1 0x20 ADD SWAP1 DUP2 MSTORE PUSH1 0x20 ADD PUSH1 0x0 KECCAK256 DUP2 SWAP1 SSTORE POP PUSH1 0x40 MLOAD DUP1 PUSH1 0x80 ADD PUSH1 0x40 MSTORE DUP1 DUP5 DUP2 MSTORE PUSH1 0x20 ADD DUP4 DUP2 MSTORE PUSH1 0x20 ADD DUP3 DUP2 MSTORE PUSH1 0x20 ADD PUSH1 0x1 ISZERO ISZERO DUP2 MSTORE POP PUSH1 0xC PUSH1 0x0 DUP7 DUP2 MSTORE PUSH1 0x20 ADD SWAP1 DUP2 MSTORE PUSH1 0x20 ADD PUSH1 0x0 KECCAK256 PUSH1 0x0 DUP3 ADD MLOAD DUP2 PUSH1 0x0 ADD SWAP1 DUP2 PUSH2 0x248E SWAP2 SWAP1 PUSH2 0x345E JUMP JUMPDEST POP PUSH1 0x20 DUP3 ADD MLOAD DUP2 PUSH1 0x1 ADD SSTORE PUSH1 0x40 DUP3 ADD MLOAD DUP2 PUSH1 0x2 ADD SWAP1 DUP2 PUSH2 0x24AE SWAP2 SWAP1 PUSH2 0x345E JUMP JUMPDEST POP PUSH1 0x60 DUP3 ADD MLOAD DUP2 PUSH1 0x3 ADD PUSH1 0x0 PUSH2 0x100 EXP DUP2 SLOAD DUP2 PUSH1 0xFF MUL NOT AND SWAP1 DUP4 ISZERO ISZERO MUL OR SWAP1 SSTORE POP SWAP1 POP POP DUP4 CALLER PUSH20 0xFFFFFFFFFFFFFFFFFFFFFFFFFFFFFFFFFFFFFFFF AND PUSH32 0xDDF5E3E69A97F234A15454D5271A1581D2A6273B21FAFBD41705937F0F88DFFE PUSH1 0x40 MLOAD PUSH1 0x40 MLOAD DUP1 SWAP2 SUB SWAP1 LOG3 POP POP POP POP JUMP JUMPDEST PUSH1 0x2 PUSH1 0x5 PUSH1 0x0 CALLER PUSH20 0xFFFFFFFFFFFFFFFFFFFFFFFFFFFFFFFFFFFFFFFF AND PUSH20 0xFFFFFFFFFFFFFFFFFFFFFFFFFFFFFFFFFFFFFFFF AND DUP2 MSTORE PUSH1 0x20 ADD SWAP1 DUP2 MSTORE PUSH1 0x20 ADD PUSH1 0x0 KECCAK256 SLOAD EQ PUSH2 0x259E JUMPI PUSH1 0x40 MLOAD PUSH32 0x8C379A000000000000000000000000000000000000000000000000000000000 DUP2 MSTORE PUSH1 0x4 ADD PUSH2 0x2595 SWAP1 PUSH2 0x3D01 JUMP JUMPDEST PUSH1 0x40 MLOAD DUP1 SWAP2 SUB SWAP1 REVERT JUMPDEST DUP1 PUSH1 0x4 PUSH1 0x0 DUP5 PUSH20 0xFFFFFFFFFFFFFFFFFFFFFFFFFFFFFFFFFFFFFFFF AND PUSH20 0xFFFFFFFFFFFFFFFFFFFFFFFFFFFFFFFFFFFFFFFF AND DUP2 MSTORE PUSH1 0x20 ADD SWAP1 DUP2 MSTORE PUSH1 0x20 ADD PUSH1 0x0 KECCAK256 SLOAD LT ISZERO PUSH2 0x2620 JUMPI PUSH1 0x40 MLOAD PUSH32 0x8C379A000000000000000000000000000000000000000000000000000000000 DUP2 MSTORE PUSH1 0x4 ADD PUSH2 0x2617 SWAP1 PUSH2 0x39C5 JUMP JUMPDEST PUSH1 0x40 MLOAD DUP1 SWAP2 SUB SWAP1 REVERT JUMPDEST DUP1 PUSH1 0x0 DUP1 DUP3 DUP3 SLOAD PUSH2 0x2631 SWAP2 SWAP1 PUSH2 0x3911 JUMP JUMPDEST SWAP3 POP POP DUP2 SWAP1 SSTORE POP DUP1 PUSH1 0x4 PUSH1 0x0 DUP5 PUSH20 0xFFFFFFFFFFFFFFFFFFFFFFFFFFFFFFFFFFFFFFFF AND PUSH20 0xFFFFFFFFFFFFFFFFFFFFFFFFFFFFFFFFFFFFFFFF AND DUP2 MSTORE PUSH1 0x20 ADD SWAP1 DUP2 MSTORE PUSH1 0x20 ADD PUSH1 0x0 KECCAK256 PUSH1 0x0 DUP3 DUP3 SLOAD PUSH2 0x2687 SWAP2 SWAP1 PUSH2 0x3911 JUMP JUMPDEST SWAP3 POP POP DUP2 SWAP1 SSTORE POP PUSH1 0x0 PUSH20 0xFFFFFFFFFFFFFFFFFFFFFFFFFFFFFFFFFFFFFFFF AND DUP3 PUSH20 0xFFFFFFFFFFFFFFFFFFFFFFFFFFFFFFFFFFFFFFFF AND PUSH32 0x9C8515990FD8C61431C4AC8DB9B81475F90C292A1DDA77731E56C22E64FC7643 DUP4 PUSH1 0x40 MLOAD PUSH2 0x26EC SWAP2 SWAP1 PUSH2 0x2984 JUMP JUMPDEST PUSH1 0x40 MLOAD DUP1 SWAP2 SUB SWAP1 LOG3 POP POP JUMP JUMPDEST PUSH1 0x3 PUSH1 0x5 PUSH1 0x0 CALLER PUSH20 0xFFFFFFFFFFFFFFFFFFFFFFFFFFFFFFFFFFFFFFFF AND PUSH20 0xFFFFFFFFFFFFFFFFFFFFFFFFFFFFFFFFFFFFFFFF AND DUP2 MSTORE PUSH1 0x20 ADD SWAP1 DUP2 MSTORE PUSH1 0x20 ADD PUSH1 0x0 KECCAK256 SLOAD EQ PUSH2 0x277A JUMPI PUSH1 0x40 MLOAD PUSH32 0x8C379A000000000000000000000000000000000000000000000000000000000 DUP2 MSTORE PUSH1 0x4 ADD PUSH2 0x2771 SWAP1 PUSH2 0x37C4 JUMP JUMPDEST PUSH1 0x40 MLOAD DUP1 SWAP2 SUB SWAP1 REVERT JUMPDEST CALLER PUSH20 0xFFFFFFFFFFFFFFFFFFFFFFFFFFFFFFFFFFFFFFFF AND PUSH1 0x7 PUSH1 0x0 DUP5 DUP2 MSTORE PUSH1 0x20 ADD SWAP1 DUP2 MSTORE PUSH1 0x20 ADD PUSH1 0x0 KECCAK256 PUSH1 0x0 SWAP1 SLOAD SWAP1 PUSH2 0x100 EXP SWAP1 DIV PUSH20 0xFFFFFFFFFFFFFFFFFFFFFFFFFFFFFFFFFFFFFFFF AND PUSH20 0xFFFFFFFFFFFFFFFFFFFFFFFFFFFFFFFFFFFFFFFF AND EQ PUSH2 0x281B JUMPI PUSH1 0x40 MLOAD PUSH32 0x8C379A000000000000000000000000000000000000000000000000000000000 DUP2 MSTORE PUSH1 0x4 ADD PUSH2 0x2812 SWAP1 PUSH2 0x3D93 JUMP JUMPDEST PUSH1 0x40 MLOAD DUP1 SWAP2 SUB SWAP1 REVERT JUMPDEST DUP1 PUSH1 0x7 PUSH1 0x0 DUP5 DUP2 MSTORE PUSH1 0x20 ADD SWAP1 DUP2 MSTORE PUSH1 0x20 ADD PUSH1 0x0 KECCAK256 PUSH1 0x0 PUSH2 0x100 EXP DUP2 SLOAD DUP2 PUSH20 0xFFFFFFFFFFFFFFFFFFFFFFFFFFFFFFFFFFFFFFFF MUL NOT AND SWAP1 DUP4 PUSH20 0xFFFFFFFFFFFFFFFFFFFFFFFFFFFFFFFFFFFFFFFF AND MUL OR SWAP1 SSTORE POP PUSH1 0x1 PUSH1 0x9 PUSH1 0x0 DUP5 DUP2 MSTORE PUSH1 0x20 ADD SWAP1 DUP2 MSTORE PUSH1 0x20 ADD PUSH1 0x0 KECCAK256 PUSH1 0x0 PUSH2 0x100 EXP DUP2 SLOAD DUP2 PUSH1 0xFF MUL NOT AND SWAP1 DUP4 ISZERO ISZERO MUL OR SWAP1 SSTORE POP DUP2 DUP2 PUSH20 0xFFFFFFFFFFFFFFFFFFFFFFFFFFFFFFFFFFFFFFFF AND CALLER PUSH20 0xFFFFFFFFFFFFFFFFFFFFFFFFFFFFFFFFFFFFFFFF AND PUSH32 0x287AFF02AEDC4292951655912628C5F223B7F90E9258DD17D4064E0800954579 PUSH1 0x40 MLOAD PUSH1 0x40 MLOAD DUP1 SWAP2 SUB SWAP1 LOG4 POP POP JUMP JUMPDEST PUSH1 0x0 PUSH1 0x4 PUSH1 0x0 DUP4 PUSH20 0xFFFFFFFFFFFFFFFFFFFFFFFFFFFFFFFFFFFFFFFF AND PUSH20 0xFFFFFFFFFFFFFFFFFFFFFFFFFFFFFFFFFFFFFFFF AND DUP2 MSTORE PUSH1 0x20 ADD SWAP1 DUP2 MSTORE PUSH1 0x20 ADD PUSH1 0x0 KECCAK256 SLOAD SWAP1 POP SWAP2 SWAP1 POP JUMP JUMPDEST PUSH1 0x40 MLOAD DUP1 PUSH1 0x80 ADD PUSH1 0x40 MSTORE DUP1 PUSH1 0x60 DUP2 MSTORE PUSH1 0x20 ADD PUSH1 0x0 DUP2 MSTORE PUSH1 0x20 ADD PUSH1 0x60 DUP2 MSTORE PUSH1 0x20 ADD PUSH1 0x0 ISZERO ISZERO DUP2 MSTORE POP SWAP1 JUMP JUMPDEST PUSH1 0x0 DUP2 SWAP1 POP SWAP2 SWAP1 POP JUMP JUMPDEST PUSH2 0x297E DUP2 PUSH2 0x296B JUMP JUMPDEST DUP3 MSTORE POP POP JUMP JUMPDEST PUSH1 0x0 PUSH1 0x20 DUP3 ADD SWAP1 POP PUSH2 0x2999 PUSH1 0x0 DUP4 ADD DUP5 PUSH2 0x2975 JUMP JUMPDEST SWAP3 SWAP2 POP POP JUMP JUMPDEST PUSH1 0x0 DUP2 MLOAD SWAP1 POP SWAP2 SWAP1 POP JUMP JUMPDEST PUSH1 0x0 DUP3 DUP3 MSTORE PUSH1 0x20 DUP3 ADD SWAP1 POP SWAP3 SWAP2 POP POP JUMP JUMPDEST PUSH1 0x0 JUMPDEST DUP4 DUP2 LT ISZERO PUSH2 0x29D9 JUMPI DUP1 DUP3 ADD MLOAD DUP2 DUP5 ADD MSTORE PUSH1 0x20 DUP2 ADD SWAP1 POP PUSH2 0x29BE JUMP JUMPDEST PUSH1 0x0 DUP5 DUP5 ADD MSTORE POP POP POP POP JUMP JUMPDEST PUSH1 0x0 PUSH1 0x1F NOT PUSH1 0x1F DUP4 ADD AND SWAP1 POP SWAP2 SWAP1 POP JUMP JUMPDEST PUSH1 0x0 PUSH2 0x2A01 DUP3 PUSH2 0x299F JUMP JUMPDEST PUSH2 0x2A0B DUP2 DUP6 PUSH2 0x29AA JUMP JUMPDEST SWAP4 POP PUSH2 0x2A1B DUP2 DUP6 PUSH1 0x20 DUP7 ADD PUSH2 0x29BB JUMP JUMPDEST PUSH2 0x2A24 DUP2 PUSH2 0x29E5 JUMP JUMPDEST DUP5 ADD SWAP2 POP POP SWAP3 SWAP2 POP POP JUMP JUMPDEST PUSH1 0x0 PUSH1 0x20 DUP3 ADD SWAP1 POP DUP2 DUP2 SUB PUSH1 0x0 DUP4 ADD MSTORE PUSH2 0x2A49 DUP2 DUP5 PUSH2 0x29F6 JUMP JUMPDEST SWAP1 POP SWAP3 SWAP2 POP POP JUMP JUMPDEST PUSH1 0x0 PUSH1 0x40 MLOAD SWAP1 POP SWAP1 JUMP JUMPDEST PUSH1 0x0 DUP1 REVERT JUMPDEST PUSH1 0x0 DUP1 REVERT JUMPDEST PUSH2 0x2A6E DUP2 PUSH2 0x296B JUMP JUMPDEST DUP2 EQ PUSH2 0x2A79 JUMPI PUSH1 0x0 DUP1 REVERT JUMPDEST POP JUMP JUMPDEST PUSH1 0x0 DUP2 CALLDATALOAD SWAP1 POP PUSH2 0x2A8B DUP2 PUSH2 0x2A65 JUMP JUMPDEST SWAP3 SWAP2 POP POP JUMP JUMPDEST PUSH1 0x0 PUSH1 0x20 DUP3 DUP5 SUB SLT ISZERO PUSH2 0x2AA7 JUMPI PUSH2 0x2AA6 PUSH2 0x2A5B JUMP JUMPDEST JUMPDEST PUSH1 0x0 PUSH2 0x2AB5 DUP5 DUP3 DUP6 ADD PUSH2 0x2A7C JUMP JUMPDEST SWAP2 POP POP SWAP3 SWAP2 POP POP JUMP JUMPDEST PUSH1 0x0 DUP2 ISZERO ISZERO SWAP1 POP SWAP2 SWAP1 POP JUMP JUMPDEST PUSH2 0x2AD3 DUP2 PUSH2 0x2ABE JUMP JUMPDEST DUP3 MSTORE POP POP JUMP JUMPDEST PUSH1 0x0 PUSH1 0x20 DUP3 ADD SWAP1 POP PUSH2 0x2AEE PUSH1 0x0 DUP4 ADD DUP5 PUSH2 0x2ACA JUMP JUMPDEST SWAP3 SWAP2 POP POP JUMP JUMPDEST PUSH1 0x0 DUP3 DUP3 MSTORE PUSH1 0x20 DUP3 ADD SWAP1 POP SWAP3 SWAP2 POP POP JUMP JUMPDEST PUSH1 0x0 PUSH2 0x2B10 DUP3 PUSH2 0x299F JUMP JUMPDEST PUSH2 0x2B1A DUP2 DUP6 PUSH2 0x2AF4 JUMP JUMPDEST SWAP4 POP PUSH2 0x2B2A DUP2 DUP6 PUSH1 0x20 DUP7 ADD PUSH2 0x29BB JUMP JUMPDEST PUSH2 0x2B33 DUP2 PUSH2 0x29E5 JUMP JUMPDEST DUP5 ADD SWAP2 POP POP SWAP3 SWAP2 POP POP JUMP JUMPDEST PUSH2 0x2B47 DUP2 PUSH2 0x296B JUMP JUMPDEST DUP3 MSTORE POP POP JUMP JUMPDEST PUSH2 0x2B56 DUP2 PUSH2 0x2ABE JUMP JUMPDEST DUP3 MSTORE POP POP JUMP JUMPDEST PUSH1 0x0 PUSH1 0x80 DUP4 ADD PUSH1 0x0 DUP4 ADD MLOAD DUP5 DUP3 SUB PUSH1 0x0 DUP7 ADD MSTORE PUSH2 0x2B79 DUP3 DUP3 PUSH2 0x2B05 JUMP JUMPDEST SWAP2 POP POP PUSH1 0x20 DUP4 ADD MLOAD PUSH2 0x2B8E PUSH1 0x20 DUP7 ADD DUP3 PUSH2 0x2B3E JUMP JUMPDEST POP PUSH1 0x40 DUP4 ADD MLOAD DUP5 DUP3 SUB PUSH1 0x40 DUP7 ADD MSTORE PUSH2 0x2BA6 DUP3 DUP3 PUSH2 0x2B05 JUMP JUMPDEST SWAP2 POP POP PUSH1 0x60 DUP4 ADD MLOAD PUSH2 0x2BBB PUSH1 0x60 DUP7 ADD DUP3 PUSH2 0x2B4D JUMP JUMPDEST POP DUP1 SWAP2 POP POP SWAP3 SWAP2 POP POP JUMP JUMPDEST PUSH1 0x0 PUSH1 0x20 DUP3 ADD SWAP1 POP DUP2 DUP2 SUB PUSH1 0x0 DUP4 ADD MSTORE PUSH2 0x2BE0 DUP2 DUP5 PUSH2 0x2B5C JUMP JUMPDEST SWAP1 POP SWAP3 SWAP2 POP POP JUMP JUMPDEST PUSH1 0x0 PUSH20 0xFFFFFFFFFFFFFFFFFFFFFFFFFFFFFFFFFFFFFFFF DUP3 AND SWAP1 POP SWAP2 SWAP1 POP JUMP JUMPDEST PUSH1 0x0 PUSH2 0x2C13 DUP3 PUSH2 0x2BE8 JUMP JUMPDEST SWAP1 POP SWAP2 SWAP1 POP JUMP JUMPDEST PUSH2 0x2C23 DUP2 PUSH2 0x2C08 JUMP JUMPDEST DUP3 MSTORE POP POP JUMP JUMPDEST PUSH1 0x0 PUSH1 0x20 DUP3 ADD SWAP1 POP PUSH2 0x2C3E PUSH1 0x0 DUP4 ADD DUP5 PUSH2 0x2C1A JUMP JUMPDEST SWAP3 SWAP2 POP POP JUMP JUMPDEST PUSH2 0x2C4D DUP2 PUSH2 0x2C08 JUMP JUMPDEST DUP2 EQ PUSH2 0x2C58 JUMPI PUSH1 0x0 DUP1 REVERT JUMPDEST POP JUMP JUMPDEST PUSH1 0x0 DUP2 CALLDATALOAD SWAP1 POP PUSH2 0x2C6A DUP2 PUSH2 0x2C44 JUMP JUMPDEST SWAP3 SWAP2 POP POP JUMP JUMPDEST PUSH1 0x0 PUSH1 0x20 DUP3 DUP5 SUB SLT ISZERO PUSH2 0x2C86 JUMPI PUSH2 0x2C85 PUSH2 0x2A5B JUMP JUMPDEST JUMPDEST PUSH1 0x0 PUSH2 0x2C94 DUP5 DUP3 DUP6 ADD PUSH2 0x2C5B JUMP JUMPDEST SWAP2 POP POP SWAP3 SWAP2 POP POP JUMP JUMPDEST PUSH1 0x0 PUSH1 0xFF DUP3 AND SWAP1 POP SWAP2 SWAP1 POP JUMP JUMPDEST PUSH2 0x2CB3 DUP2 PUSH2 0x2C9D JUMP JUMPDEST DUP3 MSTORE POP POP JUMP JUMPDEST PUSH1 0x0 PUSH1 0x20 DUP3 ADD SWAP1 POP PUSH2 0x2CCE PUSH1 0x0 DUP4 ADD DUP5 PUSH2 0x2CAA JUMP JUMPDEST SWAP3 SWAP2 POP POP JUMP JUMPDEST PUSH1 0x0 DUP1 PUSH1 0x40 DUP4 DUP6 SUB SLT ISZERO PUSH2 0x2CEB JUMPI PUSH2 0x2CEA PUSH2 0x2A5B JUMP JUMPDEST JUMPDEST PUSH1 0x0 PUSH2 0x2CF9 DUP6 DUP3 DUP7 ADD PUSH2 0x2C5B JUMP JUMPDEST SWAP3 POP POP PUSH1 0x20 PUSH2 0x2D0A DUP6 DUP3 DUP7 ADD PUSH2 0x2A7C JUMP JUMPDEST SWAP2 POP POP SWAP3 POP SWAP3 SWAP1 POP JUMP JUMPDEST PUSH1 0x0 DUP1 REVERT JUMPDEST PUSH1 0x0 DUP1 REVERT JUMPDEST PUSH32 0x4E487B7100000000000000000000000000000000000000000000000000000000 PUSH1 0x0 MSTORE PUSH1 0x41 PUSH1 0x4 MSTORE PUSH1 0x24 PUSH1 0x0 REVERT JUMPDEST PUSH2 0x2D56 DUP3 PUSH2 0x29E5 JUMP JUMPDEST DUP2 ADD DUP2 DUP2 LT PUSH8 0xFFFFFFFFFFFFFFFF DUP3 GT OR ISZERO PUSH2 0x2D75 JUMPI PUSH2 0x2D74 PUSH2 0x2D1E JUMP JUMPDEST JUMPDEST DUP1 PUSH1 0x40 MSTORE POP POP POP JUMP JUMPDEST PUSH1 0x0 PUSH2 0x2D88 PUSH2 0x2A51 JUMP JUMPDEST SWAP1 POP PUSH2 0x2D94 DUP3 DUP3 PUSH2 0x2D4D JUMP JUMPDEST SWAP2 SWAP1 POP JUMP JUMPDEST PUSH1 0x0 PUSH8 0xFFFFFFFFFFFFFFFF DUP3 GT ISZERO PUSH2 0x2DB4 JUMPI PUSH2 0x2DB3 PUSH2 0x2D1E JUMP JUMPDEST JUMPDEST PUSH2 0x2DBD DUP3 PUSH2 0x29E5 JUMP JUMPDEST SWAP1 POP PUSH1 0x20 DUP2 ADD SWAP1 POP SWAP2 SWAP1 POP JUMP JUMPDEST DUP3 DUP2 DUP4 CALLDATACOPY PUSH1 0x0 DUP4 DUP4 ADD MSTORE POP POP POP JUMP JUMPDEST PUSH1 0x0 PUSH2 0x2DEC PUSH2 0x2DE7 DUP5 PUSH2 0x2D99 JUMP JUMPDEST PUSH2 0x2D7E JUMP JUMPDEST SWAP1 POP DUP3 DUP2 MSTORE PUSH1 0x20 DUP2 ADD DUP5 DUP5 DUP5 ADD GT ISZERO PUSH2 0x2E08 JUMPI PUSH2 0x2E07 PUSH2 0x2D19 JUMP JUMPDEST JUMPDEST PUSH2 0x2E13 DUP5 DUP3 DUP6 PUSH2 0x2DCA JUMP JUMPDEST POP SWAP4 SWAP3 POP POP POP JUMP JUMPDEST PUSH1 0x0 DUP3 PUSH1 0x1F DUP4 ADD SLT PUSH2 0x2E30 JUMPI PUSH2 0x2E2F PUSH2 0x2D14 JUMP JUMPDEST JUMPDEST DUP2 CALLDATALOAD PUSH2 0x2E40 DUP5 DUP3 PUSH1 0x20 DUP7 ADD PUSH2 0x2DD9 JUMP JUMPDEST SWAP2 POP POP SWAP3 SWAP2 POP POP JUMP JUMPDEST PUSH1 0x0 DUP1 PUSH1 0x40 DUP4 DUP6 SUB SLT ISZERO PUSH2 0x2E60 JUMPI PUSH2 0x2E5F PUSH2 0x2A5B JUMP JUMPDEST JUMPDEST PUSH1 0x0 PUSH2 0x2E6E DUP6 DUP3 DUP7 ADD PUSH2 0x2A7C JUMP JUMPDEST SWAP3 POP POP PUSH1 0x20 DUP4 ADD CALLDATALOAD PUSH8 0xFFFFFFFFFFFFFFFF DUP2 GT ISZERO PUSH2 0x2E8F JUMPI PUSH2 0x2E8E PUSH2 0x2A60 JUMP JUMPDEST JUMPDEST PUSH2 0x2E9B DUP6 DUP3 DUP7 ADD PUSH2 0x2E1B JUMP JUMPDEST SWAP2 POP POP SWAP3 POP SWAP3 SWAP1 POP JUMP JUMPDEST PUSH1 0x0 DUP1 PUSH1 0x0 DUP1 PUSH1 0x80 DUP6 DUP8 SUB SLT ISZERO PUSH2 0x2EBF JUMPI PUSH2 0x2EBE PUSH2 0x2A5B JUMP JUMPDEST JUMPDEST PUSH1 0x0 PUSH2 0x2ECD DUP8 DUP3 DUP9 ADD PUSH2 0x2A7C JUMP JUMPDEST SWAP5 POP POP PUSH1 0x20 DUP6 ADD CALLDATALOAD PUSH8 0xFFFFFFFFFFFFFFFF DUP2 GT ISZERO PUSH2 0x2EEE JUMPI PUSH2 0x2EED PUSH2 0x2A60 JUMP JUMPDEST JUMPDEST PUSH2 0x2EFA DUP8 DUP3 DUP9 ADD PUSH2 0x2E1B JUMP JUMPDEST SWAP4 POP POP PUSH1 0x40 PUSH2 0x2F0B DUP8 DUP3 DUP9 ADD PUSH2 0x2A7C JUMP JUMPDEST SWAP3 POP POP PUSH1 0x60 DUP6 ADD CALLDATALOAD PUSH8 0xFFFFFFFFFFFFFFFF DUP2 GT ISZERO PUSH2 0x2F2C JUMPI PUSH2 0x2F2B PUSH2 0x2A60 JUMP JUMPDEST JUMPDEST PUSH2 0x2F38 DUP8 DUP3 DUP9 ADD PUSH2 0x2E1B JUMP JUMPDEST SWAP2 POP POP SWAP3 SWAP6 SWAP2 SWAP5 POP SWAP3 POP JUMP JUMPDEST PUSH1 0x0 DUP1 PUSH1 0x40 DUP4 DUP6 SUB SLT ISZERO PUSH2 0x2F5B JUMPI PUSH2 0x2F5A PUSH2 0x2A5B JUMP JUMPDEST JUMPDEST PUSH1 0x0 PUSH2 0x2F69 DUP6 DUP3 DUP7 ADD PUSH2 0x2A7C JUMP JUMPDEST SWAP3 POP POP PUSH1 0x20 PUSH2 0x2F7A DUP6 DUP3 DUP7 ADD PUSH2 0x2C5B JUMP JUMPDEST SWAP2 POP POP SWAP3 POP SWAP3 SWAP1 POP JUMP JUMPDEST PUSH1 0x0 DUP1 PUSH1 0x40 DUP4 DUP6 SUB SLT ISZERO PUSH2 0x2F9B JUMPI PUSH2 0x2F9A PUSH2 0x2A5B JUMP JUMPDEST JUMPDEST PUSH1 0x0 PUSH2 0x2FA9 DUP6 DUP3 DUP7 ADD PUSH2 0x2A7C JUMP JUMPDEST SWAP3 POP POP PUSH1 0x20 PUSH2 0x2FBA DUP6 DUP3 DUP7 ADD PUSH2 0x2A7C JUMP JUMPDEST SWAP2 POP POP SWAP3 POP SWAP3 SWAP1 POP JUMP JUMPDEST PUSH32 0x4E487B7100000000000000000000000000000000000000000000000000000000 PUSH1 0x0 MSTORE PUSH1 0x22 PUSH1 0x4 MSTORE PUSH1 0x24 PUSH1 0x0 REVERT JUMPDEST PUSH1 0x0 PUSH1 0x2 DUP3 DIV SWAP1 POP PUSH1 0x1 DUP3 AND DUP1 PUSH2 0x300B JUMPI PUSH1 0x7F DUP3 AND SWAP2 POP JUMPDEST PUSH1 0x20 DUP3 LT DUP2 SUB PUSH2 0x301E JUMPI PUSH2 0x301D PUSH2 0x2FC4 JUMP JUMPDEST JUMPDEST POP SWAP2 SWAP1 POP JUMP JUMPDEST PUSH32 0x416363657373207265737472696374656420746F204F776E65722C2043617265 PUSH1 0x0 DUP3 ADD MSTORE PUSH32 0x722C206F72205368656C74657200000000000000000000000000000000000000 PUSH1 0x20 DUP3 ADD MSTORE POP JUMP JUMPDEST PUSH1 0x0 PUSH2 0x3080 PUSH1 0x2D DUP4 PUSH2 0x29AA JUMP JUMPDEST SWAP2 POP PUSH2 0x308B DUP3 PUSH2 0x3024 JUMP JUMPDEST PUSH1 0x40 DUP3 ADD SWAP1 POP SWAP2 SWAP1 POP JUMP JUMPDEST PUSH1 0x0 PUSH1 0x20 DUP3 ADD SWAP1 POP DUP2 DUP2 SUB PUSH1 0x0 DUP4 ADD MSTORE PUSH2 0x30AF DUP2 PUSH2 0x3073 JUMP JUMPDEST SWAP1 POP SWAP2 SWAP1 POP JUMP JUMPDEST PUSH32 0x506574207265636F726420646F6573206E6F7420657869737400000000000000 PUSH1 0x0 DUP3 ADD MSTORE POP JUMP JUMPDEST PUSH1 0x0 PUSH2 0x30EC PUSH1 0x19 DUP4 PUSH2 0x29AA JUMP JUMPDEST SWAP2 POP PUSH2 0x30F7 DUP3 PUSH2 0x30B6 JUMP JUMPDEST PUSH1 0x20 DUP3 ADD SWAP1 POP SWAP2 SWAP1 POP JUMP JUMPDEST PUSH1 0x0 PUSH1 0x20 DUP3 ADD SWAP1 POP DUP2 DUP2 SUB PUSH1 0x0 DUP4 ADD MSTORE PUSH2 0x311B DUP2 PUSH2 0x30DF JUMP JUMPDEST SWAP1 POP SWAP2 SWAP1 POP JUMP JUMPDEST PUSH32 0x4F6E6C792063726561746F722063616E2075736520746869732066756E637469 PUSH1 0x0 DUP3 ADD MSTORE PUSH32 0x6F6E000000000000000000000000000000000000000000000000000000000000 PUSH1 0x20 DUP3 ADD MSTORE POP JUMP JUMPDEST PUSH1 0x0 PUSH2 0x317E PUSH1 0x22 DUP4 PUSH2 0x29AA JUMP JUMPDEST SWAP2 POP PUSH2 0x3189 DUP3 PUSH2 0x3122 JUMP JUMPDEST PUSH1 0x40 DUP3 ADD SWAP1 POP SWAP2 SWAP1 POP JUMP JUMPDEST PUSH1 0x0 PUSH1 0x20 DUP3 ADD SWAP1 POP DUP2 DUP2 SUB PUSH1 0x0 DUP4 ADD MSTORE PUSH2 0x31AD DUP2 PUSH2 0x3171 JUMP JUMPDEST SWAP1 POP SWAP2 SWAP1 POP JUMP JUMPDEST PUSH32 0x496E76616C696420726F6C650000000000000000000000000000000000000000 PUSH1 0x0 DUP3 ADD MSTORE POP JUMP JUMPDEST PUSH1 0x0 PUSH2 0x31EA PUSH1 0xC DUP4 PUSH2 0x29AA JUMP JUMPDEST SWAP2 POP PUSH2 0x31F5 DUP3 PUSH2 0x31B4 JUMP JUMPDEST PUSH1 0x20 DUP3 ADD SWAP1 POP SWAP2 SWAP1 POP JUMP JUMPDEST PUSH1 0x0 PUSH1 0x20 DUP3 ADD SWAP1 POP DUP2 DUP2 SUB PUSH1 0x0 DUP4 ADD MSTORE PUSH2 0x3219 DUP2 PUSH2 0x31DD JUMP JUMPDEST SWAP1 POP SWAP2 SWAP1 POP JUMP JUMPDEST PUSH32 0x4F6E6C7920746865206F776E65722063616E206D61726B206120706574206173 PUSH1 0x0 DUP3 ADD MSTORE PUSH32 0x20666F756E640000000000000000000000000000000000000000000000000000 PUSH1 0x20 DUP3 ADD MSTORE POP JUMP JUMPDEST PUSH1 0x0 PUSH2 0x327C PUSH1 0x26 DUP4 PUSH2 0x29AA JUMP JUMPDEST SWAP2 POP PUSH2 0x3287 DUP3 PUSH2 0x3220 JUMP JUMPDEST PUSH1 0x40 DUP3 ADD SWAP1 POP SWAP2 SWAP1 POP JUMP JUMPDEST PUSH1 0x0 PUSH1 0x20 DUP3 ADD SWAP1 POP DUP2 DUP2 SUB PUSH1 0x0 DUP4 ADD MSTORE PUSH2 0x32AB DUP2 PUSH2 0x326F JUMP JUMPDEST SWAP1 POP SWAP2 SWAP1 POP JUMP JUMPDEST PUSH1 0x0 DUP2 SWAP1 POP DUP2 PUSH1 0x0 MSTORE PUSH1 0x20 PUSH1 0x0 KECCAK256 SWAP1 POP SWAP2 SWAP1 POP JUMP JUMPDEST PUSH1 0x0 PUSH1 0x20 PUSH1 0x1F DUP4 ADD DIV SWAP1 POP SWAP2 SWAP1 POP JUMP JUMPDEST PUSH1 0x0 DUP3 DUP3 SHL SWAP1 POP SWAP3 SWAP2 POP POP JUMP JUMPDEST PUSH1 0x0 PUSH1 0x8 DUP4 MUL PUSH2 0x3314 PUSH32 0xFFFFFFFFFFFFFFFFFFFFFFFFFFFFFFFFFFFFFFFFFFFFFFFFFFFFFFFFFFFFFFFF DUP3 PUSH2 0x32D7 JUMP JUMPDEST PUSH2 0x331E DUP7 DUP4 PUSH2 0x32D7 JUMP JUMPDEST SWAP6 POP DUP1 NOT DUP5 AND SWAP4 POP DUP1 DUP7 AND DUP5 OR SWAP3 POP POP POP SWAP4 SWAP3 POP POP POP JUMP JUMPDEST PUSH1 0x0 DUP2 SWAP1 POP SWAP2 SWAP1 POP JUMP JUMPDEST PUSH1 0x0 PUSH2 0x335B PUSH2 0x3356 PUSH2 0x3351 DUP5 PUSH2 0x296B JUMP JUMPDEST PUSH2 0x3336 JUMP JUMPDEST PUSH2 0x296B JUMP JUMPDEST SWAP1 POP SWAP2 SWAP1 POP JUMP JUMPDEST PUSH1 0x0 DUP2 SWAP1 POP SWAP2 SWAP1 POP JUMP JUMPDEST PUSH2 0x3375 DUP4 PUSH2 0x3340 JUMP JUMPDEST PUSH2 0x3389 PUSH2 0x3381 DUP3 PUSH2 0x3362 JUMP JUMPDEST DUP5 DUP5 SLOAD PUSH2 0x32E4 JUMP JUMPDEST DUP3 SSTORE POP POP POP POP JUMP JUMPDEST PUSH1 0x0 SWAP1 JUMP JUMPDEST PUSH2 0x339E PUSH2 0x3391 JUMP JUMPDEST PUSH2 0x33A9 DUP2 DUP5 DUP5 PUSH2 0x336C JUMP JUMPDEST POP POP POP JUMP JUMPDEST JUMPDEST DUP2 DUP2 LT ISZERO PUSH2 0x33CD JUMPI PUSH2 0x33C2 PUSH1 0x0 DUP3 PUSH2 0x3396 JUMP JUMPDEST PUSH1 0x1 DUP2 ADD SWAP1 POP PUSH2 0x33AF JUMP JUMPDEST POP POP JUMP JUMPDEST PUSH1 0x1F DUP3 GT ISZERO PUSH2 0x3412 JUMPI PUSH2 0x33E3 DUP2 PUSH2 0x32B2 JUMP JUMPDEST PUSH2 0x33EC DUP5 PUSH2 0x32C7 JUMP JUMPDEST DUP2 ADD PUSH1 0x20 DUP6 LT ISZERO PUSH2 0x33FB JUMPI DUP2 SWAP1 POP JUMPDEST PUSH2 0x340F PUSH2 0x3407 DUP6 PUSH2 0x32C7 JUMP JUMPDEST DUP4 ADD DUP3 PUSH2 0x33AE JUMP JUMPDEST POP POP JUMPDEST POP POP POP JUMP JUMPDEST PUSH1 0x0 DUP3 DUP3 SHR SWAP1 POP SWAP3 SWAP2 POP POP JUMP JUMPDEST PUSH1 0x0 PUSH2 0x3435 PUSH1 0x0 NOT DUP5 PUSH1 0x8 MUL PUSH2 0x3417 JUMP JUMPDEST NOT DUP1 DUP4 AND SWAP2 POP POP SWAP3 SWAP2 POP POP JUMP JUMPDEST PUSH1 0x0 PUSH2 0x344E DUP4 DUP4 PUSH2 0x3424 JUMP JUMPDEST SWAP2 POP DUP3 PUSH1 0x2 MUL DUP3 OR SWAP1 POP SWAP3 SWAP2 POP POP JUMP JUMPDEST PUSH2 0x3467 DUP3 PUSH2 0x299F JUMP JUMPDEST PUSH8 0xFFFFFFFFFFFFFFFF DUP2 GT ISZERO PUSH2 0x3480 JUMPI PUSH2 0x347F PUSH2 0x2D1E JUMP JUMPDEST JUMPDEST PUSH2 0x348A DUP3 SLOAD PUSH2 0x2FF3 JUMP JUMPDEST PUSH2 0x3495 DUP3 DUP3 DUP6 PUSH2 0x33D1 JUMP JUMPDEST PUSH1 0x0 PUSH1 0x20 SWAP1 POP PUSH1 0x1F DUP4 GT PUSH1 0x1 DUP2 EQ PUSH2 0x34C8 JUMPI PUSH1 0x0 DUP5 ISZERO PUSH2 0x34B6 JUMPI DUP3 DUP8 ADD MLOAD SWAP1 POP JUMPDEST PUSH2 0x34C0 DUP6 DUP3 PUSH2 0x3442 JUMP JUMPDEST DUP7 SSTORE POP PUSH2 0x3528 JUMP JUMPDEST PUSH1 0x1F NOT DUP5 AND PUSH2 0x34D6 DUP7 PUSH2 0x32B2 JUMP JUMPDEST PUSH1 0x0 JUMPDEST DUP3 DUP2 LT ISZERO PUSH2 0x34FE JUMPI DUP5 DUP10 ADD MLOAD DUP3 SSTORE PUSH1 0x1 DUP3 ADD SWAP2 POP PUSH1 0x20 DUP6 ADD SWAP5 POP PUSH1 0x20 DUP2 ADD SWAP1 POP PUSH2 0x34D9 JUMP JUMPDEST DUP7 DUP4 LT ISZERO PUSH2 0x351B JUMPI DUP5 DUP10 ADD MLOAD PUSH2 0x3517 PUSH1 0x1F DUP10 AND DUP3 PUSH2 0x3424 JUMP JUMPDEST DUP4 SSTORE POP JUMPDEST PUSH1 0x1 PUSH1 0x2 DUP9 MUL ADD DUP9 SSTORE POP POP POP JUMPDEST POP POP POP POP POP POP JUMP JUMPDEST PUSH32 0x4F6E6C7920746865206F776E65722063616E206D61726B206120706574206173 PUSH1 0x0 DUP3 ADD MSTORE PUSH32 0x206C6F7374000000000000000000000000000000000000000000000000000000 PUSH1 0x20 DUP3 ADD MSTORE POP JUMP JUMPDEST PUSH1 0x0 PUSH2 0x358C PUSH1 0x25 DUP4 PUSH2 0x29AA JUMP JUMPDEST SWAP2 POP PUSH2 0x3597 DUP3 PUSH2 0x3530 JUMP JUMPDEST PUSH1 0x40 DUP3 ADD SWAP1 POP SWAP2 SWAP1 POP JUMP JUMPDEST PUSH1 0x0 PUSH1 0x20 DUP3 ADD SWAP1 POP DUP2 DUP2 SUB PUSH1 0x0 DUP4 ADD MSTORE PUSH2 0x35BB DUP2 PUSH2 0x357F JUMP JUMPDEST SWAP1 POP SWAP2 SWAP1 POP JUMP JUMPDEST PUSH32 0x506574206973206E6F74206C6F73740000000000000000000000000000000000 PUSH1 0x0 DUP3 ADD MSTORE POP JUMP JUMPDEST PUSH1 0x0 PUSH2 0x35F8 PUSH1 0xF DUP4 PUSH2 0x29AA JUMP JUMPDEST SWAP2 POP PUSH2 0x3603 DUP3 PUSH2 0x35C2 JUMP JUMPDEST PUSH1 0x20 DUP3 ADD SWAP1 POP SWAP2 SWAP1 POP JUMP JUMPDEST PUSH1 0x0 PUSH1 0x20 DUP3 ADD SWAP1 POP DUP2 DUP2 SUB PUSH1 0x0 DUP4 ADD MSTORE PUSH2 0x3627 DUP2 PUSH2 0x35EB JUMP JUMPDEST SWAP1 POP SWAP2 SWAP1 POP JUMP JUMPDEST PUSH32 0x4F6E6C7920566574206F72205368656C7465722063616E207573652074686973 PUSH1 0x0 DUP3 ADD MSTORE PUSH32 0x2066756E6374696F6E0000000000000000000000000000000000000000000000 PUSH1 0x20 DUP3 ADD MSTORE POP JUMP JUMPDEST PUSH1 0x0 PUSH2 0x368A PUSH1 0x29 DUP4 PUSH2 0x29AA JUMP JUMPDEST SWAP2 POP PUSH2 0x3695 DUP3 PUSH2 0x362E JUMP JUMPDEST PUSH1 0x40 DUP3 ADD SWAP1 POP SWAP2 SWAP1 POP JUMP JUMPDEST PUSH1 0x0 PUSH1 0x20 DUP3 ADD SWAP1 POP DUP2 DUP2 SUB PUSH1 0x0 DUP4 ADD MSTORE PUSH2 0x36B9 DUP2 PUSH2 0x367D JUMP JUMPDEST SWAP1 POP SWAP2 SWAP1 POP JUMP JUMPDEST PUSH32 0x4F6E6C7920746865206F776E65722063616E2072656769737465722061206361 PUSH1 0x0 DUP3 ADD MSTORE PUSH32 0x7265720000000000000000000000000000000000000000000000000000000000 PUSH1 0x20 DUP3 ADD MSTORE POP JUMP JUMPDEST PUSH1 0x0 PUSH2 0x371C PUSH1 0x23 DUP4 PUSH2 0x29AA JUMP JUMPDEST SWAP2 POP PUSH2 0x3727 DUP3 PUSH2 0x36C0 JUMP JUMPDEST PUSH1 0x40 DUP3 ADD SWAP1 POP SWAP2 SWAP1 POP JUMP JUMPDEST PUSH1 0x0 PUSH1 0x20 DUP3 ADD SWAP1 POP DUP2 DUP2 SUB PUSH1 0x0 DUP4 ADD MSTORE PUSH2 0x374B DUP2 PUSH2 0x370F JUMP JUMPDEST SWAP1 POP SWAP2 SWAP1 POP JUMP JUMPDEST PUSH32 0x4F6E6C79205368656C7465722063616E2075736520746869732066756E637469 PUSH1 0x0 DUP3 ADD MSTORE PUSH32 0x6F6E000000000000000000000000000000000000000000000000000000000000 PUSH1 0x20 DUP3 ADD MSTORE POP JUMP JUMPDEST PUSH1 0x0 PUSH2 0x37AE PUSH1 0x22 DUP4 PUSH2 0x29AA JUMP JUMPDEST SWAP2 POP PUSH2 0x37B9 DUP3 PUSH2 0x3752 JUMP JUMPDEST PUSH1 0x40 DUP3 ADD SWAP1 POP SWAP2 SWAP1 POP JUMP JUMPDEST PUSH1 0x0 PUSH1 0x20 DUP3 ADD SWAP1 POP DUP2 DUP2 SUB PUSH1 0x0 DUP4 ADD MSTORE PUSH2 0x37DD DUP2 PUSH2 0x37A1 JUMP JUMPDEST SWAP1 POP SWAP2 SWAP1 POP JUMP JUMPDEST PUSH32 0x4F6E6C7920746865206F776E65722063616E2064657265676973746572206120 PUSH1 0x0 DUP3 ADD MSTORE PUSH32 0x6361726572000000000000000000000000000000000000000000000000000000 PUSH1 0x20 DUP3 ADD MSTORE POP JUMP JUMPDEST PUSH1 0x0 PUSH2 0x3840 PUSH1 0x25 DUP4 PUSH2 0x29AA JUMP JUMPDEST SWAP2 POP PUSH2 0x384B DUP3 PUSH2 0x37E4 JUMP JUMPDEST PUSH1 0x40 DUP3 ADD SWAP1 POP SWAP2 SWAP1 POP JUMP JUMPDEST PUSH1 0x0 PUSH1 0x20 DUP3 ADD SWAP1 POP DUP2 DUP2 SUB PUSH1 0x0 DUP4 ADD MSTORE PUSH2 0x386F DUP2 PUSH2 0x3833 JUMP JUMPDEST SWAP1 POP SWAP2 SWAP1 POP JUMP JUMPDEST PUSH32 0x496E73756666696369656E742062616C616E636520746F206275726E00000000 PUSH1 0x0 DUP3 ADD MSTORE POP JUMP JUMPDEST PUSH1 0x0 PUSH2 0x38AC PUSH1 0x1C DUP4 PUSH2 0x29AA JUMP JUMPDEST SWAP2 POP PUSH2 0x38B7 DUP3 PUSH2 0x3876 JUMP JUMPDEST PUSH1 0x20 DUP3 ADD SWAP1 POP SWAP2 SWAP1 POP JUMP JUMPDEST PUSH1 0x0 PUSH1 0x20 DUP3 ADD SWAP1 POP DUP2 DUP2 SUB PUSH1 0x0 DUP4 ADD MSTORE PUSH2 0x38DB DUP2 PUSH2 0x389F JUMP JUMPDEST SWAP1 POP SWAP2 SWAP1 POP JUMP JUMPDEST PUSH32 0x4E487B7100000000000000000000000000000000000000000000000000000000 PUSH1 0x0 MSTORE PUSH1 0x11 PUSH1 0x4 MSTORE PUSH1 0x24 PUSH1 0x0 REVERT JUMPDEST PUSH1 0x0 PUSH2 0x391C DUP3 PUSH2 0x296B JUMP JUMPDEST SWAP2 POP PUSH2 0x3927 DUP4 PUSH2 0x296B JUMP JUMPDEST SWAP3 POP DUP3 DUP3 SUB SWAP1 POP DUP2 DUP2 GT ISZERO PUSH2 0x393F JUMPI PUSH2 0x393E PUSH2 0x38E2 JUMP JUMPDEST JUMPDEST SWAP3 SWAP2 POP POP JUMP JUMPDEST PUSH1 0x0 PUSH2 0x3950 DUP3 PUSH2 0x296B JUMP JUMPDEST SWAP2 POP PUSH2 0x395B DUP4 PUSH2 0x296B JUMP JUMPDEST SWAP3 POP DUP3 DUP3 ADD SWAP1 POP DUP1 DUP3 GT ISZERO PUSH2 0x3973 JUMPI PUSH2 0x3972 PUSH2 0x38E2 JUMP JUMPDEST JUMPDEST SWAP3 SWAP2 POP POP JUMP JUMPDEST PUSH32 0x496E73756666696369656E742062616C616E6365000000000000000000000000 PUSH1 0x0 DUP3 ADD MSTORE POP JUMP JUMPDEST PUSH1 0x0 PUSH2 0x39AF PUSH1 0x14 DUP4 PUSH2 0x29AA JUMP JUMPDEST SWAP2 POP PUSH2 0x39BA DUP3 PUSH2 0x3979 JUMP JUMPDEST PUSH1 0x20 DUP3 ADD SWAP1 POP SWAP2 SWAP1 POP JUMP JUMPDEST PUSH1 0x0 PUSH1 0x20 DUP3 ADD SWAP1 POP DUP2 DUP2 SUB PUSH1 0x0 DUP4 ADD MSTORE PUSH2 0x39DE DUP2 PUSH2 0x39A2 JUMP JUMPDEST SWAP1 POP SWAP2 SWAP1 POP JUMP JUMPDEST PUSH32 0x4F6E6C7920566574206F722053706F6E736F722063616E207573652074686973 PUSH1 0x0 DUP3 ADD MSTORE PUSH32 0x2066756E6374696F6E0000000000000000000000000000000000000000000000 PUSH1 0x20 DUP3 ADD MSTORE POP JUMP JUMPDEST PUSH1 0x0 PUSH2 0x3A41 PUSH1 0x29 DUP4 PUSH2 0x29AA JUMP JUMPDEST SWAP2 POP PUSH2 0x3A4C DUP3 PUSH2 0x39E5 JUMP JUMPDEST PUSH1 0x40 DUP3 ADD SWAP1 POP SWAP2 SWAP1 POP JUMP JUMPDEST PUSH1 0x0 PUSH1 0x20 DUP3 ADD SWAP1 POP DUP2 DUP2 SUB PUSH1 0x0 DUP4 ADD MSTORE PUSH2 0x3A70 DUP2 PUSH2 0x3A34 JUMP JUMPDEST SWAP1 POP SWAP2 SWAP1 POP JUMP JUMPDEST PUSH1 0x0 PUSH2 0x3A82 DUP3 PUSH2 0x296B JUMP JUMPDEST SWAP2 POP PUSH2 0x3A8D DUP4 PUSH2 0x296B JUMP JUMPDEST SWAP3 POP DUP3 DUP3 MUL PUSH2 0x3A9B DUP2 PUSH2 0x296B JUMP JUMPDEST SWAP2 POP DUP3 DUP3 DIV DUP5 EQ DUP4 ISZERO OR PUSH2 0x3AB2 JUMPI PUSH2 0x3AB1 PUSH2 0x38E2 JUMP JUMPDEST JUMPDEST POP SWAP3 SWAP2 POP POP JUMP JUMPDEST PUSH32 0x43616E6E6F74206368616E67652073797374656D206D616E6167657227732072 PUSH1 0x0 DUP3 ADD MSTORE PUSH32 0x6F6C650000000000000000000000000000000000000000000000000000000000 PUSH1 0x20 DUP3 ADD MSTORE POP JUMP JUMPDEST PUSH1 0x0 PUSH2 0x3B15 PUSH1 0x23 DUP4 PUSH2 0x29AA JUMP JUMPDEST SWAP2 POP PUSH2 0x3B20 DUP3 PUSH2 0x3AB9 JUMP JUMPDEST PUSH1 0x40 DUP3 ADD SWAP1 POP SWAP2 SWAP1 POP JUMP JUMPDEST PUSH1 0x0 PUSH1 0x20 DUP3 ADD SWAP1 POP DUP2 DUP2 SUB PUSH1 0x0 DUP4 ADD MSTORE PUSH2 0x3B44 DUP2 PUSH2 0x3B08 JUMP JUMPDEST SWAP1 POP SWAP2 SWAP1 POP JUMP JUMPDEST PUSH32 0x43616E6E6F74206368616E676520566574277320726F6C650000000000000000 PUSH1 0x0 DUP3 ADD MSTORE POP JUMP JUMPDEST PUSH1 0x0 PUSH2 0x3B81 PUSH1 0x18 DUP4 PUSH2 0x29AA JUMP JUMPDEST SWAP2 POP PUSH2 0x3B8C DUP3 PUSH2 0x3B4B JUMP JUMPDEST PUSH1 0x20 DUP3 ADD SWAP1 POP SWAP2 SWAP1 POP JUMP JUMPDEST PUSH1 0x0 PUSH1 0x20 DUP3 ADD SWAP1 POP DUP2 DUP2 SUB PUSH1 0x0 DUP4 ADD MSTORE PUSH2 0x3BB0 DUP2 PUSH2 0x3B74 JUMP JUMPDEST SWAP1 POP SWAP2 SWAP1 POP JUMP JUMPDEST PUSH32 0x43616E6E6F74206368616E67652053706F6E736F72277320726F6C6500000000 PUSH1 0x0 DUP3 ADD MSTORE POP JUMP JUMPDEST PUSH1 0x0 PUSH2 0x3BED PUSH1 0x1C DUP4 PUSH2 0x29AA JUMP JUMPDEST SWAP2 POP PUSH2 0x3BF8 DUP3 PUSH2 0x3BB7 JUMP JUMPDEST PUSH1 0x20 DUP3 ADD SWAP1 POP SWAP2 SWAP1 POP JUMP JUMPDEST PUSH1 0x0 PUSH1 0x20 DUP3 ADD SWAP1 POP DUP2 DUP2 SUB PUSH1 0x0 DUP4 ADD MSTORE PUSH2 0x3C1C DUP2 PUSH2 0x3BE0 JUMP JUMPDEST SWAP1 POP SWAP2 SWAP1 POP JUMP JUMPDEST PUSH32 0x50657420697320616C7265616479207265676973746572656400000000000000 PUSH1 0x0 DUP3 ADD MSTORE POP JUMP JUMPDEST PUSH1 0x0 PUSH2 0x3C59 PUSH1 0x19 DUP4 PUSH2 0x29AA JUMP JUMPDEST SWAP2 POP PUSH2 0x3C64 DUP3 PUSH2 0x3C23 JUMP JUMPDEST PUSH1 0x20 DUP3 ADD SWAP1 POP SWAP2 SWAP1 POP JUMP JUMPDEST PUSH1 0x0 PUSH1 0x20 DUP3 ADD SWAP1 POP DUP2 DUP2 SUB PUSH1 0x0 DUP4 ADD MSTORE PUSH2 0x3C88 DUP2 PUSH2 0x3C4C JUMP JUMPDEST SWAP1 POP SWAP2 SWAP1 POP JUMP JUMPDEST PUSH32 0x4F6E6C792053706F6E736F722053746F7265732063616E207573652074686973 PUSH1 0x0 DUP3 ADD MSTORE PUSH32 0x2066756E6374696F6E0000000000000000000000000000000000000000000000 PUSH1 0x20 DUP3 ADD MSTORE POP JUMP JUMPDEST PUSH1 0x0 PUSH2 0x3CEB PUSH1 0x29 DUP4 PUSH2 0x29AA JUMP JUMPDEST SWAP2 POP PUSH2 0x3CF6 DUP3 PUSH2 0x3C8F JUMP JUMPDEST PUSH1 0x40 DUP3 ADD SWAP1 POP SWAP2 SWAP1 POP JUMP JUMPDEST PUSH1 0x0 PUSH1 0x20 DUP3 ADD SWAP1 POP DUP2 DUP2 SUB PUSH1 0x0 DUP4 ADD MSTORE PUSH2 0x3D1A DUP2 PUSH2 0x3CDE JUMP JUMPDEST SWAP1 POP SWAP2 SWAP1 POP JUMP JUMPDEST PUSH32 0x4F6E6C7920746865206F776E65722063616E207472616E736665722074686520 PUSH1 0x0 DUP3 ADD MSTORE PUSH32 0x7065740000000000000000000000000000000000000000000000000000000000 PUSH1 0x20 DUP3 ADD MSTORE POP JUMP JUMPDEST PUSH1 0x0 PUSH2 0x3D7D PUSH1 0x23 DUP4 PUSH2 0x29AA JUMP JUMPDEST SWAP2 POP PUSH2 0x3D88 DUP3 PUSH2 0x3D21 JUMP JUMPDEST PUSH1 0x40 DUP3 ADD SWAP1 POP SWAP2 SWAP1 POP JUMP JUMPDEST PUSH1 0x0 PUSH1 0x20 DUP3 ADD SWAP1 POP DUP2 DUP2 SUB PUSH1 0x0 DUP4 ADD MSTORE PUSH2 0x3DAC DUP2 PUSH2 0x3D70 JUMP JUMPDEST SWAP1 POP SWAP2 SWAP1 POP JUMP INVALID LOG2 PUSH5 0x6970667358 0x22 SLT KECCAK256 0xCD 0xDB 0xE6 SELFDESTRUCT SHL 0xF 0xCA 0x25 PUSH1 0x7C PUSH11 0x2CBA7F6B994D0D840F0333 DUP7 DUP5 0xE5 SWAP16 PREVRANDAO PUSH29 0xEF6151864736F6C634300081C00330000000000000000000000000000 "},"methodIdentifiers":{"amendPetRecord(uint256,string,uint256,string)":"6074915d","approveAsOwner(address)":"c1551cd5","assignPermissionedRole(address,uint256)":"4b9e2787","balances(address)":"27e235e3","burn(address,uint256)":"9dc29fac","changeRewardLevel(uint256,uint256)":"7be6d0f6","decimals()":"313ce567","deregisterCarer(uint256,address)":"971629c1","findOwner(uint256)":"55f4b74d","foundPet(uint256)":"4c0edbbf","getBalance(address)":"f8b2cb4f","getOwner(uint256)":"c41a360a","getRewardLevel(uint256)":"d1f03514","giveReward(uint256,uint256)":"a95ff429","lostPet(uint256,string)":"559f7dc6","mint(uint256)":"a0712d68","name()":"06fdde03","petAdopted(uint256)":"1e41e568","petCarer(uint256)":"89c020a3","petLost(uint256)":"b83e433f","petLostPhoneNumber(uint256)":"178f474f","petOwner(uint256)":"26225abf","petRewardLevel(uint256)":"42e88c2e","registerCarer(uint256,address)":"60fd7ee6","registerPet(uint256,string,uint256,string)":"d7ed8c65","revokePermissionedRole(address)":"cdf47eec","roles(address)":"99374642","spendReward(address,uint256)":"ef1ae1a0","supply()":"047fc9aa","symbol()":"95d89b41","transfer(address,uint256)":"a9059cbb","transferPet(uint256,address)":"f4c7d765","viewPetRecord(uint256)":"2433fee1"}}}}}