{
  "_format": "hh-sol-artifact-1",
  "contractName": "FurCoin",
  "sourceName": "contracts/FurCoin.sol",
  "abi": [
    {
      "inputs": [],
      "stateMutability": "nonpayable",
      "type": "constructor"
    },
    {
      "anonymous": false,
      "inputs": [
        {
          "indexed": true,
          "internalType": "uint256",
          "name": "petId",
          "type": "uint256"
        },
        {
          "indexed": true,
          "internalType": "address",
          "name": "carer",
          "type": "address"
        }
      ],
      "name": "CarerDeregistered",
      "type": "event"
    },
    {
      "anonymous": false,
      "inputs": [
        {
          "indexed": true,
          "internalType": "uint256",
          "name": "petId",
          "type": "uint256"
        },
        {
          "indexed": true,
          "internalType": "address",
          "name": "carer",
          "type": "address"
        }
      ],
      "name": "CarerRegistered",
      "type": "event"
    },
    {
      "anonymous": false,
      "inputs": [
        {
          "indexed": true,
          "internalType": "address",
          "name": "_shelter",
          "type": "address"
        },
        {
          "indexed": true,
          "internalType": "address",
          "name": "_newOwner",
          "type": "address"
        }
      ],
      "name": "OwnerApproved",
      "type": "event"
    },
    {
      "anonymous": false,
      "inputs": [
        {
          "indexed": true,
          "internalType": "address",
          "name": "_from",
          "type": "address"
        },
        {
          "indexed": true,
          "internalType": "address",
          "name": "_to",
          "type": "address"
        },
        {
          "indexed": false,
          "internalType": "uint256",
          "name": "_role",
          "type": "uint256"
        }
      ],
      "name": "PermissionedRoleApproved",
      "type": "event"
    },
    {
      "anonymous": false,
      "inputs": [
        {
          "indexed": true,
          "internalType": "address",
          "name": "_from",
          "type": "address"
        },
        {
          "indexed": true,
          "internalType": "address",
          "name": "_to",
          "type": "address"
        },
        {
          "indexed": false,
          "internalType": "uint256",
          "name": "_role",
          "type": "uint256"
        }
      ],
      "name": "PermissionedRoleRevoked",
      "type": "event"
    },
    {
      "anonymous": false,
      "inputs": [
        {
          "indexed": true,
          "internalType": "address",
          "name": "_shelter",
          "type": "address"
        },
        {
          "indexed": true,
          "internalType": "address",
          "name": "_adopter",
          "type": "address"
        },
        {
          "indexed": true,
          "internalType": "uint256",
          "name": "_petId",
          "type": "uint256"
        }
      ],
      "name": "PetAdopted",
      "type": "event"
    },
    {
      "anonymous": false,
      "inputs": [
        {
          "indexed": true,
          "internalType": "uint256",
          "name": "_petId",
          "type": "uint256"
        }
      ],
      "name": "PetFound",
      "type": "event"
    },
    {
      "anonymous": false,
      "inputs": [
        {
          "indexed": true,
          "internalType": "uint256",
          "name": "_petId",
          "type": "uint256"
        }
      ],
      "name": "PetLost",
      "type": "event"
    },
    {
      "anonymous": false,
      "inputs": [
        {
          "indexed": true,
          "internalType": "address",
          "name": "_shelter",
          "type": "address"
        },
        {
          "indexed": true,
          "internalType": "uint256",
          "name": "_petId",
          "type": "uint256"
        }
      ],
      "name": "PetRegistered",
      "type": "event"
    },
    {
      "anonymous": false,
      "inputs": [
        {
          "indexed": true,
          "internalType": "address",
          "name": "_from",
          "type": "address"
        },
        {
          "indexed": true,
          "internalType": "address",
          "name": "_to",
          "type": "address"
        },
        {
          "indexed": false,
          "internalType": "uint256",
          "name": "_value",
          "type": "uint256"
        }
      ],
      "name": "TokenTransferred",
      "type": "event"
    },
    {
      "inputs": [
        {
          "internalType": "uint256",
          "name": "_petId",
          "type": "uint256"
        },
        {
          "internalType": "string",
          "name": "_name",
          "type": "string"
        },
        {
          "internalType": "uint256",
          "name": "_age",
          "type": "uint256"
        },
        {
          "internalType": "string",
          "name": "_medicalHistory",
          "type": "string"
        }
      ],
      "name": "amendPetRecord",
      "outputs": [],
      "stateMutability": "nonpayable",
      "type": "function"
    },
    {
      "inputs": [
        {
          "internalType": "address",
          "name": "_allowedOwner",
          "type": "address"
        }
      ],
      "name": "approveAsOwner",
      "outputs": [],
      "stateMutability": "nonpayable",
      "type": "function"
    },
    {
      "inputs": [
        {
          "internalType": "address",
          "name": "_address",
          "type": "address"
        },
        {
          "internalType": "uint256",
          "name": "_role",
          "type": "uint256"
        }
      ],
      "name": "assignPermissionedRole",
      "outputs": [],
      "stateMutability": "nonpayable",
      "type": "function"
    },
    {
      "inputs": [
        {
          "internalType": "address",
          "name": "",
          "type": "address"
        }
      ],
      "name": "balances",
      "outputs": [
        {
          "internalType": "uint256",
          "name": "",
          "type": "uint256"
        }
      ],
      "stateMutability": "view",
      "type": "function"
    },
    {
      "inputs": [
        {
          "internalType": "address",
          "name": "_from",
          "type": "address"
        },
        {
          "internalType": "uint256",
          "name": "_amount",
          "type": "uint256"
        }
      ],
      "name": "burn",
      "outputs": [],
      "stateMutability": "nonpayable",
      "type": "function"
    },
    {
      "inputs": [
        {
          "internalType": "uint256",
          "name": "_petId",
          "type": "uint256"
        },
        {
          "internalType": "uint256",
          "name": "_rewardLevel",
          "type": "uint256"
        }
      ],
      "name": "changeRewardLevel",
      "outputs": [],
      "stateMutability": "nonpayable",
      "type": "function"
    },
    {
      "inputs": [],
      "name": "decimals",
      "outputs": [
        {
          "internalType": "uint8",
          "name": "",
          "type": "uint8"
        }
      ],
      "stateMutability": "view",
      "type": "function"
    },
    {
      "inputs": [
        {
          "internalType": "uint256",
          "name": "_petId",
          "type": "uint256"
        },
        {
          "internalType": "address",
          "name": "_carer",
          "type": "address"
        }
      ],
      "name": "deregisterCarer",
      "outputs": [],
      "stateMutability": "nonpayable",
      "type": "function"
    },
    {
      "inputs": [
        {
          "internalType": "uint256",
          "name": "_petId",
          "type": "uint256"
        }
      ],
      "name": "findOwner",
      "outputs": [
        {
          "internalType": "address",
          "name": "",
          "type": "address"
        }
      ],
      "stateMutability": "view",
      "type": "function"
    },
    {
      "inputs": [
        {
          "internalType": "uint256",
          "name": "_petId",
          "type": "uint256"
        }
      ],
      "name": "foundPet",
      "outputs": [],
      "stateMutability": "nonpayable",
      "type": "function"
    },
    {
      "inputs": [
        {
          "internalType": "address",
          "name": "_address",
          "type": "address"
        }
      ],
      "name": "getBalance",
      "outputs": [
        {
          "internalType": "uint256",
          "name": "",
          "type": "uint256"
        }
      ],
      "stateMutability": "view",
      "type": "function"
    },
    {
      "inputs": [
        {
          "internalType": "uint256",
          "name": "_petId",
          "type": "uint256"
        }
      ],
      "name": "getOwner",
      "outputs": [
        {
          "internalType": "address",
          "name": "",
          "type": "address"
        }
      ],
      "stateMutability": "view",
      "type": "function"
    },
    {
      "inputs": [
        {
          "internalType": "uint256",
          "name": "_petId",
          "type": "uint256"
        }
      ],
      "name": "getRewardLevel",
      "outputs": [
        {
          "internalType": "uint256",
          "name": "",
          "type": "uint256"
        }
      ],
      "stateMutability": "view",
      "type": "function"
    },
    {
      "inputs": [
        {
          "internalType": "uint256",
          "name": "_petId",
          "type": "uint256"
        },
        {
          "internalType": "uint256",
          "name": "_value",
          "type": "uint256"
        }
      ],
      "name": "giveReward",
      "outputs": [],
      "stateMutability": "nonpayable",
      "type": "function"
    },
    {
      "inputs": [
        {
          "internalType": "uint256",
          "name": "_petId",
          "type": "uint256"
        },
        {
          "internalType": "string",
          "name": "_phonenumber",
          "type": "string"
        }
      ],
      "name": "lostPet",
      "outputs": [],
      "stateMutability": "nonpayable",
      "type": "function"
    },
    {
      "inputs": [
        {
          "internalType": "uint256",
          "name": "_amount",
          "type": "uint256"
        }
      ],
      "name": "mint",
      "outputs": [],
      "stateMutability": "nonpayable",
      "type": "function"
    },
    {
      "inputs": [],
      "name": "name",
      "outputs": [
        {
          "internalType": "string",
          "name": "",
          "type": "string"
        }
      ],
      "stateMutability": "view",
      "type": "function"
    },
    {
      "inputs": [
        {
          "internalType": "uint256",
          "name": "",
          "type": "uint256"
        }
      ],
      "name": "petAdopted",
      "outputs": [
        {
          "internalType": "bool",
          "name": "",
          "type": "bool"
        }
      ],
      "stateMutability": "view",
      "type": "function"
    },
    {
      "inputs": [
        {
          "internalType": "uint256",
          "name": "",
          "type": "uint256"
        }
      ],
      "name": "petCarer",
      "outputs": [
        {
          "internalType": "address",
          "name": "",
          "type": "address"
        }
      ],
      "stateMutability": "view",
      "type": "function"
    },
    {
      "inputs": [
        {
          "internalType": "uint256",
          "name": "",
          "type": "uint256"
        }
      ],
      "name": "petLost",
      "outputs": [
        {
          "internalType": "bool",
          "name": "",
          "type": "bool"
        }
      ],
      "stateMutability": "view",
      "type": "function"
    },
    {
      "inputs": [
        {
          "internalType": "uint256",
          "name": "",
          "type": "uint256"
        }
      ],
      "name": "petLostPhoneNumber",
      "outputs": [
        {
          "internalType": "string",
          "name": "",
          "type": "string"
        }
      ],
      "stateMutability": "view",
      "type": "function"
    },
    {
      "inputs": [
        {
          "internalType": "uint256",
          "name": "",
          "type": "uint256"
        }
      ],
      "name": "petOwner",
      "outputs": [
        {
          "internalType": "address",
          "name": "",
          "type": "address"
        }
      ],
      "stateMutability": "view",
      "type": "function"
    },
    {
      "inputs": [
        {
          "internalType": "uint256",
          "name": "",
          "type": "uint256"
        }
      ],
      "name": "petRewardLevel",
      "outputs": [
        {
          "internalType": "uint256",
          "name": "",
          "type": "uint256"
        }
      ],
      "stateMutability": "view",
      "type": "function"
    },
    {
      "inputs": [
        {
          "internalType": "uint256",
          "name": "_petId",
          "type": "uint256"
        },
        {
          "internalType": "address",
          "name": "_carer",
          "type": "address"
        }
      ],
      "name": "registerCarer",
      "outputs": [],
      "stateMutability": "nonpayable",
      "type": "function"
    },
    {
      "inputs": [
        {
          "internalType": "uint256",
          "name": "_petId",
          "type": "uint256"
        },
        {
          "internalType": "string",
          "name": "_name",
          "type": "string"
        },
        {
          "internalType": "uint256",
          "name": "_age",
          "type": "uint256"
        },
        {
          "internalType": "string",
          "name": "_medicalHistory",
          "type": "string"
        }
      ],
      "name": "registerPet",
      "outputs": [],
      "stateMutability": "nonpayable",
      "type": "function"
    },
    {
      "inputs": [
        {
          "internalType": "address",
          "name": "_address",
          "type": "address"
        }
      ],
      "name": "revokePermissionedRole",
      "outputs": [],
      "stateMutability": "nonpayable",
      "type": "function"
    },
    {
      "inputs": [
        {
          "internalType": "address",
          "name": "",
          "type": "address"
        }
      ],
      "name": "roles",
      "outputs": [
        {
          "internalType": "uint256",
          "name": "",
          "type": "uint256"
        }
      ],
      "stateMutability": "view",
      "type": "function"
    },
    {
      "inputs": [
        {
          "internalType": "address",
          "name": "_owner",
          "type": "address"
        },
        {
          "internalType": "uint256",
          "name": "_value",
          "type": "uint256"
        }
      ],
      "name": "spendReward",
      "outputs": [],
      "stateMutability": "nonpayable",
      "type": "function"
    },
    {
      "inputs": [],
      "name": "supply",
      "outputs": [
        {
          "internalType": "uint256",
          "name": "",
          "type": "uint256"
        }
      ],
      "stateMutability": "view",
      "type": "function"
    },
    {
      "inputs": [],
      "name": "symbol",
      "outputs": [
        {
          "internalType": "string",
          "name": "",
          "type": "string"
        }
      ],
      "stateMutability": "view",
      "type": "function"
    },
    {
      "inputs": [
        {
          "internalType": "address",
          "name": "_to",
          "type": "address"
        },
        {
          "internalType": "uint256",
          "name": "_value",
          "type": "uint256"
        }
      ],
      "name": "transfer",
      "outputs": [],
      "stateMutability": "nonpayable",
      "type": "function"
    },
    {
      "inputs": [
        {
          "internalType": "uint256",
          "name": "_petId",
          "type": "uint256"
        },
        {
          "internalType": "address",
          "name": "_newOwner",
          "type": "address"
        }
      ],
      "name": "transferPet",
      "outputs": [],
      "stateMutability": "nonpayable",
      "type": "function"
    },
    {
      "inputs": [
        {
          "internalType": "uint256",
          "name": "_petId",
          "type": "uint256"
        }
      ],
      "name": "viewPetRecord",
      "outputs": [
        {
          "components": [
            {
              "internalType": "string",
              "name": "name",
              "type": "string"
            },
            {
              "internalType": "uint256",
              "name": "age",
              "type": "uint256"
            },
            {
              "internalType": "string",
              "name": "medicalHistory",
              "type": "string"
            },
            {
              "internalType": "bool",
              "name": "exists",
              "type": "bool"
            }
          ],
          "internalType": "struct FurCoin.PetRecord",
          "name": "",
          "type": "tuple"
        }
      ],
      "stateMutability": "view",
      "type": "function"
    }
  ],
  "bytecode": "0x6080604052620f42406000556040518060400160405280600781526020017f467572436f696e000000000000000000000000000000000000000000000000008152506001908161004f919061039e565b506040518060400160405280600381526020017f465552000000000000000000000000000000000000000000000000000000000081525060029081610094919061039e565b506001600360006101000a81548160ff021916908360ff1602179055503480156100bd57600080fd5b50600054600460003373ffffffffffffffffffffffffffffffffffffffff1673ffffffffffffffffffffffffffffffffffffffff168152602001908152602001600020819055506000600560003373ffffffffffffffffffffffffffffffffffffffff1673ffffffffffffffffffffffffffffffffffffffff16815260200190815260200160002081905550610470565b600081519050919050565b7f4e487b7100000000000000000000000000000000000000000000000000000000600052604160045260246000fd5b7f4e487b7100000000000000000000000000000000000000000000000000000000600052602260045260246000fd5b600060028204905060018216806101cf57607f821691505b6020821081036101e2576101e1610188565b5b50919050565b60008190508160005260206000209050919050565b60006020601f8301049050919050565b600082821b905092915050565b60006008830261024a7fffffffffffffffffffffffffffffffffffffffffffffffffffffffffffffffff8261020d565b610254868361020d565b95508019841693508086168417925050509392505050565b6000819050919050565b6000819050919050565b600061029b6102966102918461026c565b610276565b61026c565b9050919050565b6000819050919050565b6102b583610280565b6102c96102c1826102a2565b84845461021a565b825550505050565b600090565b6102de6102d1565b6102e98184846102ac565b505050565b5b8181101561030d576103026000826102d6565b6001810190506102ef565b5050565b601f82111561035257610323816101e8565b61032c846101fd565b8101602085101561033b578190505b61034f610347856101fd565b8301826102ee565b50505b505050565b600082821c905092915050565b600061037560001984600802610357565b1980831691505092915050565b600061038e8383610364565b9150826002028217905092915050565b6103a78261014e565b67ffffffffffffffff8111156103c0576103bf610159565b5b6103ca82546101b7565b6103d5828285610311565b600060209050601f83116001811461040857600084156103f6578287015190505b6104008582610382565b865550610468565b601f198416610416866101e8565b60005b8281101561043e57848901518255600182019150602085019450602081019050610419565b8683101561045b5784890151610457601f891682610364565b8355505b6001600288020188555050505b505050505050565b613de98061047f6000396000f3fe608060405234801561001057600080fd5b50600436106101fb5760003560e01c806389c020a31161011a578063b83e433f116100ad578063d1f035141161007c578063d1f03514146105f4578063d7ed8c6514610624578063ef1ae1a014610640578063f4c7d7651461065c578063f8b2cb4f14610678576101fb565b8063b83e433f1461055c578063c1551cd51461058c578063c41a360a146105a8578063cdf47eec146105d8576101fb565b80639dc29fac116100e95780639dc29fac146104ec578063a0712d6814610508578063a9059cbb14610524578063a95ff42914610540576101fb565b806389c020a31461045257806395d89b4114610482578063971629c1146104a057806399374642146104bc576101fb565b806342e88c2e1161019257806355f4b74d1161016157806355f4b74d146103ce5780636074915d146103fe57806360fd7ee61461041a5780637be6d0f614610436576101fb565b806342e88c2e1461034a5780634b9e27871461037a5780634c0edbbf14610396578063559f7dc6146103b2576101fb565b80632433fee1116101ce5780632433fee11461029c57806326225abf146102cc57806327e235e3146102fc578063313ce5671461032c576101fb565b8063047fc9aa1461020057806306fdde031461021e578063178f474f1461023c5780631e41e5681461026c575b600080fd5b6102086106a8565b6040516102159190612984565b60405180910390f35b6102266106ae565b6040516102339190612a2f565b60405180910390f35b61025660048036038101906102519190612a91565b61073c565b6040516102639190612a2f565b60405180910390f35b61028660048036038101906102819190612a91565b6107dc565b6040516102939190612ad9565b60405180910390f35b6102b660048036038101906102b19190612a91565b6107fc565b6040516102c39190612bc6565b60405180910390f35b6102e660048036038101906102e19190612a91565b610b2b565b6040516102f39190612c29565b60405180910390f35b61031660048036038101906103119190612c70565b610b5e565b6040516103239190612984565b60405180910390f35b610334610b76565b6040516103419190612cb9565b60405180910390f35b610364600480360381019061035f9190612a91565b610b89565b6040516103719190612984565b60405180910390f35b610394600480360381019061038f9190612cd4565b610ba1565b005b6103b060048036038101906103ab9190612a91565b610d21565b005b6103cc60048036038101906103c79190612e49565b610e4e565b005b6103e860048036038101906103e39190612a91565b610f6d565b6040516103f59190612c29565b60405180910390f35b61041860048036038101906104139190612ea5565b611011565b005b610434600480360381019061042f9190612f44565b6111a9565b005b610450600480360381019061044b9190612f84565b6112e4565b005b61046c60048036038101906104679190612a91565b611382565b6040516104799190612c29565b60405180910390f35b61048a6113b5565b6040516104979190612a2f565b60405180910390f35b6104ba60048036038101906104b59190612f44565b611443565b005b6104d660048036038101906104d19190612c70565b61157f565b6040516104e39190612984565b60405180910390f35b61050660048036038101906105019190612cd4565b611597565b005b610522600480360381019061051d9190612a91565b611773565b005b61053e60048036038101906105399190612cd4565b6118cc565b005b61055a60048036038101906105559190612f84565b611a63565b005b61057660048036038101906105719190612a91565b611c96565b6040516105839190612ad9565b60405180910390f35b6105a660048036038101906105a19190612c70565b611cb6565b005b6105c260048036038101906105bd9190612a91565b611f60565b6040516105cf9190612c29565b60405180910390f35b6105f260048036038101906105ed9190612c70565b612069565b005b61060e60048036038101906106099190612a91565b6121dc565b60405161061b9190612984565b60405180910390f35b61063e60048036038101906106399190612ea5565b6122c5565b005b61065a60048036038101906106559190612cd4565b61251c565b005b61067660048036038101906106719190612f44565b6126f8565b005b610692600480360381019061068d9190612c70565b6128f8565b60405161069f9190612984565b60405180910390f35b60005481565b600180546106bb90612ff3565b80601f01602080910402602001604051908101604052809291908181526020018280546106e790612ff3565b80156107345780601f1061070957610100808354040283529160200191610734565b820191906000526020600020905b81548152906001019060200180831161071757829003601f168201915b505050505081565b600b602052806000526040600020600091509050805461075b90612ff3565b80601f016020809104026020016040519081016040528092919081815260200182805461078790612ff3565b80156107d45780601f106107a9576101008083540402835291602001916107d4565b820191906000526020600020905b8154815290600101906020018083116107b757829003601f168201915b505050505081565b60096020528060005260406000206000915054906101000a900460ff1681565b610804612941565b816007600082815260200190815260200160002060009054906101000a900473ffffffffffffffffffffffffffffffffffffffff1673ffffffffffffffffffffffffffffffffffffffff163373ffffffffffffffffffffffffffffffffffffffff1614806108d057506008600082815260200190815260200160002060009054906101000a900473ffffffffffffffffffffffffffffffffffffffff1673ffffffffffffffffffffffffffffffffffffffff163373ffffffffffffffffffffffffffffffffffffffff16145b8061091a57506003600560003373ffffffffffffffffffffffffffffffffffffffff1673ffffffffffffffffffffffffffffffffffffffff16815260200190815260200160002054145b610959576040517f08c379a000000000000000000000000000000000000000000000000000000000815260040161095090613096565b60405180910390fd5b600c600084815260200190815260200160002060030160009054906101000a900460ff166109bc576040517f08c379a00000000000000000000000000000000000000000000000000000000081526004016109b390613102565b60405180910390fd5b600c60008481526020019081526020016000206040518060800160405290816000820180546109ea90612ff3565b80601f0160208091040260200160405190810160405280929190818152602001828054610a1690612ff3565b8015610a635780601f10610a3857610100808354040283529160200191610a63565b820191906000526020600020905b815481529060010190602001808311610a4657829003601f168201915b5050505050815260200160018201548152602001600282018054610a8690612ff3565b80601f0160208091040260200160405190810160405280929190818152602001828054610ab290612ff3565b8015610aff5780601f10610ad457610100808354040283529160200191610aff565b820191906000526020600020905b815481529060010190602001808311610ae257829003601f168201915b505050505081526020016003820160009054906101000a900460ff161515151581525050915050919050565b60076020528060005260406000206000915054906101000a900473ffffffffffffffffffffffffffffffffffffffff1681565b60046020528060005260406000206000915090505481565b600360009054906101000a900460ff1681565b60066020528060005260406000206000915090505481565b6000600560003373ffffffffffffffffffffffffffffffffffffffff1673ffffffffffffffffffffffffffffffffffffffff1681526020019081526020016000205414610c23576040517f08c379a0000000000000000000000000000000000000000000000000000000008152600401610c1a90613194565b60405180910390fd5b60008110158015610c35575060058111155b610c74576040517f08c379a0000000000000000000000000000000000000000000000000000000008152600401610c6b90613200565b60405180910390fd5b80600560008473ffffffffffffffffffffffffffffffffffffffff1673ffffffffffffffffffffffffffffffffffffffff168152602001908152602001600020819055508173ffffffffffffffffffffffffffffffffffffffff163373ffffffffffffffffffffffffffffffffffffffff167f21be87bf0506bfa8b8ae2e59f15ed642e77ce15ff6d156d568362de39712786283604051610d159190612984565b60405180910390a35050565b3373ffffffffffffffffffffffffffffffffffffffff166007600083815260200190815260200160002060009054906101000a900473ffffffffffffffffffffffffffffffffffffffff1673ffffffffffffffffffffffffffffffffffffffff1614610dc2576040517f08c379a0000000000000000000000000000000000000000000000000000000008152600401610db990613292565b60405180910390fd5b6000600a600083815260200190815260200160002060006101000a81548160ff02191690831515021790555060405180602001604052806000815250600b60008381526020019081526020016000209081610e1d919061345e565b50807f0d5f889530c6afcef6130327d64aad3fb36a35091ca69c18f20600af82626f0960405160405180910390a250565b3373ffffffffffffffffffffffffffffffffffffffff166007600084815260200190815260200160002060009054906101000a900473ffffffffffffffffffffffffffffffffffffffff1673ffffffffffffffffffffffffffffffffffffffff1614610eef576040517f08c379a0000000000000000000000000000000000000000000000000000000008152600401610ee6906135a2565b60405180910390fd5b6001600a600084815260200190815260200160002060006101000a81548160ff02191690831515021790555080600b60008481526020019081526020016000209081610f3b919061345e565b50817f77dcf6c12cfb1e46af4eeea5ecf4d3fd431dcb6842b0db92e3a486a1d27c91af60405160405180910390a25050565b600060011515600a600084815260200190815260200160002060009054906101000a900460ff16151514610fd6576040517f08c379a0000000000000000000000000000000000000000000000000000000008152600401610fcd9061360e565b60405180910390fd5b6007600083815260200190815260200160002060009054906101000a900473ffffffffffffffffffffffffffffffffffffffff169050919050565b6001600560003373ffffffffffffffffffffffffffffffffffffffff1673ffffffffffffffffffffffffffffffffffffffff16815260200190815260200160002054148061109e57506003600560003373ffffffffffffffffffffffffffffffffffffffff1673ffffffffffffffffffffffffffffffffffffffff16815260200190815260200160002054145b6110dd576040517f08c379a00000000000000000000000000000000000000000000000000000000081526004016110d4906136a0565b60405180910390fd5b600c600085815260200190815260200160002060030160009054906101000a900460ff16611140576040517f08c379a000000000000000000000000000000000000000000000000000000000815260040161113790613102565b60405180910390fd5b82600c60008681526020019081526020016000206000019081611163919061345e565b5081600c60008681526020019081526020016000206001018190555080600c600086815260200190815260200160002060020190816111a2919061345e565b5050505050565b3373ffffffffffffffffffffffffffffffffffffffff166007600084815260200190815260200160002060009054906101000a900473ffffffffffffffffffffffffffffffffffffffff1673ffffffffffffffffffffffffffffffffffffffff161461124a576040517f08c379a000000000000000000000000000000000000000000000000000000000815260040161124190613732565b60405180910390fd5b806008600084815260200190815260200160002060006101000a81548173ffffffffffffffffffffffffffffffffffffffff021916908373ffffffffffffffffffffffffffffffffffffffff1602179055508073ffffffffffffffffffffffffffffffffffffffff16827f66d2f090dd74eff680d15784df74cbc139d151a95e986258da51dd9847ce037660405160405180910390a35050565b6003600560003373ffffffffffffffffffffffffffffffffffffffff1673ffffffffffffffffffffffffffffffffffffffff1681526020019081526020016000205414611366576040517f08c379a000000000000000000000000000000000000000000000000000000000815260040161135d906137c4565b60405180910390fd5b8060066000848152602001908152602001600020819055505050565b60086020528060005260406000206000915054906101000a900473ffffffffffffffffffffffffffffffffffffffff1681565b600280546113c290612ff3565b80601f01602080910402602001604051908101604052809291908181526020018280546113ee90612ff3565b801561143b5780601f106114105761010080835404028352916020019161143b565b820191906000526020600020905b81548152906001019060200180831161141e57829003601f168201915b505050505081565b3373ffffffffffffffffffffffffffffffffffffffff166007600084815260200190815260200160002060009054906101000a900473ffffffffffffffffffffffffffffffffffffffff1673ffffffffffffffffffffffffffffffffffffffff16146114e4576040517f08c379a00000000000000000000000000000000000000000000000000000000081526004016114db90613856565b60405180910390fd5b60006008600084815260200190815260200160002060006101000a81548173ffffffffffffffffffffffffffffffffffffffff021916908373ffffffffffffffffffffffffffffffffffffffff1602179055508073ffffffffffffffffffffffffffffffffffffffff16827f1fd2449bc9116b95ab065b7a530a4b1be6143a6d052b56ced3a914bbaa053b2860405160405180910390a35050565b60056020528060005260406000206000915090505481565b6000600560003373ffffffffffffffffffffffffffffffffffffffff1673ffffffffffffffffffffffffffffffffffffffff1681526020019081526020016000205414611619576040517f08c379a000000000000000000000000000000000000000000000000000000000815260040161161090613194565b60405180910390fd5b80600460008473ffffffffffffffffffffffffffffffffffffffff1673ffffffffffffffffffffffffffffffffffffffff16815260200190815260200160002054101561169b576040517f08c379a0000000000000000000000000000000000000000000000000000000008152600401611692906138c2565b60405180910390fd5b806000808282546116ac9190613911565b9250508190555080600460008473ffffffffffffffffffffffffffffffffffffffff1673ffffffffffffffffffffffffffffffffffffffff16815260200190815260200160002060008282546117029190613911565b92505081905550600073ffffffffffffffffffffffffffffffffffffffff168273ffffffffffffffffffffffffffffffffffffffff167f9c8515990fd8c61431c4ac8db9b81475f90c292a1dda77731e56c22e64fc7643836040516117679190612984565b60405180910390a35050565b6000600560003373ffffffffffffffffffffffffffffffffffffffff1673ffffffffffffffffffffffffffffffffffffffff16815260200190815260200160002054146117f5576040517f08c379a00000000000000000000000000000000000000000000000000000000081526004016117ec90613194565b60405180910390fd5b806000808282546118069190613945565b9250508190555080600460003373ffffffffffffffffffffffffffffffffffffffff1673ffffffffffffffffffffffffffffffffffffffff168152602001908152602001600020600082825461185c9190613945565b925050819055503373ffffffffffffffffffffffffffffffffffffffff16600073ffffffffffffffffffffffffffffffffffffffff167f9c8515990fd8c61431c4ac8db9b81475f90c292a1dda77731e56c22e64fc7643836040516118c19190612984565b60405180910390a350565b80600460003373ffffffffffffffffffffffffffffffffffffffff1673ffffffffffffffffffffffffffffffffffffffff16815260200190815260200160002054101561194e576040517f08c379a0000000000000000000000000000000000000000000000000000000008152600401611945906139c5565b60405180910390fd5b80600460003373ffffffffffffffffffffffffffffffffffffffff1673ffffffffffffffffffffffffffffffffffffffff168152602001908152602001600020600082825461199d9190613911565b9250508190555080600460008473ffffffffffffffffffffffffffffffffffffffff1673ffffffffffffffffffffffffffffffffffffffff16815260200190815260200160002060008282546119f39190613945565b925050819055508173ffffffffffffffffffffffffffffffffffffffff163373ffffffffffffffffffffffffffffffffffffffff167f9c8515990fd8c61431c4ac8db9b81475f90c292a1dda77731e56c22e64fc764383604051611a579190612984565b60405180910390a35050565b6001600560003373ffffffffffffffffffffffffffffffffffffffff1673ffffffffffffffffffffffffffffffffffffffff168152602001908152602001600020541480611af057506002600560003373ffffffffffffffffffffffffffffffffffffffff1673ffffffffffffffffffffffffffffffffffffffff16815260200190815260200160002054145b611b2f576040517f08c379a0000000000000000000000000000000000000000000000000000000008152600401611b2690613a57565b60405180910390fd5b60006006600084815260200190815260200160002054905060008183611b559190613a77565b905080600080828254611b689190613945565b9250508190555080600460006007600088815260200190815260200160002060009054906101000a900473ffffffffffffffffffffffffffffffffffffffff1673ffffffffffffffffffffffffffffffffffffffff1673ffffffffffffffffffffffffffffffffffffffff1681526020019081526020016000206000828254611bf19190613945565b925050819055506007600085815260200190815260200160002060009054906101000a900473ffffffffffffffffffffffffffffffffffffffff1673ffffffffffffffffffffffffffffffffffffffff163373ffffffffffffffffffffffffffffffffffffffff167f9c8515990fd8c61431c4ac8db9b81475f90c292a1dda77731e56c22e64fc764383604051611c889190612984565b60405180910390a350505050565b600a6020528060005260406000206000915054906101000a900460ff1681565b6003600560003373ffffffffffffffffffffffffffffffffffffffff1673ffffffffffffffffffffffffffffffffffffffff1681526020019081526020016000205414611d38576040517f08c379a0000000000000000000000000000000000000000000000000000000008152600401611d2f906137c4565b60405180910390fd5b6000600560008373ffffffffffffffffffffffffffffffffffffffff1673ffffffffffffffffffffffffffffffffffffffff1681526020019081526020016000205403611dba576040517f08c379a0000000000000000000000000000000000000000000000000000000008152600401611db190613b2b565b60405180910390fd5b6001600560008373ffffffffffffffffffffffffffffffffffffffff1673ffffffffffffffffffffffffffffffffffffffff1681526020019081526020016000205403611e3c576040517f08c379a0000000000000000000000000000000000000000000000000000000008152600401611e3390613b97565b60405180910390fd5b6002600560008373ffffffffffffffffffffffffffffffffffffffff1673ffffffffffffffffffffffffffffffffffffffff1681526020019081526020016000205403611ebe576040517f08c379a0000000000000000000000000000000000000000000000000000000008152600401611eb590613c03565b60405180910390fd5b6004600560008373ffffffffffffffffffffffffffffffffffffffff1673ffffffffffffffffffffffffffffffffffffffff168152602001908152602001600020819055508073ffffffffffffffffffffffffffffffffffffffff163373ffffffffffffffffffffffffffffffffffffffff167f16fb4635d0d4597c58a9b621d29f645114119e9e7364a0fd486ab3d747d91e3860405160405180910390a350565b60006001600560003373ffffffffffffffffffffffffffffffffffffffff1673ffffffffffffffffffffffffffffffffffffffff168152602001908152602001600020541480611fef57506003600560003373ffffffffffffffffffffffffffffffffffffffff1673ffffffffffffffffffffffffffffffffffffffff16815260200190815260200160002054145b61202e576040517f08c379a0000000000000000000000000000000000000000000000000000000008152600401612025906136a0565b60405180910390fd5b6007600083815260200190815260200160002060009054906101000a900473ffffffffffffffffffffffffffffffffffffffff169050919050565b6000600560003373ffffffffffffffffffffffffffffffffffffffff1673ffffffffffffffffffffffffffffffffffffffff16815260200190815260200160002054146120eb576040517f08c379a00000000000000000000000000000000000000000000000000000000081526004016120e290613194565b60405180910390fd5b6000600560008373ffffffffffffffffffffffffffffffffffffffff1673ffffffffffffffffffffffffffffffffffffffff16815260200190815260200160002054905060058060008473ffffffffffffffffffffffffffffffffffffffff1673ffffffffffffffffffffffffffffffffffffffff168152602001908152602001600020819055508173ffffffffffffffffffffffffffffffffffffffff163373ffffffffffffffffffffffffffffffffffffffff167f4f91def577908b239d8a5279a990b53c56a028b00c6fcfd2d46d031d95787faf836040516121d09190612984565b60405180910390a35050565b60006001600560003373ffffffffffffffffffffffffffffffffffffffff1673ffffffffffffffffffffffffffffffffffffffff16815260200190815260200160002054148061226b57506002600560003373ffffffffffffffffffffffffffffffffffffffff1673ffffffffffffffffffffffffffffffffffffffff16815260200190815260200160002054145b6122aa576040517f08c379a00000000000000000000000000000000000000000000000000000000081526004016122a190613a57565b60405180910390fd5b60066000838152602001908152602001600020549050919050565b6003600560003373ffffffffffffffffffffffffffffffffffffffff1673ffffffffffffffffffffffffffffffffffffffff1681526020019081526020016000205414612347576040517f08c379a000000000000000000000000000000000000000000000000000000000815260040161233e906137c4565b60405180910390fd5b600c600085815260200190815260200160002060030160009054906101000a900460ff16156123ab576040517f08c379a00000000000000000000000000000000000000000000000000000000081526004016123a290613c6f565b60405180910390fd5b336007600086815260200190815260200160002060006101000a81548173ffffffffffffffffffffffffffffffffffffffff021916908373ffffffffffffffffffffffffffffffffffffffff16021790555060006009600086815260200190815260200160002060006101000a81548160ff02191690831515021790555060016006600086815260200190815260200160002081905550604051806080016040528084815260200183815260200182815260200160011515815250600c6000868152602001908152602001600020600082015181600001908161248e919061345e565b506020820151816001015560408201518160020190816124ae919061345e565b5060608201518160030160006101000a81548160ff021916908315150217905550905050833373ffffffffffffffffffffffffffffffffffffffff167fddf5e3e69a97f234a15454d5271a1581d2a6273b21fafbd41705937f0f88dffe60405160405180910390a350505050565b6002600560003373ffffffffffffffffffffffffffffffffffffffff1673ffffffffffffffffffffffffffffffffffffffff168152602001908152602001600020541461259e576040517f08c379a000000000000000000000000000000000000000000000000000000000815260040161259590613d01565b60405180910390fd5b80600460008473ffffffffffffffffffffffffffffffffffffffff1673ffffffffffffffffffffffffffffffffffffffff168152602001908152602001600020541015612620576040517f08c379a0000000000000000000000000000000000000000000000000000000008152600401612617906139c5565b60405180910390fd5b806000808282546126319190613911565b9250508190555080600460008473ffffffffffffffffffffffffffffffffffffffff1673ffffffffffffffffffffffffffffffffffffffff16815260200190815260200160002060008282546126879190613911565b92505081905550600073ffffffffffffffffffffffffffffffffffffffff168273ffffffffffffffffffffffffffffffffffffffff167f9c8515990fd8c61431c4ac8db9b81475f90c292a1dda77731e56c22e64fc7643836040516126ec9190612984565b60405180910390a35050565b6003600560003373ffffffffffffffffffffffffffffffffffffffff1673ffffffffffffffffffffffffffffffffffffffff168152602001908152602001600020541461277a576040517f08c379a0000000000000000000000000000000000000000000000000000000008152600401612771906137c4565b60405180910390fd5b3373ffffffffffffffffffffffffffffffffffffffff166007600084815260200190815260200160002060009054906101000a900473ffffffffffffffffffffffffffffffffffffffff1673ffffffffffffffffffffffffffffffffffffffff161461281b576040517f08c379a000000000000000000000000000000000000000000000000000000000815260040161281290613d93565b60405180910390fd5b806007600084815260200190815260200160002060006101000a81548173ffffffffffffffffffffffffffffffffffffffff021916908373ffffffffffffffffffffffffffffffffffffffff16021790555060016009600084815260200190815260200160002060006101000a81548160ff021916908315150217905550818173ffffffffffffffffffffffffffffffffffffffff163373ffffffffffffffffffffffffffffffffffffffff167f287aff02aedc4292951655912628c5f223b7f90e9258dd17d4064e080095457960405160405180910390a45050565b6000600460008373ffffffffffffffffffffffffffffffffffffffff1673ffffffffffffffffffffffffffffffffffffffff168152602001908152602001600020549050919050565b60405180608001604052806060815260200160008152602001606081526020016000151581525090565b6000819050919050565b61297e8161296b565b82525050565b60006020820190506129996000830184612975565b92915050565b600081519050919050565b600082825260208201905092915050565b60005b838110156129d95780820151818401526020810190506129be565b60008484015250505050565b6000601f19601f8301169050919050565b6000612a018261299f565b612a0b81856129aa565b9350612a1b8185602086016129bb565b612a24816129e5565b840191505092915050565b60006020820190508181036000830152612a4981846129f6565b905092915050565b6000604051905090565b600080fd5b600080fd5b612a6e8161296b565b8114612a7957600080fd5b50565b600081359050612a8b81612a65565b92915050565b600060208284031215612aa757612aa6612a5b565b5b6000612ab584828501612a7c565b91505092915050565b60008115159050919050565b612ad381612abe565b82525050565b6000602082019050612aee6000830184612aca565b92915050565b600082825260208201905092915050565b6000612b108261299f565b612b1a8185612af4565b9350612b2a8185602086016129bb565b612b33816129e5565b840191505092915050565b612b478161296b565b82525050565b612b5681612abe565b82525050565b60006080830160008301518482036000860152612b798282612b05565b9150506020830151612b8e6020860182612b3e565b5060408301518482036040860152612ba68282612b05565b9150506060830151612bbb6060860182612b4d565b508091505092915050565b60006020820190508181036000830152612be08184612b5c565b905092915050565b600073ffffffffffffffffffffffffffffffffffffffff82169050919050565b6000612c1382612be8565b9050919050565b612c2381612c08565b82525050565b6000602082019050612c3e6000830184612c1a565b92915050565b612c4d81612c08565b8114612c5857600080fd5b50565b600081359050612c6a81612c44565b92915050565b600060208284031215612c8657612c85612a5b565b5b6000612c9484828501612c5b565b91505092915050565b600060ff82169050919050565b612cb381612c9d565b82525050565b6000602082019050612cce6000830184612caa565b92915050565b60008060408385031215612ceb57612cea612a5b565b5b6000612cf985828601612c5b565b9250506020612d0a85828601612a7c565b9150509250929050565b600080fd5b600080fd5b7f4e487b7100000000000000000000000000000000000000000000000000000000600052604160045260246000fd5b612d56826129e5565b810181811067ffffffffffffffff82111715612d7557612d74612d1e565b5b80604052505050565b6000612d88612a51565b9050612d948282612d4d565b919050565b600067ffffffffffffffff821115612db457612db3612d1e565b5b612dbd826129e5565b9050602081019050919050565b82818337600083830152505050565b6000612dec612de784612d99565b612d7e565b905082815260208101848484011115612e0857612e07612d19565b5b612e13848285612dca565b509392505050565b600082601f830112612e3057612e2f612d14565b5b8135612e40848260208601612dd9565b91505092915050565b60008060408385031215612e6057612e5f612a5b565b5b6000612e6e85828601612a7c565b925050602083013567ffffffffffffffff811115612e8f57612e8e612a60565b5b612e9b85828601612e1b565b9150509250929050565b60008060008060808587031215612ebf57612ebe612a5b565b5b6000612ecd87828801612a7c565b945050602085013567ffffffffffffffff811115612eee57612eed612a60565b5b612efa87828801612e1b565b9350506040612f0b87828801612a7c565b925050606085013567ffffffffffffffff811115612f2c57612f2b612a60565b5b612f3887828801612e1b565b91505092959194509250565b60008060408385031215612f5b57612f5a612a5b565b5b6000612f6985828601612a7c565b9250506020612f7a85828601612c5b565b9150509250929050565b60008060408385031215612f9b57612f9a612a5b565b5b6000612fa985828601612a7c565b9250506020612fba85828601612a7c565b9150509250929050565b7f4e487b7100000000000000000000000000000000000000000000000000000000600052602260045260246000fd5b6000600282049050600182168061300b57607f821691505b60208210810361301e5761301d612fc4565b5b50919050565b7f416363657373207265737472696374656420746f204f776e65722c204361726560008201527f722c206f72205368656c74657200000000000000000000000000000000000000602082015250565b6000613080602d836129aa565b915061308b82613024565b604082019050919050565b600060208201905081810360008301526130af81613073565b9050919050565b7f506574207265636f726420646f6573206e6f7420657869737400000000000000600082015250565b60006130ec6019836129aa565b91506130f7826130b6565b602082019050919050565b6000602082019050818103600083015261311b816130df565b9050919050565b7f4f6e6c792063726561746f722063616e2075736520746869732066756e63746960008201527f6f6e000000000000000000000000000000000000000000000000000000000000602082015250565b600061317e6022836129aa565b915061318982613122565b604082019050919050565b600060208201905081810360008301526131ad81613171565b9050919050565b7f496e76616c696420726f6c650000000000000000000000000000000000000000600082015250565b60006131ea600c836129aa565b91506131f5826131b4565b602082019050919050565b60006020820190508181036000830152613219816131dd565b9050919050565b7f4f6e6c7920746865206f776e65722063616e206d61726b20612070657420617360008201527f20666f756e640000000000000000000000000000000000000000000000000000602082015250565b600061327c6026836129aa565b915061328782613220565b604082019050919050565b600060208201905081810360008301526132ab8161326f565b9050919050565b60008190508160005260206000209050919050565b60006020601f8301049050919050565b600082821b905092915050565b6000600883026133147fffffffffffffffffffffffffffffffffffffffffffffffffffffffffffffffff826132d7565b61331e86836132d7565b95508019841693508086168417925050509392505050565b6000819050919050565b600061335b6133566133518461296b565b613336565b61296b565b9050919050565b6000819050919050565b61337583613340565b61338961338182613362565b8484546132e4565b825550505050565b600090565b61339e613391565b6133a981848461336c565b505050565b5b818110156133cd576133c2600082613396565b6001810190506133af565b5050565b601f821115613412576133e3816132b2565b6133ec846132c7565b810160208510156133fb578190505b61340f613407856132c7565b8301826133ae565b50505b505050565b600082821c905092915050565b600061343560001984600802613417565b1980831691505092915050565b600061344e8383613424565b9150826002028217905092915050565b6134678261299f565b67ffffffffffffffff8111156134805761347f612d1e565b5b61348a8254612ff3565b6134958282856133d1565b600060209050601f8311600181146134c857600084156134b6578287015190505b6134c08582613442565b865550613528565b601f1984166134d6866132b2565b60005b828110156134fe578489015182556001820191506020850194506020810190506134d9565b8683101561351b5784890151613517601f891682613424565b8355505b6001600288020188555050505b505050505050565b7f4f6e6c7920746865206f776e65722063616e206d61726b20612070657420617360008201527f206c6f7374000000000000000000000000000000000000000000000000000000602082015250565b600061358c6025836129aa565b915061359782613530565b604082019050919050565b600060208201905081810360008301526135bb8161357f565b9050919050565b7f506574206973206e6f74206c6f73740000000000000000000000000000000000600082015250565b60006135f8600f836129aa565b9150613603826135c2565b602082019050919050565b60006020820190508181036000830152613627816135eb565b9050919050565b7f4f6e6c7920566574206f72205368656c7465722063616e20757365207468697360008201527f2066756e6374696f6e0000000000000000000000000000000000000000000000602082015250565b600061368a6029836129aa565b91506136958261362e565b604082019050919050565b600060208201905081810360008301526136b98161367d565b9050919050565b7f4f6e6c7920746865206f776e65722063616e207265676973746572206120636160008201527f7265720000000000000000000000000000000000000000000000000000000000602082015250565b600061371c6023836129aa565b9150613727826136c0565b604082019050919050565b6000602082019050818103600083015261374b8161370f565b9050919050565b7f4f6e6c79205368656c7465722063616e2075736520746869732066756e63746960008201527f6f6e000000000000000000000000000000000000000000000000000000000000602082015250565b60006137ae6022836129aa565b91506137b982613752565b604082019050919050565b600060208201905081810360008301526137dd816137a1565b9050919050565b7f4f6e6c7920746865206f776e65722063616e206465726567697374657220612060008201527f6361726572000000000000000000000000000000000000000000000000000000602082015250565b60006138406025836129aa565b915061384b826137e4565b604082019050919050565b6000602082019050818103600083015261386f81613833565b9050919050565b7f496e73756666696369656e742062616c616e636520746f206275726e00000000600082015250565b60006138ac601c836129aa565b91506138b782613876565b602082019050919050565b600060208201905081810360008301526138db8161389f565b9050919050565b7f4e487b7100000000000000000000000000000000000000000000000000000000600052601160045260246000fd5b600061391c8261296b565b91506139278361296b565b925082820390508181111561393f5761393e6138e2565b5b92915050565b60006139508261296b565b915061395b8361296b565b9250828201905080821115613973576139726138e2565b5b92915050565b7f496e73756666696369656e742062616c616e6365000000000000000000000000600082015250565b60006139af6014836129aa565b91506139ba82613979565b602082019050919050565b600060208201905081810360008301526139de816139a2565b9050919050565b7f4f6e6c7920566574206f722053706f6e736f722063616e20757365207468697360008201527f2066756e6374696f6e0000000000000000000000000000000000000000000000602082015250565b6000613a416029836129aa565b9150613a4c826139e5565b604082019050919050565b60006020820190508181036000830152613a7081613a34565b9050919050565b6000613a828261296b565b9150613a8d8361296b565b9250828202613a9b8161296b565b91508282048414831517613ab257613ab16138e2565b5b5092915050565b7f43616e6e6f74206368616e67652073797374656d206d616e616765722773207260008201527f6f6c650000000000000000000000000000000000000000000000000000000000602082015250565b6000613b156023836129aa565b9150613b2082613ab9565b604082019050919050565b60006020820190508181036000830152613b4481613b08565b9050919050565b7f43616e6e6f74206368616e676520566574277320726f6c650000000000000000600082015250565b6000613b816018836129aa565b9150613b8c82613b4b565b602082019050919050565b60006020820190508181036000830152613bb081613b74565b9050919050565b7f43616e6e6f74206368616e67652053706f6e736f72277320726f6c6500000000600082015250565b6000613bed601c836129aa565b9150613bf882613bb7565b602082019050919050565b60006020820190508181036000830152613c1c81613be0565b9050919050565b7f50657420697320616c7265616479207265676973746572656400000000000000600082015250565b6000613c596019836129aa565b9150613c6482613c23565b602082019050919050565b60006020820190508181036000830152613c8881613c4c565b9050919050565b7f4f6e6c792053706f6e736f722053746f7265732063616e20757365207468697360008201527f2066756e6374696f6e0000000000000000000000000000000000000000000000602082015250565b6000613ceb6029836129aa565b9150613cf682613c8f565b604082019050919050565b60006020820190508181036000830152613d1a81613cde565b9050919050565b7f4f6e6c7920746865206f776e65722063616e207472616e73666572207468652060008201527f7065740000000000000000000000000000000000000000000000000000000000602082015250565b6000613d7d6023836129aa565b9150613d8882613d21565b604082019050919050565b60006020820190508181036000830152613dac81613d70565b905091905056fea2646970667358221220cddbe6ff1b0fca25607c6a2cba7f6b994d0d840f03338684e59f447c0ef6151864736f6c634300081c0033",
  "linkReferences": {},
  "deployedLinkReferences": {}
}